:020000040800F2
:1000000078060020DD0100088F0E0008DF0D0008D3
:100010008D0E000815030008AD1300080000000055
:10002000000000000000000000000000930E000827
:100030001703000800000000910E0008910F00084F
:10004000F7010008F7010008F7010008F7010008B0
:10005000F7010008F7010008F7010008F7010008A0
:10006000F7010008F7010008F7010008F701000890
:10007000F7010008F7010008F7010008F701000880
:10008000F7010008F7010008F70100080000000070
:10009000000000000000000000000000F701000860
:1000A000F7010008F7010008F7010008F701000850
:1000B000000000000000000000000000F701000840
:1000C000F7010008F7010008F7010008F701000830
:1000D000F7010008F7010008A11300080000000064
:1000E000F7010008F7010008000000000000000010
:1000F000000000000000000000000000F701000800
:100100000000000000000000F701000800000000EF
:100110000000000000000000F701000800000000DF
:10012000F7010008F7010008F7010008F7010008CF
:10013000F7010008000000000000000000000000BF
:1001400000000000000000000000000000000000AF
:10015000F7010008F7010008F7010008F70100089F
:10016000000000000000000000000000000000008F
:10017000000000000000000000000000000000007F
:10018000F7010008F701000800000000000000006F
:1001900000000000F701000800000000000000005F
:1001A000000000000000000000000000000000004F
:1001B000000000000000000000000000F70100083F
:1001C000F7010008F7010008DFF80CD000F090F804
:1001D000004800477D150008780600200648804743
:1001E00006480047FEE7FEE7FEE7FEE7FEE7FEE71C
:1001F000FEE7FEE7FEE7FEE715100008C90100086C
:100200002DE9F05F0546002092469B46884606464B
:10021000814640241BE0284641464746224600F0DE
:1002200057F853465A46C01A914110D31146184602
:10023000224600F03EF82D1A67EB01084F46224691
:100240000120002100F035F817EB00094E41201E77
:10025000A4F10104DFDC484631462A464346BDE8A6
:10026000F09FD2B201E000F8012B491EFBD270478B
:100270000022F6E710B513460A4604461946FFF772
:10028000F0FF204610BD30B50B460146002020226D
:10029000012409E021FA02F59D4205D303FA02F593
:1002A000491B04FA02F52844151EA2F10102F1DCF3
:1002B00030BD202A04DB203A00FA02F1002070470A
:1002C0009140C2F1200320FA03F319439040704794
:1002D000202A04DB203A21FA02F00021704721FA9B
:1002E00002F3D040C2F12002914008431946704702
:1002F000064C074D06E0E06840F0010394E8070073
:1003000098471034AC42F6D3FFF762FFC0160008DE
:10031000E0160008FEE77047704790F83510022994
:1003200003D08021416501207047052180F83510F8
:100330000068016821F001010160002070470000A1
:100340002DE9F84F00224FF0010803254FF00F0E62
:100350000B6808FA02F42340A3426ED14E68012EC6
:1003600005D0022E03D0112E01D0122E12D1866894
:100370004FEA420C05FA0CF7BE43CF6807FA0CF7B8
:10038000374387604668A6430C79C4F30014944051
:1003900034434460C668570005FA07FC8C6826EAB7
:1003A0000C06BC403443C4604C68022C01D0122CB3
:1003B00013D1D40800EB8404A346D4F8209054074A
:1003C0004FEAD46A0EFA0AF629EA06090E6906FA15
:1003D0000AF646EA0906CBF8206004680E7924EA9A
:1003E0000C0406F00306BE40264306604C68E40099
:1003F0004CD5294C266846F480462660246822F0B5
:10040000030604F480440094244C3444A446D4F8F5
:1004100008489607370F0EFA07F6B443204EB0424D
:1004200001D100260BE01F4EB04201D1012606E0AB
:100430001D4EB04202D1022601E027E00726BE4051
:100440002643CCF80868194E34684F689C43FF0374
:1004500000D51C433460154E361D34684F689C43EC
:10046000BF0300D51C433460104E083634684F6813
:100470009C43FF0200D51C4334600C4E0C3634689C
:100480004F689C43BF0200D51C433460521C102AA5
:10049000FFF45EAFBDE8F88F443802400030014001
:1004A000000002400004024000080240003C0140FD
:1004B000426931EA020200D10904816170470AB140
:1004C000816170470904FBE70148806870470000BC
:1004D000180000200248816802781144816070474A
:1004E000180000200B4810B5016841F4007101604C
:1004F000016841F480610160016841F4807101602C
:10050000032000F06FF8002000F006F800F024F857
:10051000002010BD003C024070B50D4D04464FF464
:100520007A712878B1FBF0F00A490968B1FBF0F064
:1005300000F0E8FA48B9102C07D200222146501EDC
:1005400000F030F800206C6070BD012070BD00002C
:1005500018000020240000200A4808B5016841F472
:1005600080410160006800F4804000900548001F51
:10057000016841F080510160006800F080500090F7
:1005800008BD000044380240002809DB00F01F02CB
:10059000012191404009800000F1E020C0F80011E5
:1005A00070470000F0B40E4B1B680C46C3F30223E7
:1005B000C3F10705042D00D90425191D072901D20F
:1005C000002300E0DB1E012606FA05F1491E21404A
:1005D00099409E40761E16403143F0BC00F0F8BEB4
:1005E0000CED00E0064900F0070208684FF6FF0333
:1005F000184040EA0220034A104308607047000098
:100600000CED00E00000FA052DE9F0470E4605006C
:1006100065D0DFF81481D8F80000F7B200F00F00C1
:10062000B04207D288F80070D8F8000000F00F0040
:10063000B04254D128683D4C810712D5400703D5FC
:10064000206840F4E05020602878000703D5206837
:1006500040F4604020602068A96820F0F000084362
:1006600020602878C0072DD03049686808390128F3
:1006700012D0022813D0032811D009688907002955
:100680002DDA216821F0030101432160FFF71CFFEF
:10069000814641F2883A0EE009688903EFE709686C
:1006A0008901ECE7FFF710FFA0EB0901514502D9E2
:1006B0000320BDE8F0872068696800F00C00B0EB0B
:1006C000810FEFD1D8F80010404601F00F01B14280
:1006D00007D90770006800F00F00B04201D0012078
:1006E000E7E72878400705D52068E96820F4E0505E
:1006F000084320602878000706D52068296920F47F
:10070000604040EAC100206000F038F82168084AE3
:10071000C1F30311515CC8400649086006480068EF
:10072000FFF7FAFE0020C4E7003C02400838024010
:10073000A8160008240000201C00002004480549D9
:1007400000680968044AC1F38221515CC8407047BF
:100750002400002008380240B81600080448054963
:1007600000680968044AC1F34231515CC8407047CF
:100770002400002008380240B8160008154810B5BB
:10078000006810F00C02144813D01449042A0FD04A
:10079000082A0ED10F4C241F2268236802F03F0262
:1007A0005B0207D52068C0F38810A0FB010106E0BA
:1007B000084610BD2168C1F38811A1FB0001002388
:1007C000FFF71EFD2168C1F30141491C4900B0FB40
:1007D000F1F010BD083802400024F40040787D019B
:1007E0002DE9F84F05460078DFF800B3C04CC0078C
:1007F0004AD0DBF800105846C1F38101012908D026
:100800000068C0F3810002280AD1201D0068400260
:1008100006D52068800337D56868002872D033E099
:100820006868B0F5803F10D0B0F5A02F206810D0D8
:1008300020F480302060206820F4802020606868E8
:10084000A8B1FFF741FE06460DE0206840F4803075
:10085000F4E740F480202060F7E700BFFFF734FEA4
:10086000801B64286FD820688003F7D50CE0FFF761
:100870002BFE064605E000BFFFF726FE801B64281E
:10088000F0D820688003F7D42878DFF868828007E2
:100890004FF0000940D5DBF80010584611F00C0F5E
:1008A00009D00068C0F3810002280BD18F48001FD7
:1008B0000068400206D42068800715D5E868012842
:1008C00020D111E0E868B8B10120C8F80000FFF7B6
:1008D000FBFD064605E000BFFFF7F6FD801B022882
:1008E000C0D820688007F7D52068296920F0F80073
:1008F00040EAC10020600FE0C8F80090FFF7E4FD77
:10090000064606E0EFE000BFFFF7DEFD801B022891
:1009100019D820688007F7D42878000722D5734EAD
:10092000754869696C3679B101210160FFF7CCFD2A
:10093000074604E0FFF7C8FDC01B022803D8306853
:100940008007F7D50EE089E0C0F80090FFF7BCFD06
:10095000074604E0FFF7B8FDC01B02287ED83068C8
:100960008007F7D42878400768D5DFF880A10027F2
:100970000AF1380ADAF80000C0000BD4DAF80010E7
:1009800041F08051CAF80010DAF80000012700F0A9
:1009900080500090594E3068C00510D4306840F443
:1009A00080703060FFF790FD009005E0FFF78CFD50
:1009B0000099401A022851D83068C005F6D54B4E30
:1009C000A868683601280FD00528306810D020F0BC
:1009D00001003060306820F004003060A868B8B1D1
:1009E000FFF772FD00900FE0306840F00100F4E77F
:1009F00040F004003060F7E7FFF766FD0099411A08
:100A000041F28830814266D830688007F4D50EE024
:100A1000FFF75AFD009007E0FFF756FD0099411AD5
:100A200041F28830814256D830688007F4D42FB123
:100A3000DAF8001021F08051CAF80010A869D0B38C
:100A4000DBF80010C1F3810102294CD0022848468E
:100A500007D0C8F86000FFF737FD00E03BE005462F
:100A60003CE04746C8F86000FFF72EFD064604E06C
:100A7000FFF72AFD801B02282DD820688001F7D4BB
:100A8000F5E907010843E9681D4A490802EB0141FD
:100A9000AA6841EA82110843297C40EA0160297D65
:100AA00040EA01711148001F016001203866FFF71C
:100AB0000BFD054605E014E0FFF706FD401B02288C
:100AC00009D820688001F7D50BE000BFFFF7FCFCD8
:100AD000401B022802D90320BDE8F88F206880015E
:100AE000F4D40020F8E70120F6E7000008380240BF
:100AF0000038024000004742800E4742007000402C
:100B00000000FFFF10B5401EB0F1807F01D301202F
:100B100010BD4FF0E02460610F21601700F058FC19
:100B20000020A06107202061002010BD7047000058
:100B300070B5026804461068D168536910F00F0F51
:100B400052D003F0010501F490762E435FD0C20726
:100B500005D0CA0503D5E26B42F00102E263420709
:100B600005D5DA0703D0E26B42F00202E2638207A6
:100B700005D5DA0703D0E26B42F00402E263020714
:100B800007D501F020022A4303D0E26B42F00802AD
:100B9000E263E26B002A33D0800604D5880602D5D2
:100BA000204600F0B9FA20684069E16BC0F380107C
:100BB000090700D428B3204600F0A0FA2068416954
:100BC00049061AD5416921F040014161606BA0B12D
:100BD0001B490165606BFFF7A0FB002810D0606B1C
:100BE000016DBDE870400847830610D58B060ED511
:100BF0002046BDE8704000F08FBA2046FFF796FF10
:100C000070BD2046FFF792FF0020E06370BD030631
:100C100006D50B0604D52046BDE8704000F05CBB4D
:100C20004006F3D54806F1D5D168204621F04001B1
:100C3000D160202184F8391000F0D0F870BD000098
:100C4000ED10000870B5040004D094F839000025B8
:100C500010B106E0012070BD84F83850204600F045
:100C600023F8242084F839002068C16821F4005159
:100C7000C160204600F09CFA2068016921F490418F
:100C800001612068416921F02A0141612068C16841
:100C900041F40051C160E563202084F8390084F8F4
:100CA0003A00002070BD000010B586B00446142143
:100CB0006846FFF7DDFA17492068884228D11648B0
:100CC0000021026842F400320260006800F4003043
:100CD000059011481038026842F001020260006875
:100CE00000F0010005900C2000900220CDE90101E8
:100CF000032003900720049069460848FFF720FB73
:100D0000002211462620FFF74DFC2620FFF73CFC71
:100D100006B010BD004400404038024000000240D0
:100D200070472DE9F843044690F839001F461646EF
:100D30000D46202850D1B5B1AEB194F83800012845
:100D40004AD0012084F838004FF00008C4F83C80F5
:100D5000212084F83900FFF7B7FBA6848146E6849A
:100D600084F8388026E00120BDE8F883E08C401E3E
:100D7000E084A0684B46B0F5805F4FF000024FF072
:100D800080012046009703D000F0D7FAE8B90DE0C3
:100D900000F0D3FAC8B928882168C0F30800486079
:100DA000206908B16D1C05E0AD1C03E0216815F851
:100DB000010B4860E08C0028D8D14B46002240212E
:100DC0002046009700F0B9FA08B10320CCE72020B4
:100DD00084F839000020C7E70220C5E77047FEE726
:100DE000084B18B1012803D0022806D0002200E0E9
:100DF000012220211846FFF762BB20211846FFF789
:100E000057BB00000000024030B587B0142168468F
:100E1000FFF72EFA0D480024016841F0010101603E
:100E200000680B4D00F00100059022462021284665
:100E3000FFF745FB202000900120CDE90104694621
:100E400028460394FFF77CFA07B030BD30380240E3
:100E5000000002400C4810B50A4901604FF4E1312E
:100E60004160002181600C22C160C0E904128161EF
:100E7000C161FFF7E7FE002803D0BDE81040FFF78F
:100E80004BBA10BD0044004034000020FEE770471C
:100E9000704770472DE9F047184C1F46904625686B
:100EA0000E4681464FF0000A95B9182000F0C6FBA7
:100EB000206080F80590C660FFF706FB8119206866
:100EC000C0F800A08160C0E90487BDE8F08705464E
:100ED00028680028FBD1182000F0B0FB80F80590AE
:100EE0000446C660FFF7F0FA3044C4F800A0A060E2
:100EF000C4E9048720462C60E7E7000010000020CA
:100F00002DE9F041144D022600274FF001082C680E
:100F10001BE02079C0B1012802D0022814D10AE0D8
:100F2000FFF7D2FAA16888420ED326712169696061
:100F30006069884708E0607958B1FFF7C5FAE16851
:100F40000844A06084F804802468002CE1D1BDE846
:100F5000F0812771F8E700001000002010B518B1EB
:100F600001210171084610BD02A000F021FA002005
:100F700010BD00005B6572726F725D2074696D65F3
:100F800072206E6F7420666F756E64210D0A00000A
:100F9000FFF7A0BA30B593B034216846FFF768F97F
:100FA00014210DA8FFF764F918480025016841F0E5
:100FB00080510160006800F0805012901448016870
:100FC00041F4404101600068022400F44040129066
:100FD000012003901020009406940490CDE907505E
:100FE000C820CDE909040420CDE90B046846FFF7C9
:100FF000F7FB0DA90F2081E83100E002CDE91005D3
:1010000003210DA8FFF700FB13B030BD40380240AC
:10101000007000400548016841F470010160034917
:101020004FF00060803908607047000088ED00E0F4
:10103000014601A000F0BCB974686973206973208F
:1010400074696D6572312025640D0A0070B505461E
:1010500001230C4A4FF47A711846FFF71BFF0A4C24
:10106000206010B909A000F0A3F92068FFF776FF0F
:1010700029460BA000F09CF9BDE870400220FFF764
:10108000AFBE00003110000800000020B6A8CAB1B1
:10109000C6F731B4B4BDA8CAA7B0DC0D0A00000081
:1010A000746869732069732074696D6572322025D4
:1010B000640D0A00014601A000F07AB974686973F2
:1010C0002069732074696D6572342025640D0A00EF
:1010D000014601A000F06CB974686973206973203F
:1010E00074696D6572352025640D0A0010B5806B3A
:1010F0000021C185C184FFF719FD10BD0168CA68D0
:1011000022F49072CA6001684A6922F001024A61C1
:10111000202180F83A10704710B590F83A10222933
:1011200001D0022010BD8168B1F5805F11D0016946
:10113000002901681FD0496801F07F03816A4A1CB9
:1011400082620B70C18D491E0904090CC18518D03B
:101150002BE00269816A002A0268526805D0D2B287
:101160000A80816A491C8162ECE7C2F308020A80A6
:10117000816A891CF7E74A68816A4B1C83620A709E
:10118000E0E70168CA6822F02002CA600168CA6804
:1011900022F48072CA6001684A6922F001024A6141
:1011A000202180F83A10FFF7BBFD002010BD0000A1
:1011B0002DE9F041044600680169E26821F44051DC
:1011C000114301612169A068E26908436169114323
:1011D00008432168CA6849F20C639A430243CA6013
:1011E00020684169A26921F4407111434161E069BD
:1011F000192764253226B0F5004F354A3549206855
:101200004FF0000806D0884201D0904236D1FFF757
:10121000A5FA35E0884201D0904202D1FFF79EFA4C
:1012200001E0FFF78BFA61684A18A0FB070148EB61
:101230000803FEF7E5FF0146B0FBF5F00201B1FB44
:10124000F5F06FF01803584301EB800006EBC00087
:10125000B0FBF5F000F0F80002EB4002B1FBF5F056
:10126000584301EB800006EBC000B0FBF5F000F046
:101270000700216810448860BDE8F081FFF75EFA3E
:1012800061688B0F8A00A0FB0701FEF7B9FF0146DA
:10129000B0FBF5F06FF01802504301EB800006EB55
:1012A0000010B0FBF5F000F0F002B1FBF5F002EB3E
:1012B0000012B1FBF5F06FF01803584301EB80000A
:1012C00006EB0010B0FBF5F000F00F00D1E70000D6
:1012D000001401400010014090F83910212901D07C
:1012E000022070478168B1F5805F016A0BD04A1C0B
:1012F0000262026809785160C18C491E0904090C18
:10130000C1840ED017E009880268C1F3080151605A
:1013100001690029016A02D0491C0162ECE7891CBD
:10132000FBE70168CA6822F08002CA600068C168F1
:1013300041F04001C160002070472DE9F04198461E
:1013400017460E460446069D1DE0681C1BD02DB1B5
:10135000FFF7BAF8A0EB0800A84214D92068C168CA
:1013600021F4D071C1602068416921F0010141611F
:10137000202084F8390084F83A00002084F83800EE
:101380000320BDE8F0812068006836EA000004D040
:101390000020B842D9D00020F3E70120F9E700008F
:1013A0000148FFF7C5BB000034000020FEE7000045
:1013B0000FB4054B10B503A9044A029800F028F8B1
:1013C00010BC5DF814FB0000651500082800002023
:1013D0000907090E002804DB00F1E02080F8001462
:1013E000704700F00F0000F1E02080F8141D7047F6
:1013F00002E008C8121F08C1002AFAD170477047DE
:10140000002001E001C1121F002AFBD1704700003B
:101410002DE9FF4F89B09B460446002506E02528AC
:101420000BD05A460B999047641C6D1C20780028FD
:10143000F5D10DB02846BDE8F08F0027B84601224F
:10144000474900E0074314F8013F203B02FA03F04C
:101450000842F7D120782E2819D114F8010F47F04F
:1014600004072A280ED06FF02F022078A0F1300157
:1014700009290CD808EB880102EB410100EB0108B7
:10148000641CF2E70A98641C50F8048B0A902078D8
:101490000028CED0642808D0692806D075281ED030
:1014A0005A460B9990476D1C58E00A994FF00A096B
:1014B00001C90A91002802DA40422D2102E03905D3
:1014C00004D52B218DF82010012103E0F90704D069
:1014D0002021F7E78A4608AE0DE00021FAE70A99D5
:1014E0004FF00A0901C90A91F7E74946FEF7CBFE1A
:1014F000303106F8011D0028F7D1ADEB060000F1F0
:101500002009780701D44FF00108C84502DDA8EB97
:10151000090000E000208046002706E008A85A469F
:10152000C05D0B9990476D1C7F1C5745F6DB04E0AE
:1015300030205A460B9990476D1CB8F10001A8F174
:101540000108F5DC05E016F8010B5A460B999047A7
:101550006D1CB9F10001A9F10109F4DC641C65E717
:101560000928010013B54FF6FF73012269460248AE
:10157000FFF7D7FB00981CBD34000020FEF7B2FF38
:10158000FFF708FDFFF740FCFFF764FC0223184A51
:101590004FF4FA610020FFF77DFC164C606010B933
:1015A00015A0FFF705FF0423184A4FF4C871012066
:1015B000FFF770FCA06010B915A0FFF7F9FE052336
:1015C000184A4FF496710120FFF764FCE06010B9EF
:1015D00015A0FFF7EDFE6068FFF7C0FCA068FFF7FD
:1015E000BDFCE068FFF7BAFCFFF78AFCFCE70000EF
:1015F0004D10000800000020B6A8CAB1C6F732B4EA
:10160000B4BDA8CAA7B0DC0D0A000000B5100008E0
:10161000B6A8CAB1C6F734B4B4BDA8CAA7B0DC0D29
:101620000A000000D1100008B6A8CAB1C6F735B448
:10163000B4BDA8CAA7B0DC0D0A000000F0B50B309D
:10164000154D20F007010024144A0FE003688B4277
:101650000BD38B4205D95E1A43184768C3E900676C
:1016600000E04368136002C004E0021D1068002817
:10167000ECD12046002802D1286808B10020F0BD36
:10168000064A07481060074A121A22F00702C0E90A
:10169000002401202860D7E7300000202C00002023
:1016A0007C00002078020020000000000000000004
:1016B00001020304060708090000000001020304F8
:1016C000E01600080000002034000000F0130008BD
:1016D000141700083400002044060000001400081D
:1016E00000000000000000000000000000000000FA
:1016F00000000000000000000100000010000000D9
:10170000000000000024F4000000000000000000C1
:0417100000000000D5
:04000005080001C925
:00000001FF
