:020000040800F2
:1000000028080020CD0000082D0A0008110A000869
:1000100000000000000000000000000000000000E0
:100020000000000000000000000000002B0B000892
:100030000000000000000000290B00082D0B000844
:10004000DF00000800000000DF000008DF000008FB
:10005000DF000008DF000008DF000008DF00000804
:1000600000000000DF000008DF000008DF000008DB
:10007000DF000008DF000008DF00000800000000CB
:10008000DF000008DF000008DF000008DF000008D4
:10009000DF000008DF000008DF000008DF000008C4
:1000A000DF000008DF000008DF000008DF000008B4
:1000B000DF000008DF0000080348854600F03CF838
:1000C00000480047791000082808002004488047AD
:1000D00004480047FEE7FEE7FEE7FEE7FEE7FEE72F
:1000E0009D0B0008B900000830B50B460146002002
:1000F0002022012409E00D46D5409D4205D31D462E
:100100009540491B2546954040191546521E002D25
:10011000F1DC30BDD2B201E00270401C491EFBD2BE
:1001200070470022F6E710B513460A460446194602
:10013000FFF7F0FF204610BD064C0125064E05E0F6
:10014000E36807CC2B430C3C98471034B442F7D3F8
:10015000FFF7B6FF68BD000888BD000870B504460B
:1001600000F0C8F80546601C02D004480078241846
:1001700000F0C0F8401BA042FAD370BD0000002080
:10018000FCB5002301259AE022462C469C402240E3
:100190006FD04E68012E05D0022E03D0112E01D053
:1001A000122E16D186680327B4465E00B646B740C5
:1001B0006646BE43B446CF687646B7406646374388
:1001C00087604668A6430C79E406E40F9C403443FC
:1001D0004460C6685F000324BC40A446A6438C6804
:1001E000BC403443C4604C68022C01D0122C14D1A2
:1001F000DC08A40024180194266A5C07B646E60EC3
:100200000F24B44000967646A643B6460C69009E7D
:10021000B44076462643019C266204686646B44391
:100220000E79B607B60FBE40264306604C68E40060
:1002300044D59E08254CB6003419A446246E9E076A
:10024000F60E0F27B740BC4305273F07B84201D140
:10025000002710E01E4FB84201D101270BE01D4FCF
:10026000B84201D1022706E01B4FB84202D1032752
:1002700001E023E00527B740274364462766134E75
:10028000803634684F689443FF0300D514433460CC
:1002900074684F689443BF0300D5144374600B4CDB
:1002A00026684F689643FF0200D5164326606668AD
:1002B0004F689643BF0200D5164366605B1C0A6810
:1002C0001446DA4000D05FE7FCBD00000018024091
:1002D0000004005000080050000C00500069084065
:1002E00000D001207047002A01D0816170478162EF
:1002F000704700000148806870470000000000203F
:1003000002488168027889188160704700000020E7
:1003100010B5084800240168821511430160204689
:1003200000F00AF8002801D0012401E000F028F8CC
:10033000204610BD0020024070B50F4E00243178D9
:100340000546002915D07D20C000FFF7CDFE0146EF
:100350000A480068FFF7C8FE00F042FB002808D1F9
:10036000042D06D200222946401E00F023F87560B5
:1003700000E00124204670BD000000200C00002099
:1003800008B50B4801680122114301600068104064
:10039000009007484038C26B01040A43C263C06B37
:1003A000084000900320400200F010FB08BD000050
:1003B0004010024010B500F029FC10BD10B50F4CE4
:1003C000216803225202914301432160C11FFF397A
:1003D000FA390ED10A480621006848430949FFF757
:1003E00083FE401C02E0002805D0401E61694905DB
:1003F000F9D4002010BD032010BD000000700040A3
:100400000C00002040420F00F8B50F46060043D014
:100410004D4D28684007400FB84213D22868C008E5
:10042000C00038432860FFF765FF044605E0FFF78A
:1004300061FF011B4548814261D828684007400F91
:10044000B842F4D13068424C81070DD5400704D53D
:10045000A068072109030843A060A0680F210902D2
:100460008843B1680843A0603078C00732D0706814
:1004700001280AD002280BD000280FD0344940317F
:1004800003280ED0C969890704E02168890301E0C7
:1004900021688901002906DB0120F8BD2168490592
:1004A000F8E7096AEFE7A168C908C9000143A1603C
:1004B000FFF720FF009006E0FFF71CFF0099411AAC
:1004C000224881421BD8A068382108407168C900C1
:1004D0008842F1D128684007400FB84217D91A481E
:1004E0000168C908C90039430160FFF703FF0546E9
:1004F00007E0FFF7FFFE411B1448814201D90320AA
:10050000F8BD114800684007400FB842F1D130787B
:10051000400706D5A068072109038843F16808430E
:10052000A06000F01DF8A1683C2289091140094A29
:10053000515CC906C90EC8400749086007480068F1
:10054000FFF7FAFEF8BD000000200240881300000B
:1005500000100240882900080C0000200400002040
:1005600010B5204CA068204A8006400F16D0A06825
:100570008006410F501001290FD0A1688906490F4C
:10058000022912D0A0688006400F042823D0A0685A
:100590008006400F032821D0002010BD20680121D3
:1005A0008004400F8140104612E0E1688B07E1684B
:1005B0009B0F4906490F491C032B00D01046FFF73B
:1005C00093FDE1684904490E4843E168490F491C1D
:1005D000FFF78AFD10BD0120C00310BD7D20000281
:1005E00010BD0000001002400024F400F8B5040023
:1005F0007ED020783827C007EB4D002846D0A86869
:10060000E96838408907890F102802D008280BD0E4
:1006100001E0032908D001206268000482420AD167
:1006200029680143296015E0286880032ED5606899
:100630000028DDD02AE0052301211B0489049A4209
:100640002A6802D10A432A60EAE782432A602868BE
:1006500088432860606800280CD0FFF74BFE0646F0
:1006600004E0FFF747FE801B642873D828688003E6
:10067000F7D50BE0FFF73EFE064604E0FFF73AFE33
:10068000801B6428F1D828688003F7D4207880077D
:1006900069D5A868E96838408A070721920FC9021E
:1006A000102802D0002813D001E0022A10D0E06800
:1006B000002846D0286888432169084328602868B4
:1006C000FF21013108432860FFF714FE06462CE0A5
:1006D0002A68520502D5E268002A89D06A687F2319
:1006E0001B029A4363691B021A436A60002800E0F8
:1006F0008DE00ED128688843216908432860286866
:1007000001218004400F8140A848FFF7EDFCA84973
:100710000860A8480068FFF70FFE002877D122E0A4
:10072000FFF7E8FD801B02289FD828684005F7D511
:1007300068687F210902884361690902084368608B
:1007400011E02968FF20013081432960FFF7D2FDC5
:10075000064605E098E0FFF7CDFD801B022884D80F
:1007600028684005F7D42078934E00072ED5A86856
:100770008006400F03280AD0A0690028306A16D0EE
:10078000012108433062FFF7B5FD07460BE0306AF0
:1007900080071BD5A06900289FD017E0FFF7AAFDAE
:1007A000C01B022870D8306A8007F7D50EE04008D9
:1007B00040003062FFF79EFD074604E0FFF79AFD18
:1007C000C01B022860D8306A8007F7D42078400721
:1007D0006CD5A86800278006400F042818D0E86B65
:1007E000C00008D4E96B012000070143E963E96B0D
:1007F00001400127009171480168C90519D40168B9
:10080000821511430160FFF775FD00900DE083E054
:10081000F06980074AD5A06800287DD046E0FFF740
:1008200069FD0099401A02282ED864480068C00566
:10083000F5D5A168012910D004200529F16911D04E
:1008400049084900F161F1698143F161A06800281C
:1008500016D0FFF74FFD00900EE0F069012108432C
:10086000F061F3E70143F161F7E7FFF743FD00991A
:10087000411A534881426DD8F0698007F5D50EE0E2
:10088000FFF738FD009007E064E0FFF733FD0099C3
:10089000411A4B4881425DD8F0698007F5D4002F9A
:1008A00004D0E96B012000078143E963E069002877
:1008B00077D0A9688906490F022951D0012636064A
:1008C000022828680DD0B0432860E86880088000BE
:1008D000E860E8683B490840E860FFF70BFD044624
:1008E0003AE0B0432860FFF705FD074604E0FFF754
:1008F00001FDC01B02282DD828688001F7D4616A49
:10090000206AA26A0843E16A120211430843216B7C
:100910000843E9682C4A00E041E011400843E860E0
:10092000286830432860E868012109070843E86027
:10093000FFF7E0FC044604E0FFF7DCFC001B0228A4
:1009400008D828688001F7D52BE0FFF7D3FC001BFF
:10095000022801D90320F8BD28688001F5D420E0E1
:100960000128F8D0E868226A8107890F914216D1E0
:100970007021626A0140914211D17F21A26A09026D
:100980000140120291420AD11F214904E26A01404A
:10099000914204D1400F216B4007884201D00120D1
:1009A000F8BD0020F8BD0000001002400024F40053
:1009B0000C000020040000204010024000700040A5
:1009C00088130000FFFFFEEF8C80C11F03490A68F7
:1009D00003235B029A4302430A6070470000014010
:1009E000094910B5401E884201D9012010BD074CAD
:1009F00060610321081F00F009F90020A0610720B1
:100A00002061002010BD0000FFFFFF0000E000E0BB
:100A1000FEE7000008B50448416B01221143416321
:100A2000406B1040009008BD00100240FEE770B51A
:100A3000064600242046B030C0B200F0B7F80020CF
:100A400000F0B4F8102000F0B1F80025304600F0B6
:100A5000B4F86D1CEDB2802DF8D3641CE4B2082C00
:100A6000E8D370BD10B500F0C9F97D20C000FFF7D4
:100A700075FBAE2000F09AF8202000F097F81020C7
:100A800000F094F8B02000F091F8C82000F08EF843
:100A9000002000F08BF8102000F088F8402000F0D3
:100AA00085F8812000F082F8FF2000F07FF8A12077
:100AB00000F07CF8A62000F079F8A82000F076F885
:100AC0003F2000F073F8A42000F070F8D32000F06D
:100AD0006DF8002000F06AF8D52000F067F8F020EB
:100AE00000F064F8D92000F061F8222000F05EF8F0
:100AF000DA2000F05BF8122000F058F8DB2000F05C
:100B000055F8202000F052F88D2000F04FF8142006
:100B100000F04CF8AF2000F049F83220FFF71EFB40
:100B20000020FFF784FF10BD7047704710B5FFF736
:100B3000E7FB10BD30B591B034216846FFF7F1FAFC
:100B4000002501200D950E950F9540021095FFF799
:100B500035FC0224E0010390009440200590082019
:100B60000A9080030B900794000304950C9009955C
:100B700008946846FFF73AFD002801D072B6FEE7F8
:100B800007200DA931C102210DA81095FFF73CFCEB
:100B9000002801D072B6FEE711B030BD0120024935
:100BA000C00688607047000000ED00E010B5024606
:100BB0000021782000F013FA10BD10B50246402144
:100BC000782000F00CFA10BD0FB410B504A9074B43
:100BD00002AA039800F04CF8044602A9002000F095
:100BE000EFF8204610BC08BC04B01847C10D00083F
:100BF00030B47446641E2578641CAB4200D21D4696
:100C0000635D5B00E31830BC184700008307FF22D8
:100C1000DB0E9A408907090E9940002808DB8308FB
:100C200009489B001B1818689043084318607047D8
:100C30000007000F0838830804489B001B18D86978
:100C400090430843D861704700E400E000ED00E005
:100C500002E008C8121F08C1002AFAD17047704785
:100C6000002001E001C1121F002AFBD170470000E3
:100C7000FFB58DB00446002506E025280AD0109A5D
:100C80000F999047641C6D1C20780028F5D12846E8
:100C900011B0F0BD00270121484A009700E007434A
:100CA000641C23780846203B98401042F7D12078F6
:100CB0002E2817D1042007436078641C2A280CD101
:100CC0000E98641C02C800910E900BE000990A2255
:100CD000514330394018641C009020780146303967
:100CE0000929F3D920780028D1D0642808D06928B0
:100CF00006D075281ED0109A0F9990476D1C5BE0A6
:100D00000A200E99019001C90E91002802DA404292
:100D10002D2102E0390504D52B216A4611720121EB
:100D200003E0F90704D02021F7E70BAE0B910DE0AB
:100D30000021FAE70A200E99019001C90E91F7E708
:100D40000199FFF7D1F93031761E31700028F7D1C3
:100D500003A8801B20300190780701D5009801E09E
:100D6000012000900199884201DD401A00E0002036
:100D70000027009006E002A8109AC05D0F999047E6
:100D80006D1C7F1C0B988742F5DB04E0109A302025
:100D90000F9990476D1C0099481E00900029F5DCC2
:100DA00005E03078109A761C0F9990476D1C0199D8
:100DB000481E01900029F4DC641C65E70928010045
:100DC0000A68531C0B601070704710B500224C214C
:100DD00001F05AF910BD10B500224D2101F054F96F
:100DE00010BD0020401CC0B20528FBD3704710B5D1
:100DF00001684A7B2D2101F047F910BD08B50A486A
:100E0000426B08210A434263406B08400090074848
:100E100006210160012141600221C16001460448B0
:100E2000FFF7AEF908BD00000010024014000020DA
:100E3000000C005010B5044601224C2101F024F9A9
:100E40002046FFF7D4FF10BD10B501224D2101F05F
:100E50001BF910BD10B50649002801D0002000E0A4
:100E60000120486002490348FFF78AF910BD0000DD
:100E700014000020000C005070B505460020FFF75C
:100E8000E9FF134E0024280601D5012200E00022CC
:100E900002213046FFF727FAFFF7A3FF01220421C2
:100EA0003046FFF720FAFFF79CFF0022042130466E
:100EB000FFF719FA6806050EFFF793FF641CE4B20A
:100EC000082CE0D3012202213046FFF70CFA70BD56
:100ED000000C005010B5094C002202212046FFF7FB
:100EE00002FA012204212046FFF7FDF9FFF779FFFE
:100EF000012202212046FFF7F6F910BD000C005038
:100F0000F8B52C4E0F46054600240122022130463A
:100F1000FFF7E9F9012204213046FFF7E4F9FFF772
:100F200060FF002202213046FFF7DDF9FFF759FF8D
:100F3000002204213046FFF7D6F9FFF752FF33E0D5
:100F40002878FFF799FF00206D1CFFF783FF194EEB
:100F5000012202213046FFF7C6F9FFF742FF0122C6
:100F600004213046FFF7BFF9FFF73BFF0120FFF7F1
:100F700071FF02213046FFF7B1F9002801D00126A8
:100F800000E000260020FFF765FF00220421094849
:100F9000FFF7A9F9FFF725FF002E03D0FFF79AFF0F
:100FA0000120F8BD641CE4B2BC42C9D3FFF792FF34
:100FB0000020F8BD000C005010B50446002902D0F6
:100FC000FFF742FF01E0FFF706FF2046FFF70FFFA4
:100FD0002046FFF72FFF2046FFF7F7FE10BD08B5AC
:100FE0006B46187059709A7003216846FFF788FFA6
:100FF00008BD70B50C46C9090546C901FFF7DCFFFD
:101000002146402001402846FFF7D6FF21462020F8
:1010100001402846FFF7D0FF214610200140284616
:10102000FFF7CAFF2146082001402846FFF7C4FF0A
:101030002146042001402846FFF7BEFF214602203A
:1010400001402846FFF7B8FFE107C90F2846FFF720
:10105000B3FF2846FFF7F8FE2846FFF7C8FE2846EC
:10106000FFF7E8FE2846FFF7EFFE2846FFF7BFFE32
:101070002846FFF7AAFE70BDA4B0FFF749F9FFF7B5
:1010800059FDFFF7C7FC02A800F038F80F25184EED
:10109000102718A30A22002102A800F059F92246BD
:1010A00015A123A8FFF790FD23AB0A22322102A845
:1010B00000F046F9641C142C00DB0124E3B2282262
:1010C000602102A8009500F042F8102318220021A8
:1010D00002A80097019600F043F902A800F07BF9FE
:1010E00002A800F029F83220FFF738F8D1E7000015
:1010F00050210008A3BA00002564000010B5044682
:10110000094B0A4A0A4900F0ADF9204600F066FD95
:101110000021204600F072FD0649204600F063F9E8
:10112000204600F009F810BD352000089F1C00087B
:1011300048BC0008C829000810B501680A7C38219D
:10114000095C406B5143C900FEF7EBFF10BDFFB5D2
:101150001C46101981B0401CC0B20A9F00900819AB
:10116000401CC3B21546101BC2B20E46081BC1B2CA
:10117000019800F01DF9002806D023462A46314682
:101180000097019800F016FA05B0F0BDF8B50446D6
:10119000603080781F4615460E46002806D001288C
:1011A00009D002280CD0032815D10FE0216D20466C
:1011B0008847401908E0216D20468847301A09E029
:1011C000216D20468847281AC5B204E0216D2046CB
:1011D00088478019C6B22246284640321676507695
:1011E00039460025204600F0AAFB010003D0204626
:1011F00000F0D6FAC5B22846F8BD7FB50546603086
:1012000082B0007F0A99002836D06846007D002809
:1012100032D0012811D9022902D0032907D00CE0CD
:101220006A46127B101A6A46401C107305E06A4633
:10123000127C101A6A46401C1074CE072C46F60F1A
:101240004034002E1AD068466178007B814213D862
:10125000A178814210D92379E27805A904A800F089
:101260008BF9002808D00096286B84686846037DB7
:10127000027C017B2846A04706B070BD6846E17835
:10128000007C8142F8D821798142F5D9A37862782F
:1012900005A903A8E3E7FFB583B0039C1E4680348D
:1012A000A778002F10D000200190059803AD401CB6
:1012B000C0B2009004988019C3B207CD00F078F84E
:1012C000002826D0012521E00120EDE70C980078C8
:1012D000284201D0A77004E06078002808D1019866
:1012E000A0700020009003A807C80123FFF785FF26
:1012F0000498401CC0B20490680005062D0E03D16E
:101300000C980125401C0C90761EF6B2002EDDD103
:10131000A77007B0F0BD38B504464034E378934277
:101320000DD8237993420AD963788B4207D8A378E2
:101330008B4204D9002300930123FFF75EFF38BDE1
:1013400010B5024C446000F0C9F910BD611C0008E2
:1013500010B5024C446000F0C1F910BDC520000872
:10136000FFB583B0D81D0006C00E0C9D019050192A
:10137000C0B2009004981C460019C3B216460D9FD7
:101380000499039800F014F800280FD00CE02346CD
:101390003246009704990398FFF77DFF0198761C69
:1013A0003F186D1EF6B2EDB2002DF0D107B0F0BDC2
:1013B00070B5044640341E460D462179E078049B02
:1013C00000F016FB002805D0A178607833462A4645
:1013D00000F00EFB70BD10B5044600F096FB2046F1
:1013E00000F004FC10BD10B50446C06C884207D064
:1013F00020466430E16400F053FB204600F04EF8D4
:1014000010BD000001490165704700005517000834
:101410000146002240314A71CA71FF228A710A7264
:10142000016B4968084770B50025049EC564C36216
:10143000044641632030027645765F2005552046FC
:101440008030457001218170C1702663316820466B
:1014500088472046FFF7DCFF2046FFF7D3FF6034C4
:10146000A57070BD7CB500930C4613460546084A2E
:10147000084900F0CBFB01A800F00CFB01466846D0
:1014800000940279044B2846FFF7CDFF7CBD000095
:10149000111E0008311F0008091A000810B5C16CA0
:1014A000002916D0603011228256827712214156CF
:1014B000C177437F002B0CD0012B0BD00E241023BF
:1014C0000457C356E418944200DD8477994200DD46
:1014D000C37710BD1323C3569A4200DA83771422D0
:1014E00082569142F5DDC27710BD002B05D0012B4D
:1014F00005D0022B06D0801802E0401800E0801AC8
:10150000C0B27047401AFBE7002B05D0012B05D075
:10151000022B06D0401A02E0801800E04018C0B24A
:101520007047801AFBE738B5044605464034207AF8
:101530000090A379E27961792846FFF739FF603599
:10154000002816D00120287761786079814200D286
:101550006070A178A079814200D9A070E178E0792B
:10156000814200D2E0702179207A814200D9207135
:1015700038BD0020287738BD30B504780D782D1996
:10158000EDB2AC4205D99C4202D25D1EEDB200E044
:1015900014469C4201D2954201D8002030BD9442AD
:1015A00000D214469D4200D91D460470281B0870C5
:1015B000012030BDFFB50120C01A46B2584240009C
:1015C00083B0012740B200251C4602900FE0002E98
:1015D00007DB0298641E801C40B202903018E4B20F
:1015E00046B26D1CBF1C7FB2F019EDB246B20C9929
:1015F00005980191009022462946049B039800F02B
:1016000004F8A542E3D307B0F0BDFFB589B0129846
:101610001546401B0E460790981903901298139F89
:10162000801B06905819F9071C46029000290DD01E
:101630000798C2B20398C1B20998FFF76CFE0698EA
:10164000C2B20298C1B20998FFF765FEA01B0590CF
:10165000601BB907049000290DDA0798C2B20598FB
:10166000C1B20998FFF757FE0698C2B20498C1B2FA
:101670000998FFF750FE1298390744198519002977
:101680000BDA0398E2B2C1B20998FFF744FE029860
:10169000EAB2C1B20998FFF73EFE78070BD505986C
:1016A000E2B2C1B20998FFF736FE0498EAB2C1B2BD
:1016B0000998FFF730FE0DB0F0BD38B53C252D5C24
:1016C000049C0094521BC46AD2B2A04738BD38B5FE
:1016D000049C0094FFF7F1FF38BD0000FFB581B016
:1016E0001C46064600F0EAFC194F00257268217876
:1016F000304690470346B84226D01548641C401E29
:101700008342F3D03046039A0299FFF73FFD6221EE
:10171000895D002906D0012907D0022908D00329B4
:101720000FD10AE00299091804E00399091806E0AC
:101730000299091AC9B2029103E00399091AC9B2C0
:1017400003912818C5B2D1E7284605B0F0BD0000C6
:10175000FFFF00000020704710B50C4600F006F8AF
:101760000122641EA240801A40B210BD70B5056807
:10177000847A2A78E2406318DBB2082B09D3082662
:10178000341B6D1C05602D78A5401543083BEAB25B
:10179000DBB201248C40641E14408372204670BD6D
:1017A000F3B583B0039C2046543400F004F9039849
:1017B0005D25064645576036B17A2046FFF7CCFFD7
:1017C0000090F17A2046FFF7C7FF0746317B20469D
:1017D000FFF7C2FF019008202056002855DDE819C8
:1017E000404247B2A37B20793A460099FFF77DFE3D
:1017F0002071A37B3A4660790099FFF785FE6071FE
:101800002179A77B02460B46002F06D0012F09D075
:10181000022F3DD0032F0DD142E0277AFB18DBB217
:10182000401906E0491B491C5B1C277AC9B2DBB290
:101830003818C0B200900398FFF7BAFD002824D0F2
:101840000020A071E071B1792046FFF78FFF009072
:10185000F1792046FFF78AFF074600220099039896
:1018600000F026F801223946039800F021F8012102
:101870002046FFF77BFF0028EFD107202056A84223
:10188000E1DB0398217B80308170019805B0F0BDC9
:10189000277A5B1CC91B491CC9B2DBB2521B03E08F
:1018A0005B19277ADBB2D21B521CD2B2401CC0E7B4
:1018B000F7B588B0089C0D465434A779E0790590B7
:1018C000089880300690207AC01BC6B20196B542B7
:1018D00000D201952079617904910599A37B4AB2E0
:1018E00079B203920091FFF700FE0290A37B039A66
:1018F00000990498FFF708FE02460A98002801D0D4
:10190000217B03E0E07A002809D1617B0698817091
:10191000A07B0090019B02990898FFF76EFCB542EE
:1019200007D3A81BC5B205980027401CC0B205907C
:10193000C9E77819A0710598E0710BB0F0BD70B5DA
:101940000D460146C06C40311730FF2D0FD8612D78
:1019500001D3098F02E0412D01D3C98E08184178C7
:1019600000291FD00278AA42F8D1801C70BD498F8F
:101970000C1826460021304600F016F80419022102
:10198000304600F011F8361DA842F3D3207801024A
:101990006078084306D0A84201D1E01C70BDA07851
:1019A0000419F3E7002070BD40180178407809025F
:1019B000401880B2704770B50546044641655434FE
:1019C0000020A0722E466036317A2046FFF7CEFE08
:1019D0002072717A2046FFF7C9FE60728035A878C0
:1019E0002073002802D00020607370BD0120FBE747
:1019F0008A4205D2834201D89A4203D90120704716
:101A00008342F9D800207047F0B58E465607760F0E
:101A10000121B140CFB2014680318C460025897842
:101A20002C46012901D83D4600D03C46D708026823
:101A3000FF00127C7A43476BB918059A7144002A5B
:101A400009D10878284360400870491C5B1E1B06BA
:101A50001B0EF6D1F0BD0A78761C2A436240760749
:101A60005B1E760F0A70DBB2002E06D06A06150EDA
:101A70006206140E002BEED1F0BD3A22125C511812
:101A800062469278012A02D80125012AF2D0012467
:101A9000F0E700000821017000487047280000208E
:101AA00070B5054608782870487868708878A870FE
:101AB000C878E870087928714879687188790C4687
:101AC000A871E079E871207A2872607A6872A07A49
:101AD000A872E07AE872207B2873607B6873A07B31
:101AE000A873E07BE873207C287411212046FFF75F
:101AF0005BFF688213212046FFF756FFA88215215D
:101B00002046FFF751FFE88270BDFEB50546002470
:101B10002030017E0291467E2868407C0190296831
:101B200027460B7C696B5F43FF043F0CC91900918A
:101B300028463246002100F044F8641C761C0298C6
:101B4000E4B2F6B2844202D201988642E7D3FEBDE7
:101B5000F0B5014620310B7E0468DA00CA76227C9B
:101B6000202A00D31F22D2008A764D7EEA06120E6A
:101B70000A77667CEF18B74201D9731BDBB2DB0032
:101B80004A77D2188A77F022CA77A28AF02A00D838
:101B9000CA77A17D40300170F0BD10B5FFF7D8FFC6
:101BA00010BD014610B5403100230A464B70203964
:101BB000CB7F93704B7FD370897F1171FFF7B3FC9C
:101BC00010BD7CB56C46069D6171A27123710095B4
:101BD000012284686B460F21A0477CBD30B4846825
:101BE0000023A44630BC1A460A21604730B48468FA
:101BF0000023A44630BC1A461021604730B48468E4
:101C00000023A4460A4630BC0B216047F8B51546B0
:101C10000E460446069F00F009F86761A660E5607D
:101C20002046236100F014F8F8BD000007498160E8
:101C3000C160002201610260416101462031CA7029
:101C40008A718261FF200871087270473120000894
:101C500030B484680023A44630BC1A46092160478A
:101C6000080001D00A2800D100487047FFFF00009B
:101C700030B404690023A44630BC1A4619216047D9
:101C800013B50122046901AB1721A0471CBD30B474
:101C900004690023A44630BC1A4618216047F8B5F1
:101CA0000546203517460446182924D004DC14299B
:101CB00014D0172904D105E019293BD0202949D097
:101CC0000020F8BD1E4606E031782046FFF791F966
:101CD0007F1EFFB2761C002FF6D13BE001224C2183
:101CE00000F0D2F901224D21204600F0CDF9204626
:101CF000FFF77DF82EE06879002808D02046FFF72E
:101D0000A3F82046FFF773F82046FFF793F8204624
:101D1000FFF79AF82046FFF75EF82046FFF767F8CE
:101D20002046FFF752F80121697129792046FFF713
:101D300060F90FE0FFF74FF82046FFF758F820460C
:101D4000FFF778F82046FFF77FF82046FFF74FF8B7
:101D5000002068710120F8BD30B4C4680023A44697
:101D600030BC1A461921604730B4C4680023A44629
:101D70000A4630BC1621604730B4C4680023A4462C
:101D80000A4630BC1521604730B4C4681346A446E7
:101D90000A4630BC17216047F8B50C460546217845
:101DA000641C182924D00EDC152919D0162917D047
:101DB000172923D12078694608706A4601212846F0
:101DC000FFF7E2FF0AE0192912D0FE2916D1227886
:101DD000684602702921284600F056F9641CDEE7A7
:101DE000227868460270EE6800232846B047F5E77F
:101DF0000023EE681A462846B047D0E7F8BD30B455
:101E0000C4680023A44630BC1A461821604700006D
:101E1000FFB514460A462B4F0546143A81B00026FA
:101E200038781300FEF7E4FE063404171C42454BD5
:101E3000002802D02846FFF71BFF2846FFF727FFA0
:101E400000212846FFF71CFF21462846FFF718FF10
:101E5000012038702BE021462846FFF711FF26E0CD
:101E6000002802D02846FFF703FF049F06E0182150
:101E7000284600F00FF9183CE4B21837182C3A46FF
:101E8000F5D82146284600F005F90E4806700EE008
:101E9000284620300279FF2A01D1782202712E696A
:101EA00022462846049BB04705B0F0BD3E70012095
:101EB000FAE70028FAD02846FFF7DAFEF6E7002016
:101EC000F2E700001000002070B5002345690446C9
:101ED0001A462821A8470023E5681A4614212046FF
:101EE000A84701224B21204600F0CEF82068292186
:101EF0000279204600F0C8F800224B21204600F06D
:101F0000C3F8206829210279204600F0BDF801229B
:101F10004B21204600F0B8F820682921427920465C
:101F200000F0B2F870BD0160897C2030817070478C
:101F300070B50C46054600F019F8002811D1092C9F
:101F40000AD00A2C00D070BD2846FFF7BDFF064915
:101F50002846FFF721FF04E003492846CC31FFF76C
:101F6000E2FF012070BD00006CBC0008F8B51F4600
:101F7000144605460B2909D02E4620360D290ED0D1
:101F80000E291DD00F2926D00020F8BD002A03D02D
:101F90002649FFF701FF47E02449491FF9E7002AD6
:101FA00007D022490C31FFF7F7FE2868C07CB070DB
:101FB0003AE01E49491DFFF7EFFE2868807CF6E7EE
:101FC000FFF71DFF81212846FFF7D6FE2146284650
:101FD000FFF7CAFE25E0FFF712FF7879B178C0005D
:101FE0000818C6B240212846FFF7C6FE3109284628
:101FF0001031FFF7C1FE3107090F2846FFF7B4FE85
:10200000B979B02001432846FFF7AEFE38793A6827
:10201000C006010E2846FFF7B7FE641E2406240EF4
:10202000F4D12846FFF798FE0120F8BD59BC0008FE
:102030000020704710B510462B291CD004DC28293D
:1020400009D0292905D118E00E4B4C290BD04D2978
:1020500004D0002010BDFEF705FD10E0002A00D0DE
:102060000122022103E0002A00D0012204211846A7
:10207000FEF739F903E000BF01E0FEF76FF8012039
:1020800010BD0000000C005030B444690023A44689
:1020900030BC6047F8B515460E460446FFF7F7FD1D
:1020A00040212046FFF7ECFD27692B4632461721D9
:1020B0002046B8472046FFF7DBFDF8BD0021203061
:1020C0008171704710B50246002915D00A2913D036
:1020D0001046203083791D4C002B10D05B1EDBB2E4
:1020E0008371108C89068005000C890E08431084CA
:1020F000002B00D0204610BD1448401C10BDFC2908
:1021000004D305238371C807C00F1AE0F82904D34C
:10211000042383718807800F13E0F02904D303237D
:1021200083714807400F0CE0E02904D30223837138
:102130000807000F05E0C02905D301238371C806F5
:10214000C00E1084D6E7084610BD0000FEFF000058
:102150000800083F082008103F0824042404A47F36
:1021600024041204140408041404220421050002A7
:102170000000000000000000002F00000000070029
:10218000070000147F147F1400242A7F2A120062A3
:10219000640813230036495522500000050300004F
:1021A00000001C224100000041221C000014083ED7
:1021B00008140008083E0808000000A0600000089D
:1021C00008080808000060600000002010080402F1
:1021D000003E5149453E0000427F400000426151AF
:1021E0004946002141454B31001814127F10002749
:1021F00045454539003C4A4949300001710905030C
:1022000000364949493600064949291E000036363C
:10221000000000005636000000081422410000149F
:10222000141414140000412214080002015109067C
:1022300000324959513E007C1211127C007F4949FD
:102240004936003E41414122007F4141221C007F2E
:1022500049494941007F09090901003E4149497A3C
:10226000007F0808087F0000417F410000204041B6
:102270003F01007F08142241007F40404040007F22
:10228000020C027F007F0408107F003E4141413E66
:10229000007F09090906003E4151215E007F0919AE
:1022A00029460046494949310001017F0101003FAB
:1022B0004040403F001F2040201F003F4038403F2B
:1022C000006314081463000708700807006151498F
:1022D000454300007F41410000552A552A55000022
:1022E00041417F00000402010204004040404040A0
:1022F000000001020400002054545478007F484438
:10230000443800384444442000384444487F00386E
:102310005454541800087E0901020018A4A4A47C97
:10232000007F080404780000447D40000040808461
:102330007D00007F102844000000417F4000007CA9
:1023400004180478007C08040478003844444438B5
:1023500000FC242424180018242418FC007C080401
:10236000040800485454542000043F444020003CDA
:102370004040207C001C2040201C003C4030403C61
:10238000004428102844001CA0A0A07C00446454F1
:102390004C44141414141414000000000000000035
:1023A0000000000000000000000000F80000000035
:1023B000000000333000000000100C06100C060076
:1023C000000000000000000040C07840C0784000DD
:1023D000043F04043F040400007088FC083000003F
:1023E000001820FF211E0000F008F000E018000097
:1023F00000211C031E211E0000F008887000000050
:102400001E2123241927211010160E0000000000A1
:102410000000000000000000000000E018040200BE
:10242000000000071820400000020418E00000002F
:102430000040201807000000404080F0804040002D
:102440000202010F01020200000000F00000000083
:102450000101011F01010100000000000000000057
:1024600080B07000000000000000000000000000CC
:102470000001010101010101000000000000000055
:1024800000303000000000000000000080601804F0
:10249000006018060100000000E010080810E000CD
:1024A000000F102020100F00001010F80000000096
:1024B0000020203F202000000070080808887000DD
:1024C000003028242221300000300888884830005D
:1024D0000018202020110E000000C02010F800007D
:1024E00000070424243F240000F808888808080016
:1024F0000019212020110E0000E01088881800002B
:10250000000F112020110E0000380808C8380800FC
:102510000000003F0000000000708808088870007C
:10252000001C222121221C0000E010080810E000FD
:102530000000312222110F00000000C0C000000086
:1025400000000030300000000000008000000000AB
:1025500000008060000000000000804020100800A3
:10256000000102040810200040404040404040006C
:102570000404040404040400000810204080000047
:102580000020100804020100007048080808F0004C
:102590000000003036010000C030C828E810E0001C
:1025A0000718272423140B000000C038E0000000A7
:1025B000203C23020227382008F888888870000011
:1025C000203F202020110E00C030080808083800E5
:1025D000071820202010080008F808080810E0005C
:1025E000203F202020100F0008F88888E8081000FD
:1025F000203F20202320180008F88888E8081000D1
:10260000203F200003000000C03008080838000008
:1026100007182020221E020008F808000008F80809
:10262000203F210101213F20000808F80808000090
:102630000020203F2020000000000808F8080800C3
:10264000C08080807F00000008F888C0281808003B
:10265000203F20012638200008F808000000000074
:10266000203F20202020300008F8F800F8F808006B
:10267000203F003F003F200008F830C00008F80865
:10268000203F200007183F00E01008080810E00075
:102690000F10202020100F0008F808080808F0008C
:1026A000203F210101010000E01008080810E000AF
:1026B0000F18242438504F0008F888888888700044
:1026C000203F2000030C30200070880808083800E4
:1026D0000038202121221C00180808F808081800DA
:1026E0000000203F2000000008F808000008F8085B
:1026F000001F202020201F000878880000C838080C
:10270000000007380E010000F80800F80008F80083
:10271000033C0700073C030008186880806818081D
:1027200020302C03032C30200838C800C83808009B
:102730000000203F2000000010080808C8380800EA
:102740002038262120201800000000FE020202008E
:102750000000007F40404000000C30C0000000003E
:10276000000000010638C00000020202FE00000066
:10277000004040407F00000000000402020204000C
:102780000000000000000000000000000000000049
:102790008080808080808080000202040000000031
:1027A0000000000000000000000080808080000029
:1027B0000019242222223F2008F800808000000017
:1027C000003F112020110E000000008080800000DA
:1027D000000E112020201100000000808088F800E9
:1027E000000E112020103F2000008080808000001B
:1027F000001F222222221300008080F0888888187F
:102800000020203F20200000000080808080800089
:10281000006B94949493600008F80080808000001E
:10282000203F210000203F200080989800000000F9
:102830000020203F20200000000000809898000029
:1028400000C08080807F000008F800008080800049
:10285000203F24022D302000000808F8000000006E
:102860000020203F20200000808080808080800029
:10287000203F20003F20003F8080008080800000BB
:10288000203F210000203F20000080808080000049
:10289000001F202020201F0080800080800000007A
:1028A00080FFA12020110E000000008080808000A9
:1028B000000E112020A0FF8080808000808080009A
:1028C00020203F21200001000000808080808000C7
:1028D0000033242424241900008080E0808000003C
:1028E0000000001F20200000808000000080800089
:1028F000001F202020103F208080800000808080EA
:1029000000010E3008060100808000800080808079
:102910000F300C030C300F0000808000808080009E
:102920000020312E0E3120008080800000808080C9
:1029300080818E7018060100008080808080800079
:102940000021302C2221300000000000807C020297
:1029500000000000003F404000000000FF000000B9
:1029600000000000FF0000000002027C8000000068
:102970000040403F00000000000601010202040484
:102980000000000000000000000000000000000047
:102990000000000000000000000000000000000037
:1029A0000000000000000000010000000200000024
:1029B0000300000004000000060000000700000003
:1029C0000800000009000000E200040205050405FB
:1029D00006101000FE0AFE0BFF01B9037805652002
:1029E0000600A047012108413144E1202122088549
:1029F000284621E3262310462544A527834122D2D9
:102A0000623088F404241447254427345044229229
:102A1000D06C1491540C44190025164725444323C7
:102A2000499424228A542C9590242289128D0226BE
:102A300014472544655392A9088912114D4294C840
:102A400048260127078130466110280D83ED432574
:102A50001149447A13C904290E83E9432113C94457
:102A60007A114944002A0EE76444A7A4A2CD26D1D6
:102A7000A426032B0DE764442756331864623500FF
:102A80002C0982AC43419150002D07242845611048
:102A90002E07422C4461102F0D462544ABA82A94E2
:102AA0000A55A500301446254445134984349384BF
:102AB00022B2112522190900310C45294425234948
:102AC00084FA642032104625446390088952194DD7
:102AD000A82A351833124625446390088952915923
:102AE0004A244A0C1200341246254429A449442A97
:102AF00032894C62304A55003510462544E1205554
:102B00003590A552A2C42001361046254465124ACC
:102B1000A5068A90A3C42001370C462544E1AA28C3
:102B200055946A0238114625446390081925068990
:102B300090A3C42001391046254463900819250646
:102B4000AA469109003A09E26C4461101B043B0B50
:102B500022ED436110532414003C0925294429D354
:102B600055073D09A6A444E11E33183E0A25254415
:102B700021D54D47003F0F4625446390088952A157
:102B8000AA6C2A0240144625446592912414894572
:102B900044115144248BD820410F462544451369E4
:102BA00011120D06224701421046254461A0081962
:102BB0000D162147830500430F46254463900859AD
:102BC00075244A0C1200440F4625446110C9244262
:102BD0007E93184400450E462544E120553550A407
:102BE0005A0D06460D462544E120553550A4BA023B
:102BF000471046254463900859950C42368A450093
:102C0000480C46254421E46830107914490C4529C4
:102C100044612009F59381004A0F47254465208AC5
:102C2000F52413C96436004B1346254421A44944B6
:102C30002A3222512213A94984024C0A46254421F2
:102C4000D55F0D064D0E46254421249A0C220B8F8C
:102C50001C054E1246254421B4D928228A882421F5
:102C600049688E024F0D462544639008F9A3C4209D
:102C700001500E46254461A008190D16A9AE005159
:102C80001967E543631009254289502294082542BB
:102C900089842221910C7202521246254461A008B7
:102CA000190D16919A4426111205530F46254463B7
:102CB000900899391225060900540B472544E12054
:102CC00013EB6F00550C46254421E41F250609002F
:102CD0005613472544216595C84432914C452891A7
:102CE0008A6500570E46254421E4858BC92032129F
:102CF00005581146254421244A44DA883491162186
:102D00005100591047254421A54A6422998A54ACA0
:102D10001B005A0C462544E1AAA857A9C1005B0A2A
:102D200083F1436110E99F0C5C0D4625442115ABEE
:102D30008AA56255015D0A83E54361D23F19045EAD
:102D40000A66644645134984025F0727E443E1208D
:102D5000600763A8462153610F062544639008A5C8
:102D60001283918D6211620F66254421D562A111F3
:102D700039DA281600630E062544639008A93A4AFA
:102D80000C1200640D662544ABC54233F246B1080F
:102D9000651006254463900889060355516290002A
:102DA000660D65254447122A1948423D016715669C
:102DB000A5432BB1D02432894C64931A2442A2C477
:102DC0002001680C66254421D562A111F928690B00
:102DD000652944251414F5C9406A0CA5A543A950DA
:102DE000D4479288046B1266254421D52611A9C8C0
:102DF000881299484D22146C0A65294443D43F191E
:102E0000086D1407254461A1884424114944129196
:102E100044241149016E0B06254421B1D0887C144D
:102E20006F0D062544639008F928314800700F465D
:102E3000A54321B1D0881C6D148B540A710D46A591
:102E40004363A11979A358A40A720C06254421B141
:102E5000D088545D01730E062544639008C91C2573
:102E6000060900740C4525442554329084BA127525
:102E70000B06254421E4378A4500760D06254421BA
:102E8000649488F446240177130725442125894852
:102E9000229288242289482A2C0078100625442171
:102EA000244A4432224D24111205790F46A54321AC
:102EB000E451226291AA1824007A0B062544E12AE3
:102EC000D4ABC1007B0FA4A94345910965224535C8
:102ED000914C487C08C1B143E103017D10A4A94392
:102EE00041948964422535A14C42027E0B672446F9
:102EF0004323896814007F2610A28321D1EF117A21
:102F0000023D623248642689502A92182432934442
:102F100028351924067B023D811ED11F802610A270
:102F20008321D1EF117A023D6223594C129144243E
:102F30007290880C429144A4289258E809F4047ACB
:102F4000447F0000002051450E1F53F20E935BCCCE
:102F50000F0C62530F556839111A76AE1067811A3B
:102F60001114FFFF201308262445E1004E00082F0E
:102F7000A085E1074E010FEDA583E18358B8FF69F5
:102F8000229B034E0314EEE1832DDD9B416A201A40
:102F900028D29DF56E30084E071DCFA183E157F171
:102FA000F2C120980AA672B15CAC2E964B0543B1D3
:102FB000442898024E09118F218463F020CFCDE080
:102FC00040CF93C1074E0A10EFE1832DDEF3C120FD
:102FD00018EFC3C1074E0B15EFA183E167F14EB2A5
:102FE000996828990AA682F10E014E0D1FEEA18361
:102FF00063F020980EA7C38A6422928B6452995082
:1030000026944AA452B27433004E0E1A0EA283279D
:103010005D3D38D084D3E9C181BAC5E020922E4D00
:103020008433004E131C0FA2832F5E393810C683E1
:1030300083AFD2F1C1409E4E4AC27A401E10024E6A
:103040001420CFE1836770968BE562B9D8E02C1726
:10305000CBC572B1C1592E968BE562B9CCE0034E57
:103060001628EFE1832D938B6472914C2E92C94503
:1030700032A1C137914C2E92C94532B94826171951
:10308000E8E2E5830305004E1A27EFE1832B13CD19
:103090004433D14C2CD349A64926924A6422A944F0
:1030A00026114B64949968269A896652830F4E1CA8
:1030B0001F0DA6832B5C377810CA4682995C28378F
:1030C00038D0252355994615A9A24436074E242900
:1030D000EFA183E1579968269A890D1E44324D323B
:1030E0004D324D2A9AB428494412998A482816C963
:1030F0004692894834024E251BEFA18363F02017C6
:1031000009469A252289642437781089F73A9E8ED9
:10311000034E2A160FA2832F9E4E6433C954AE2A43
:1031200054A24AE9E2FD0E4E2D190BAA832BDA6A4E
:10313000F028240A8942A29028347810AA8AB6027C
:103140004E3A240DA283AF28980966C2B1C1B35488
:103150002C154B645299482A1309E532C148329123
:103160004B5446004E3B16EFE1832D0FC803070F6B
:1031700082F196830365BCBBC1074E3E210FA2833B
:103180002593AA09A532D5A1C147A95CA62A542234
:10319000190C22BA7870F020186F074E451D0FA247
:1031A000832B5E3E18A682A95C2A176B9E4E642371
:1031B000D15030961246B4024E481AEDE5832D9C4C
:1031C0000D6733B9502C144BB52D8A150523832771
:1031D000C9004E49210FA2832D0FC8A44299543033
:1031E00056170BA682A168269B48576433C9544CD6
:1031F00027D10A4E4B13EEE5832B9ECEC3068FFBE1
:10320000AD36920C0D0E4E4E1B0FA283373B100DA8
:10321000E6D14C5D24938BD4E606DFC53B4EA483F8
:10322000004E50220DA683333A080D84E14C2E94B3
:103230000BE506CF9291B248269409454229555193
:10324000229B034E5D200FA2832BDE7470900C2511
:1032500043C95030154C0553B958A62C13C96512F3
:10326000C9811C4E5F27EFE1832F1ECD44331159D6
:1032700066114B6C52934C469129CB94651265991B
:10328000482E13CB4433D1D0E0404E611A0DA283B7
:103290002D9C0DC552AD06836C28966A3418689B28
:1032A0002A8553004E661F0EA2832D930C05539959
:1032B000C165269949669299CCE081AC7F93C88517
:1032C0008239004E7021EFA18363F0209ECAD4455D
:1032D0008291CA503294CE0DBE4B27A4A1602C25FA
:1032E0008C6813004E8610ECA583E1D396D26CBF98
:1032F0004C4463004E89250FA283299E1E0C64B99D
:10330000542E95181C2843C95066F040174A86422F
:1033100083036528194EA483004E8B220FA2832FAE
:103320009E1B7C971C1C881A0D0E94C9C1813214F7
:10333000197C170A0D0E94E1443A084E8C0D4F612A
:10334000846570A0E74F061F4E8E13EFA183657052
:10335000A08CB71B7C17EFE3443A084E9119EFA1FC
:10336000836570A0E764F0593A9E0E056385A1C19C
:10337000A3643C024E921BCFE18363F02016AF1E84
:103380000C74B15CAC2E563718C8D3F1D4E0034EA0
:10339000941DCFE18363F020176F3A3808A682A905
:1033A000602A98CAC572B15C2C33F8004E9A26CFB9
:1033B000E18363F020968966A299682696E924D372
:1033C0002413492532915422930866A29968263520
:1033D000F8004E9B28EFE1832B13CDE42299268B36
:1033E000482892594532A1484D289218244203D9C1
:1033F0004091A718DC130D1E24004EA4200FA283B9
:103400002D0F88E706DF6372B1602817691589659B
:10341000B289744554939369A4034EA71A0FA283EB
:103420002D0F080E1EE45195A16426377810897778
:103430001D4FC7014EAC200FA2832D0FC80DBEA794
:10344000199CE562B9582E3638AD29CB845A4532DD
:1034500089542E084EAE260FA2832D0F080E1EE4AF
:1034600051834130151C0CF2A8C103455834D0C417
:1034700032D14C3254A20A0D07024EB2220FA2835F
:103480002D0F480E0EF4B05432931A7C170F0E1EF7
:1034900004B391BA4C55A8A622950B024EBA1A0F46
:1034A000A2832FDEEB443891CD4433C9543095AB21
:1034B0004A66B28974004EBF280FA283295E311874
:1034C0008882A95C4A1653C512A1582494CC44336F
:1034D000D1482E13C96522B94C6630D064014EC064
:1034E000260FA28329154C0553B9582E1693C514DF
:1034F000838344592812CBC572B15C2C17CBC5729B
:10350000B15C2C044EC52D0FA283299E180C54913A
:103510005428930A655219512624CA54843291AA18
:10352000442C9588D5C572A9442C94496552A18430
:103530002E4ECA1C0FA2832F9E4E6433C9542E12E6
:103540004A854A54293D66709E8EA7DB014ECD2BDD
:103550000EA283295D3118846A4225215124244A10
:103560008412A1C44012AA09D55465AA32559948BB
:103570002C13C924428954044ECE2B0FA283291543
:103580004C0553C15430154C0553C1543094882513
:10359000328958A42216496442A94CA82A128A25C5
:1035A00042C1004ED62F0FA283A932944C4482917F
:1035B0000A5524A208491292904411C92406917E0A
:1035C000156915A950458A32915C2692CB64060391
:1035D0004D164EE3290FA2832913C965CA3255A19E
:1035E0006428319028063A512E912A490553C15832
:1035F0002E96A98B6482894C52130D4EE41F0FA2A4
:10360000832F9E4E6433C9442697A90A9568358353
:10361000F37432934DA4F380780C4EE5260DAA8303
:103620003396CA14654299A24C612698C98572A145
:103630005C2892492542898C281309A5EA32C100E9
:103640004EEA2B0FA28329130D4562894855245554
:10365000920A69AA3445894C935022174AE452C110
:10366000543094C865CA22A98A9C004EEC310EA23F
:10367000832912CD243389412612CB446211492C6F
:103680002289254A6292B24C249689C432915826E6
:1036900012CB44629948289189A412004EF62B0F50
:1036A000A28329154C05237599482E331864249953
:1036B0009824934A1495C47289C14126968BE56279
:1036C000B9582E968B85004EF72A0FA283A9329403
:1036D000CC2472A1442E532549851439454D934C71
:1036E00059A62C539629CB944542B1482896486553
:1036F000004EFB270FA28329960B0D6289413015DE
:103700004CE55439552C317810490553C1543015C6
:103710004C0553C1C4E0280B4EFD330FA2832996FC
:10372000CB447299482C94496542214D2A238945FE
:10373000121583852494498532A9502615CAA432CE
:10374000A15426948A6412A9442A034F0121EFE16F
:10375000832F9E4E6433C9544C9391A852BA682665
:103760009A19AC32D14C3413CDE4061F4F17280FF1
:10377000A2832F9E4E6433C954AE2A914A4424A991
:103780008828154C0553B94426118B54A432894C12
:1037900055452A174F18310FA2832913C965CA321C
:1037A00055A164627010112562A2442A114A842234
:1037B000A1442E94C86522B94C24D3245392691293
:1037C0001A641249004F1A210FA2832F9E4E6433B0
:1037D000C9544C27910C06113DC5E0412E5D95ABB7
:1037E0001A1CA88211004F1F2E0FA283A932940C1D
:1037F000051383834C2AA7CA490603492255920A16
:10380000260607995428930A65529144269509A5DE
:1038100082A914004F20290FA283A932940C0523FA
:103820008341AA4E14540C0E1245B148261A190CA5
:1038300052C154A62C94C8A582B15C2C044F242DEF
:103840000FA2832913CD4423D1CC60A089441599BC
:103850009C2A96880C068A482A134A6542FD26153A
:10386000CAA442914C22954865004F34290FA28387
:10387000A93211C9A42289482A93284BE514831B35
:10388000552C912A4905076F52C15430154C0553E8
:10389000C1540A4F3C310FA2832798CA8452A14CCD
:1038A000289289842299484612CB48629144241672
:1038B0008AA44A5225A9924424118A68229948A6CA
:1038C000554928164F462C0FA283295E31188822AD
:1038D000B150249691C43292C1409288C41291B2E0
:1038E0005024168A0C06A2482C14AF181C64B2008F
:1038F0004F4D250FA28329130D2543C1786270A374
:103900001666129154A4554D59A62C539689E4621B
:10391000B9C19B2C004F4E360FA28329174B0D5275
:1039200089812E92C9453231492626C9A41291C1F6
:1039300041A4261709C522A1582414C94452894C10
:103940002491496422928826128A044F4F250FA29F
:103950008329130D25D389C1512AA7CAA962895485
:10396000496270940AA682A9602A980A0EDE640150
:103970004F532A0FA283A932940C0553C1C4E046C9
:103980009513AD12A151249328CB24CA22AD1289DC
:10399000812224AA490553C1540A4F55290FA283F5
:1039A000299E4E0C0E32C150322419443289487F70
:1039B00015691569151944529156C15430154BA417
:1039C0007219004F59250FA2832F9E4E6433C9549C
:1039D000AE2A31182422AA942E39385046336599DC
:1039E00050AB482691CA05014F5C2A0FA283299249
:1039F0008D6423D1CC60A089248292445011C925C2
:103A00004203495132940C254383516528194A8653
:103A100062004F602F0FA2832913CD4433C9CC60BD
:103A2000A0298B48621945289588852299482295B6
:103A300089144532915024D3229429CB8512B9544C
:103A40000A4F7F2B0FA28327154C05074F62B958E9
:103A50004C323891642A4A324D0637B15C26920BBB
:103A60002572A9602891CB645409D9004F9B2C0F73
:103A7000A2832992C94532B9482696298B0C061A89
:103A80004D95A628916992294B0C0E32F14C59267E
:103A9000948AA42A722161024F9D2F0FA2832913B9
:103AA0000D2543C1C4E020130A8A829A442C91490F
:103AB0006412918822924A94C8247599B24C289530
:103AC0004964421955A60E4FBF2D0FA283279E1899
:103AD0001C6452B9C8E026922991644A24838B92CF
:103AE0004C934C93C14D492E94C8A582A1442E936A
:103AF000512564034FDD2C0FA283299E180C628987
:103B00005449AA2415920C0621552C912A490C8E51
:103B100042BB4CA22CD22A912912D5A482A914000E
:103B20004FE1290FA283A932154C0C6EE269CD60DA
:103B3000901127B291CC60108AD70C06A14C2A9420
:103B4000498532834128934A005012380EA28327B8
:103B500099496606834C24134A4432A14442D22236
:103B6000211928128A50261109651291C840511254
:103B7000CA2422A14C2212DA4412B3485522924C94
:103B8000005019340FA283271E190C52C15022175E
:103B90004A0C0E148A485011C9252A0683504293B4
:103BA0004B847289C1812411CA253289582893CA4D
:103BB000A442099D00503C2C0FA283A932941C1CE6
:103BC0008452C1544E32188424A94C223218445ACB
:103BD000950C06A948AA643048455225A9D4E04D61
:103BE000165047370FA283279E182406A144249419
:103BF000891465224511C920318848928948363296
:103C0000480C32915024130945329141A228922A3E
:103C1000092542914C93AA00504F2F0EA2832714DE
:103C20004CE5128393BA485D4232B8900413916810
:103C3000647012519454745291180C24894E2A3A8B
:103C400089481225352901505A3A0FA28327128A32
:103C50004542B148289518286299CC40A189642230
:103C60009A9244C54011C9243289482691491425A5
:103C70003289A24426924A0C144589542214CB540A
:103C800015505C2D0FA28327944C0513839B7866F7
:103C900030C8685219CD601049C4138303492219F2
:103CA000C90C06A1582E968BE542895C2A0650A8BD
:103CB000360FA28327968BE5340345A42892898486
:103CC0001219D160A0D08512834C2E12196C228952
:103CD0009A1249A62433D044123525924C4966A045
:103CE0008965120050CF350FA28329928D0C7489FB
:103CF000502C313852642219494D4632184812A1CD
:103D0000582493C884128A5699882C2151A4428938
:103D1000AA4CA428A1A8A94A01513F240FA283A913
:103D200032940C2543C95032940C2543C950329427
:103D30000C0553A14C2A14898512C1C11C51432082
:103D4000EFA1836570A06732F82A13CD4433D14CBC
:103D500032940CD5A442915828111CCC015145260F
:103D60000FA2832D0FC80DBE8AA753B9AAC1812EF9
:103D700013C965A299682619CAA44299502A13D179
:103D80000D120051462B0EA6832993CCA4324D6A06
:103D900022A14426914A6492199D26914A6422994F
:103DA00048A6225318AA0995A44289DC600D5148FF
:103DB000230FA2832F9A8966A2838350612A9E1BB8
:103DC0007C958966A299642819AA498522B9C120DF
:103DD0000D5149240FA2832F19AACA8462914C2E37
:103DE000529B1B7C958966A299682619EA4D2A1474
:103DF000C90D066900514B230FA2832F9E1B7C1710
:103E00004F0E0E44C95032940C0D0E749968261949
:103E10000AA6429158683810515A240FA2832F9A4B
:103E2000A98B647291AAC10345581C1A9CE562B91A
:103E3000D8E03013CD244325AAD0702051651E0F41
:103E4000A2832B0FC803E2D58970229CC866A29971
:103E5000642A98CA550543D1485851681FEFE18339
:103E60002F9E4E6433C954AE2A31182422AA942EB0
:103E70001E1D9CC60B070F1200516B20EEA583314F
:103E80009949669299642699498672A95C2A174BCA
:103E9000E552C14C32134D8403516C21EFE1833163
:103EA0001BC946A2A16428182B0C55455231553C1C
:103EB000934CE562B1C1412C9701516D1CEFE18338
:103EC0002D0FC803E279D8E07BAA4C34148CE5AA04
:103ED00082A168249B00517018EFE1832757160CCC
:103EE000253379D8E0419ECDE040CFC9E003517140
:103EF000230EA683A930140C0543A9C1AB5030147E
:103F00000C0543C15068F0408F09E562A960269A0C
:103F10000051731E0FA2832757964BE561830365FB
:103F2000BC6EF05D3A114E6433C9544C27D10A512E
:103F300074210FA2832B164C855A65EA62B9543A54
:103F400035F81E95898682B15C5530148D64130056
:103F50005175200FA283353C880DA4F1F8E020159F
:103F60004A8692A1642836F81E54182B0C4523006B
:103F70005176240FA28329154CA5060F5285A9E07E
:103F800060104C0553C1C120980AA64283EF41A995
:103F90005C553202517722EFA1836770968BE56200
:103FA00083B35C6C70968B0DCE72B15C66F0552657
:103FB00099CA552523005185220DA6832D5C36789C
:103FC000A04AA952AA9428111245329A5044124B81
:103FD000287209AD65429A00518C2AEFA1836710BF
:103FE00019A422AD22AD22AD22AD224D06DF445AE6
:103FF000455A455A455A455A4512995044D1269535
:10400000C900518D1FEFA183E177F1E4E040D4476F
:104010008303519F0C3E498692A16428970805337B
:104020000051991EEFA18363F04011962443F1C122
:10403000412A1D1F1CC84B060791786D221D025195
:104040009B1EEFA18363F0401156C572D1C1812E32
:104050001D8966928303653C37F82E5E07519C27C5
:104060000FA2832F5E38781009C512A9BA443811FF
:104070008A6522314D229608C522A95026964BA466
:10408000623A511451B2200EA28333958B7539B820
:10409000CAB4C8B4C894D46406914C4964705253ED
:1040A00012EB750851B3290FA28331170BA6829129
:1040B000C1409A896652A14C2A940925060F54C121
:1040C0005022174AE432659154452E951451B52D6E
:1040D000EFA1832333188822B15024968BE562A97F
:1040E000C460A0CA4462A1486814898522B14C59B1
:1040F000A649512692880D32590051B7250FA28347
:104100003396AB4AC452896C2619A94A84229A581C
:10411000CD6010598682A950265511AB2B0F015145
:10412000C62C0FA2832F114B4562A1482C3338CBEC
:10413000E4129A9C6230104532B14C596630506C92
:10414000CA326599B2CCE024130F0251E024EFA1EA
:1041500083693008A682A9602A980AA682A9602AE3
:1041600098CAC572B14C249789E43289E4400E5153
:10417000FA210DA6832D9C0B95844A4225A192C15C
:10418000812E940BC75229554A9552A5060FC4019A
:1041900051FB180FA2832F5E393850C6EB06DFC5DE
:1041A00093A1FE47830379045206240FA283339A16
:1041B000898682A95C5532934D4406034D2A940C9E
:1041C0002543C15430958B15256265005207290E91
:1041D000A283275D3318645299AA4C6610C90C5407
:1041E00099AA4C55A6A4A62253A309654275A958BD
:1041F00026114B4500520A2E0EA2833B3118A442D1
:10420000C1502A124A4542A9482815191C2422A146
:104210005424948A845291502A120A8682A15822E8
:10422000944B0052172C0EA2833B3118880A43A9E5
:10423000486620A92969146914A928C94434894CFD
:1042400024158AA442915030938C0413A50900527E
:10425000182F0EA28327190A868283834424968905
:10426000244299484D4926118A6412A1482815090B
:10427000A522994428D22E118AA942897002521986
:104280002D0EA2833B3118A412A98A54A422D24530
:10429000A48B4817912E225D44BA88749308453246
:1042A000915824944AC422095D2601521A2F0DA662
:1042B00083793050A952AA4864928844144D228AC6
:1042C000261149134913459388A24964928844549E
:1042D00029554A93C82444A90400521B2E0EA283D8
:1042E00029180A6612B94C2413298A54C41211C51C
:1042F0004013A929A929A929A9A889348A54852262
:10430000A950663049841300521D2A0EA283259EAF
:10431000870C1E648A6AAA325599882253911065C7
:1043200024894C8B4CA39A504D552692498412A94E
:1043300008005220400FA2833D31480C4289482298
:10434000124A4412918A9244A4A22411A9284944F1
:104350002A062F9A2422152589484549225251922E
:104360008854942422A14442110989122589502697
:10437000940052242F0EA2832B97C8444291469159
:104380008A48552892180C14915428920A4552A133
:10439000C8E0492A1409A522A160261909264A1352
:1043A0000052292F0EA2832F951A8412035D2A141E
:1043B000498522A950647090888444914C4213C965
:1043C000244A7A116914496472A25CAA22154B002E
:1043D000522B2F0EA2833B3118A412A98A54A42277
:1043E00015A9180C2235B1482616199CD494D494DA
:1043F000D494344A4542A94424114A88620900529F
:10440000302F0EA2837B70102ACCC422352589540C
:10441000243238484442994424948A845291C46096
:1044200010294A4542C1D0403498254A13005236DB
:10443000300EA2832B17A98BD445068344249109FF
:104440004552A1C8E0492A1449852291C12011E9A9
:1044500022D245A444118A54A45AA46209005237B6
:10446000380FA2833D32188822B15024168A0C06D8
:104470008A484D2852138AD4842291C1401149940C
:1044800054441225159144494544125184329144B3
:104490002A964AC42A00523B2D0EA28327190AA647
:1044A000070789482815C994348A540C3691542832
:1044B000128AB48964228D22135D26128B8432897C
:1044C000592601524D2E0FA2832757964B8506DFA2
:1044D0004306AA5026529489140D24459948512622
:1044E000523490146552A14C2A94A8498422A90CF4
:1044F00000526A280FA28329151A7C0F19A8429925
:1045000048D140529489140D244599542822D263ED
:1045100006EF6275A98A902E04529B1A0CA6832B73
:10452000DB6CF0AA3F8A8562995C2617096512B197
:10453000446104529E230EA6832BDD7070200C056F
:1045400043A948481409252255114D2A9289B5CA14
:10455000855289502E05529F280EA283335D341850
:10456000447299C12093CA5465AA325599A29A50AF
:10457000CD20111A685289545926114B450052A07A
:10458000270EA28327DD6AF024535253525352530D
:104590005253525352535213C94432914C64A0881F
:1045A000242219511052A1220FA2832B9E1E0C64AB
:1045B000AA5824A235D1493246A9CDE032144C057F
:1045C00053B9585122560552A82F0EA283339D1A73
:1045D00068D2D9C12099190C2499482C13896522D5
:1045E000A950229209253291D060904825328954F1
:1045F0002C9388A5220052A9320EA283353410D5FF
:10460000846A423591C162208A2432A14822138AE9
:104610002406A24822138A2432A14822D32232C976
:104620000C447591442E140152B3250FA283291511
:104630004C85061FA5F2A8C1034528A78A65060771
:10464000C95032144C0553B9585122560552BF2B4C
:104650000EA68327140CA5068AC12A1449692221B3
:10466000C924A2084512998ADE842411592A38786F
:1046700056950BA512195D08530524EEE183291DFB
:104680001E5CE542C14C62306914498522A9502460
:104690003598A42A52B1CA4C3234380853162C0F1C
:1046A000A2832913CD4433A136A95024254AC444FA
:1046B000B2442816C92823896422920CA532A15439
:1046C0002694CAA4069B2C0053172B0FA2832B13EE
:1046D000CD4433D14C592692196812C18C3213CD76
:1046E0004433D14C3413CA6C4283482694C88406A0
:1046F000AA2400533A23CEE583E183443A99A9CA18
:104700008432A1542215AB4AA4429950269589C4FB
:1047100032E9F4E08100533B25CEE583E183442672
:1047200099494606278950ACC5E04011AB4AA442DE
:104730009950269549E822E9C1030153410E0FA281
:10474000832FDEBBC177F1FE0E5343120FA28337D6
:104750003B100DE6DD0DBE8BF73B005347250FA246
:10476000832F921C2462835032940C2543C95068D5
:10477000F05528194A8682A9602A17AB4B054300D9
:10478000534A1B0FA2832F19AACA8462914C2E523E
:104790009B1C1C28E37583EFE2DD01534E200FA222
:1047A000832913CD54852229D12A919145128A500B
:1047B000AF06A24C3C37F82EDE1D0053551D0FA24C
:1047C00083275795CCE40607A23E1A1C88FA687026
:1047D000A08CE706DFC5EB005356230FA2832F9E64
:1047E0001C1C28E3C1C18358AE22938A24A2996875
:1047F0002437F82C120DE5642165045357280FA2C5
:10480000832F9E1B7C170F0E1E44AA22354D228338
:1048100041A4AA245592185C445225A99254261109
:10482000894600535A2D0FA283259648C522A1C45C
:10483000E04012CB450617834D93C14D24D36470DD
:1048400013C9B40C250607924C2AD4934428980126
:1048500053601E0DAA832B5C3C18A8C2ED0607927C
:10486000642419494692916464702049460053615A
:104870001A0FA2832D1E1F0C82F1C2C167F1926C28
:10488000261A4AA682F14200537023EDA5834937C8
:10489000C80C06B1902C240B0D0689902C240BC952
:1048A00042B29064D162144986AB0053732AEDA5DD
:1048B00083E164308A644491CC6010C98822195124
:1048C0002433184432BA8C2494D154242489484582
:1048D00049912C5C045374280EA283295D34500C3A
:1048E00006894CA8265413AA191C68AA325599485F
:1048F0004D452892480C2E22558974110053862A62
:10490000EFA18365F020124F0553C154303138C8F0
:10491000A442995428134A6542A94C59A62C92C91D
:1049200045AA1291BA0C00538B25EFA18365F020A4
:10493000124F0553C15430154C0C0E32A9602A9801
:104940008AA46A42A94C592E31781007539A2DEF48
:10495000A18365F020128F0C06A2482C14190C4478
:10496000915828321888E291C140144CE56289C1FF
:104970008122174B2552B91800539F2BEFA1836555
:10498000F020920A869291C120154995A44A068387
:10499000542455922A190C52859146914C8B4822E9
:1049A0009488E50053BB180FA2832F5E393850C698
:1049B000DB0D3E8BA7AB72558303790453C2220FE4
:1049C000A2832D9D49A67283CBE4E041AA2E14490F
:1049D0006544119B8C4E2B8AA9C2D2E1200A53C890
:1049E0001FEFA183657010CBC572B1C2543095CC56
:1049F0004433D944BA229B49A6623A895653CA27FE
:104A0000EFA1836570980AA682A164282919C812AB
:104A1000A95822158B646299B2502256974AA44233
:104A20001A49462753CB210FA2832D5E38F82A9EC0
:104A30001E0C7489502C128A6522B15022D645541E
:104A4000939369A40253CC2CCFA183E162308845B3
:104A500042914C2414C944429944A62891A9AA8899
:104A6000A512A9442A9648D5548432914C2496CA5A
:104A70001553CD260FA283373B100D96F1F8E04079
:104A800014898522A99A502A53164AE452B954220D
:104A900016CA84322A915253D1230EA6832D99A986
:104AA000CA8432958367E1F460A04AA44A4235552E
:104AB000A1442A968A25921AD14E53D62CEFA1836F
:104AC000E1612631D89464320349A649A6492633C8
:104AD0009064BA08652A429141A264A00875994978
:104AE0000423995C221553D7260FA283393BD00C9F
:104AF0000699542614CB444283078AB0383338C809
:104B0000A592996C221D5608559AE50053D8240F9A
:104B1000A2832D0FC80DBECA041399442A9289643A
:104B2000BAC70C0E72A964269B4887154295663950
:104B300053E30DABE983E14BFFE5E0413253E41C65
:104B40000FA2832FDE6EF05DBC7470968BE562B9A8
:104B5000582E968B0DCE72190053E620ECA5836576
:104B60007093CBE432B9CCE02C1B1BBC2A8A856243
:104B7000995C249888250A230053EA1FEDA58365D4
:104B800070940BE542B9502E940BE54283A35C1E52
:104B9000938A150523516D0053EB250DA683393CEF
:104BA00098843491902612D244429A484813096955
:104BB00022994D24A1184C349A4828DC0153EF1F48
:104BC000EEA583E103693A35D0A4325599AA4C5534
:104BD000A62A5335D0A432D5B589700853F01F0DDD
:104BE000A6832B9CADAACB2413830789681EF028CB
:104BF00017CA8572A15C6870948B0053F21B0FA2D8
:104C0000832F5E393810F58F0607A296D14C3612E5
:104C1000562794A2CD7253F6260EA683331D1AA4EE
:104C200042915428920A4552A14862701049852247
:104C3000A95024151AA4429154BA230053F71BEF2C
:104C4000A1836770968BE562B9D8E01E33F8281D02
:104C50001F9CB74DA4530053F825ECA5836370A0A7
:104C6000CD0E0E14D992C12612CA44429948281377
:104C7000096522834D24944926A20900540327EE96
:104C8000E5832F1D1B447291C8E024118C282391C9
:104C9000C1A42E5296898444834C2C529C4BE562CD
:104CA0008381005404250FA2832B9E1E0C82A95CD5
:104CB0002293CB2472A9B042A8D22C3783B35C2CA8
:104CC00017CBC50667B90C005408220FA2832F9E8C
:104CD0004E6433C9544C27910C06113DCDE02C177E
:104CE000CBC572B15C6C7096CB00540C22ECA983DE
:104CF000E183A8C560A0909A0C26925044128A487D
:104D00004211C960220945A4C2843201540D230D09
:104D1000A2832D9C1D0C52B1502294D14492896CD7
:104D200054397890C88572A15C28171A1CE5025482
:104D30000E230FA283373B500DA4F1F8E04DBCC504
:104D400060A04AC44291582812CB94454283812ED8
:104D5000160154111F0DA6832B5B3978A0B5196875
:104D600034359A1A4D8DA64633D0686AB4CA843455
:104D700001541724EDA5836B3019C4226591369137
:104D80003691369192C14012940407424962B008AC
:104D90005726B21100542623EFA18363F020994EC9
:104DA0008B1309612423D2A412AA581E3338CBC511
:104DB00072B15C6C7096CB00542729CEE5836B30C2
:104DC000880C12912E225D44BA887411E9623088F1
:104DD00054A42215C141221849E452B9542E361860
:104DE00008542C280EA68337BC184406A1485DA49D
:104DF0002E5217890C4E6A4A6A4A6A328348A6A420
:104E00002699098682A15C2A03544A200FA2832F87
:104E10009A8966A2838350612A9E1B7C4F3338CBCC
:104E2000C572B15C6C7096CB00545823EDA58365B8
:104E300070940BE542837BC4E040928C844A422507
:104E4000A192504926214985EC12D200546236EED7
:104E5000A5836B30500C12B14424114B4412B14461
:104E6000243118282289602411494512914C22923C
:104E700088940C12914D241149664235A14C6A2048
:104E8000C90254682AEDA1836570200995844A12ED
:104E9000834122122A09950C0E24C9486420691303
:104EA000691329194812D14430214D0054732C0E36
:104EB000A683319D1A845291C460A0888452915077
:104EC0002A124A45064F32A34845CD2092A889248C
:104ED000226599A286E91400547D2B0FA2832F9E90
:104EE0004E6433C9544C315048B47AC840311065CF
:104EF000129950269109651299D040D1289388645F
:104F0000E33100548C2A0EA2832B3C1CA443035192
:104F1000CDE02213AAC98832994D49A2241349949D
:104F20006412915046131A886A42E9240054C12140
:104F3000EDA5836570940BE542B9502E34B8470F48
:104F400034834D8DA64653A3A9196C069B0654CDF8
:104F5000330DA683311C1A645291C4E024119324AA
:104F6000629244629090244A1292444942922849A3
:104F70000C14250949223148A462A9582A9448559D
:104F80000054E527EFA18363F0201C1B4C62A1486D
:104F90002C14890D2679CCE0DBD860120B4562A178
:104FA000486C300927D2210054EA37EEA58367B058
:104FB000180C22151145A422A28854743150745241
:104FC0002149442A3AA988280683446410A98828DC
:104FD00022158A5424519549E412CD32910C005582
:104FE0002E2A0EA2832912CD24070799506E702015
:104FF00049845291C141A87070A0870C0E42C150E3
:1050000030140C0D0E42C1040055462A0DA6832B08
:105010001D1B3CC8A47299D4E040928CD4442A52FF
:10502000898862A090D444DA444A0692CA482E1174
:10503000094600559C260FA2832F3878104C0E0E7F
:10504000F4A0C18128191A1CC852A1C1F790C181CE
:1050500028194A860607A2640456682CEFA18365C6
:105060002019684A324D32998164208C643399C189
:105070006789A846A693682503C94053926992C9D7
:105080000C2403050056DB1DADE583E1034D8DA621
:105090004653A3A9D1D4484219496AA0484EB583C2
:1050A0006F0356DE21CCE983E183A8C9602209455C
:1050B00024A1882414918422925044329848A583D4
:1050C00007D20056E023EDA583E103AD2AA54AA946
:1050D000528AC1852A254A8444918C261491C4128F
:1050E0008A5C423BF83656E224EDA583E103AD2C01
:1050F000240B290617B2904A244A84349190241331
:10510000528442A24448951A7C1B56ED25EDA58396
:10511000E103AD643088682D06179A484813096981
:10512000222149269290642209456AA11D7C1B56C2
:10513000F427EDA583E103554A95520C2E5429C955
:10514000601051A514830B5526A1CA2454890A5511
:1051500024A24A0DBE0D56FD21EDA583E103ADC588
:10516000E0429552A52483414495522532AA4844F1
:1051700031B8D06A07DF0656FE24EDA583E103515E
:105180004C14D30C26361945241152A5340ACD40AF
:105190003510A964218D4C251A7C1B57062AEDA5D4
:1051A00083E103AD643088485211C96010D12A06EA
:1051B000178A5C4291A950642A14914424A1A991B0
:1051C000A422836F035728220FA2832D9E4E0E3EEA
:1051D0008A8782A99C2A96480C2E22A9602A980ABE
:1051E000A682A9E0E04D16573033EFE18327968B76
:1051F000E562B94C249789241483454411CA2424B8
:10520000A1C82212CA448A321145281349A4169112
:10521000CC2014C92452B1E06010573A2C0EA2835E
:10522000259D198C72A958556A20096606034928DC
:10523000D228D228D2A624B2886406914C452413E1
:10524000CA4512B95004573E310FA283279E180C4D
:105250005499502A5396A9192C22B94C6410CAA407
:105260004299542892C8A406894C6413498432A1F7
:10527000642691CB14AA0457402CEFE18327968B28
:10528000E562B94C24978984068B482E1319843221
:10529000915C2692CB447299486E11098D22A99295
:1052A000E4E0205747280EA28327954BE542C1D062
:1052B00060533518C832A19A54A62A5397C8C422FD
:1052C000994D66101225B2D1443802575022EFE1B1
:1052D000832F9A29CB9465CA3255894845289288EC
:1052E000B449D42462F1E4E04019AF1B7C57572B3A
:1052F0000FA28327154C0553C1C860204A6512834D
:105300004D512A134A654291C14D2A184AE4268913
:10531000D02813AACA552503575B22EFE183275EE5
:10532000331884E2D9C13832B889E562B9543015EE
:105330009C6422A3542434B88B05578327EFE18360
:1053400027944C0553C1786430500CC6C154269440
:10535000CA8452A1482C14894D6A56895430393870
:105360000857CE350FA283259708E522995C2C3289
:105370003888148506A3582414C94406894826523F
:1053800011C9442A8A2215458348CD4411A988B4FD
:1053900028AAD184520157DF330FA2832598C8046D
:1053A0002385A9C8E02012CC0C64A9CC2011A989BE
:1053B0002422359144A42692A8C90C1235BBC86A90
:1053C000D166A3886522CA500057FA280FA2832904
:1053D000154CA5060F5285834130151C0C82A9D0AF
:1053E000E0A3542E53152A910C06115D3C393890D8
:1053F000005883310FA28325158CE5328341A826FE
:1054000033D0246291C141249E190C42995428330F
:10541000188432A9D06230888C22A9924C2C53A4D3
:105420001A045899310FA28325968BE522839B5845
:105430002E13291948125591C141249E190C4299E5
:105440005428935884169D6C128B4C28151C0C8282
:10545000A90800589E2E0EA2832593CA8432A174F7
:1054600064705293190C129D944CDA94440627E907
:10547000CC609059A4129BC120124AE506835C2A95
:105480000158EB11EFE1832FDEBBC177F1BE1C1C8D
:10549000480058F01B0FA2832F9E1B7C171C3CC892
:1054A000630607A23E1A1C88E2D5F1741C58F32249
:1054B0000FA2832F1E1C3C08C6A3837BD0E0812251
:1054C0002C4E0D06C15430958B6522B9CC72105903
:1054D000042D0FA28327154C0553C141241889C8F8
:1054E0003291442A13A949446A129144A628914949
:1054F0008692A1602293CB086383811C5907230FF6
:10550000A2832B9E1E0C64AA9424935D6E2E378377
:10551000B34C59A66C709629CB940DCE72190059D4
:105520000D220FA283271E1F1C68D289C14D24178C
:105530001B9CE56283C3F4602053A52499EC72732D
:1055400039590F210FA28363F020971D9CE56283D8
:10555000B35C6C70968B0DEED283AB44AAA676B981
:10556000B91C5916270EA28327954BE552B9546CE6
:1055700020896522A292442614A928C9B4C814150A
:105580008672A958552E140C01591A210CA6832B8A
:105590001B1D0C42A9CC2817492A6292D066B0AADA
:1055A000514524996022A99B2D01591C2D0FA283DE
:1055B0002D0FC80D3ECA4433C9D0409509853489A2
:1055C000482611C924221535B14C5928914B054361
:1055D000895C26A34AC804591F350FA2832517CB1F
:1055E000A57203C9609249A4120D43A14122938A76
:1055F00024128A5024111A2422894CC5201191B4F6
:105600002849E452C1502C110A66540059271A0F38
:10561000A2832FDEDDE0BB783A114E6433D14C32E9
:1056200095AB4A46B40259291CEFA1836570A08C42
:10563000B71B7C974E8413D94C34934CE5AA921136
:10564000AD00592A1C0FA2832FDEDDE0BB783A1192
:105650004E6433D14C3291C965AA42255A01592B67
:105660001B0FA2832FDE7270A08CD70D3E4B6433CC
:10567000D14C3295AB4A46B4025931210FA2832F47
:105680009A8966A299E8E02054988AE706DFA51374
:10569000E14436934CE58A940A005934200FA283E2
:1056A000311ECD6423C1486528198AC706DFC5139A
:1056B000D94C32952B5226B4090059391E0FA283BA
:1056C0002F5E3878108C66EA22B5B9C177E9443884
:1056D00091CD2453319D442B5947230FA2832F9EF4
:1056E0001C1C0813D94C32151A7C1B8F0D26B15087
:1056F00024168AC406937838910E015956290FA2B0
:1057000083A92C12CA25328355241552D48412A1A0
:105710004428920A6542C9883A37F82C91CD24531F
:10572000319D442B59731D0FA2832DDE3A39F82A7F
:10573000144C0553B954501455A4B5129D2CA48C87
:1057400000597937EFE18327968BE562B94C243411
:105750005844129A4822A2C84412094926324844A1
:10576000329144A4278A4C225291CA44329144A4D3
:10577000269149C44491C120597D290FA283271E37
:105780001A8C92A16064B02A09C522A1582431184C
:10579000488A5291542C91CAC52A5235A12689743F
:1057A0000A59822A0EA28327DD6AF02413C94432E3
:1057B000914C2413C9443289502413A9699129AA10
:1057C000A9C894642203452892510359CB2F0FA2F4
:1057D0008327968BE562B9546AB08984224599483B
:1057E000623090B48A944632834D2213EA2691099E
:1057F000453291502237588612005A1C3F0FA2831F
:10580000259E182C06914C2411A989242203494570
:1058100049223150942422159A44A4A22411A98823
:105820004806834424515211A9892414914C2451CF
:1058300092A8498412BD6992015A5A380FA2832551
:10584000B8C90C6499B2CCE08122938A244A2A22F6
:105850000951A224115344228341229249451299AD
:10586000542634186434A948AB48C9609088A512FE
:10587000005B5013EFA18363F0BAB13A37F82EDE24
:10588000E3443A085B571A0FA2832D0F080E1E2817
:10589000C2E2D060A06E37F82EDE38910E025B585F
:1058A000260FA2832B9E1C7C144F470683542E2563
:1058B0004B25522589C14126154C0553C1543093BF
:1058C000088662005B661F0FA2832593AA09A53292
:1058D000D5A9C10345581C1A0CD461D9E0BB787115
:1058E000221D045B692C0FA2833534580553B9C4BB
:1058F000E026964B853289482824198C7419452C4A
:1059000053A4094544A95CAC229308696A64015B0D
:10591000831FEFE1832D0F080E1E28C2E2543C17AF
:105920004BE922CB713C980AA682B1C105005B8984
:10593000210FA2832D0F480EDE4423A154301E1CDC
:105940007C150AA672A2A8242C8E0855A161045BBE
:105950008C250FA2832D0F080E1E28C2E2D0E09ED8
:1059600068F020968966A2996428930A6542A94C3A
:10597000443748005B98230FA2832D0F080E1E2882
:10598000C2E2D0E02C17CBC50667F1F8E020154C39
:10599000055383835430025B9A230FA2832D0F0893
:1059A0000E1E28C2E23C6670A08C4733D1CC6095B5
:1059B000896692894830333890035B9D1EEFE183FE
:1059C0002D0F080E1E28C2E23C64F02018AF1C1CEC
:1059D00028E3916C2633F8005B9E240FA2832D0FE1
:1059E000080E1E28C29AA258241B4986A29968262E
:1059F00036F82E91CD2453315D469A005BA2230FD9
:105A0000A2832D0F080E1E28C29A606A3090B5D06E
:105A100064979BCBCDE02C17CBC50667B90C005B18
:105A2000A320EFE1832D0F080E1E28C2E2CCE04038
:105A30008F1A9CE56283B35C6C7096CB63061F5B28
:105A4000A41FEFE1832D0F080E1E28C2E2CCE04018
:105A5000974EE506A799687270A08CE7061F5BB6A3
:105A6000280FA2832D0F080E1E28C2E2C8E0412E87
:105A7000AC0865369264A25022DB28928A884A13C9
:105A80001A6812E91C005BB9280FA2832D0F080EBB
:105A90001E28C29A542494A9CA2432B94C3215D370
:105AA0004914830B4D2E968BE56283B35C065BBD78
:105AB000280FA2832D0F080E1E28C2A24CCDE04055
:105AC00097C9030767B958A62C53164944829154C5
:105AD00046931AC406035BC4280FA2832D0F080E39
