:020000040800F2
:10000000A8040020CD0000082D0A0008110A0008ED
:1000100000000000000000000000000000000000E0
:100020000000000000000000000000005F0C00085D
:1000300000000000000000005D0C0008610C0008DA
:10004000DF00000800000000DF000008DF000008FB
:10005000DF000008DF000008DF000008DF00000804
:1000600000000000DF000008DF000008DF000008DB
:10007000DF000008DF000008DF00000800000000CB
:10008000DF000008DF000008DF000008DF000008D4
:10009000DF000008DF000008DF000008DF000008C4
:1000A000DF000008DF000008DF000008DF000008B4
:1000B000DF000008DF0000080348854600F03CF838
:1000C000004800471D0F0008A8040020044880478E
:1000D00004480047FEE7FEE7FEE7FEE7FEE7FEE72F
:1000E000D10C0008B900000830B50B4601460020CD
:1000F0002022012409E00D46D5409D4205D31D462E
:100100009540491B2546954040191546521E002D25
:10011000F1DC30BDD2B201E00270401C491EFBD2BE
:1001200070470022F6E710B513460A460446194602
:10013000FFF7F0FF204610BD064C0125064E05E0F6
:10014000E36807CC2B430C3C98471034B442F7D3F8
:10015000FFF7B6FFE01700080018000870B5044666
:1001600000F0C8F80546601C02D004480078241846
:1001700000F0C0F8401BA042FAD370BD8000002000
:10018000FCB5002301259AE022462C469C402240E3
:100190006FD04E68012E05D0022E03D0112E01D053
:1001A000122E16D186680327B4465E00B646B740C5
:1001B0006646BE43B446CF687646B7406646374388
:1001C00087604668A6430C79E406E40F9C403443FC
:1001D0004460C6685F000324BC40A446A6438C6804
:1001E000BC403443C4604C68022C01D0122C14D1A2
:1001F000DC08A40024180194266A5C07B646E60EC3
:100200000F24B44000967646A643B6460C69009E7D
:10021000B44076462643019C266204686646B44391
:100220000E79B607B60FBE40264306604C68E40060
:1002300044D59E08254CB6003419A446246E9E076A
:10024000F60E0F27B740BC4305273F07B84201D140
:10025000002710E01E4FB84201D101270BE01D4FCF
:10026000B84201D1022706E01B4FB84202D1032752
:1002700001E023E00527B740274364462766134E75
:10028000803634684F689443FF0300D514433460CC
:1002900074684F689443BF0300D5144374600B4CDB
:1002A00026684F689643FF0200D5164326606668AD
:1002B0004F689643BF0200D5164366605B1C0A6810
:1002C0001446DA4000D05FE7FCBD00000018024091
:1002D0000004005000080050000C00500069084065
:1002E00000D001207047002A01D0816170478162EF
:1002F00070470000014880687047000080000020BF
:100300000248816802788918816070478000002067
:1003100010B5084800240168821511430160204689
:1003200000F00AF8002801D0012401E000F028F8CC
:10033000204610BD0020024070B50F4E00243178D9
:100340000546002915D07D20C000FFF7CDFE0146EF
:100350000A480068FFF7C8FE00F042FB002808D1F9
:10036000042D06D200222946401E00F023F87560B5
:1003700000E00124204670BD800000208C00002099
:1003800008B50B4801680122114301600068104064
:10039000009007484038C26B01040A43C263C06B37
:1003A000084000900320400200F010FB08BD000050
:1003B0004010024010B500F0A1FC10BD10B50F4C6C
:1003C000216803225202914301432160C11FFF397A
:1003D000FA390ED10A480621006848430949FFF757
:1003E00083FE401C02E0002805D0401E61694905DB
:1003F000F9D4002010BD032010BD000000700040A3
:100400008C00002040420F00F8B50F46060043D094
:100410004D4D28684007400FB84213D22868C008E5
:10042000C00038432860FFF765FF044605E0FFF78A
:1004300061FF011B4548814261D828684007400F91
:10044000B842F4D13068424C81070DD5400704D53D
:10045000A068072109030843A060A0680F210902D2
:100460008843B1680843A0603078C00732D0706814
:1004700001280AD002280BD000280FD0344940317F
:1004800003280ED0C969890704E02168890301E0C7
:1004900021688901002906DB0120F8BD2168490592
:1004A000F8E7096AEFE7A168C908C9000143A1603C
:1004B000FFF720FF009006E0FFF71CFF0099411AAC
:1004C000224881421BD8A068382108407168C900C1
:1004D0008842F1D128684007400FB84217D91A481E
:1004E0000168C908C90039430160FFF703FF0546E9
:1004F00007E0FFF7FFFE411B1448814201D90320AA
:10050000F8BD114800684007400FB842F1D130787B
:10051000400706D5A068072109038843F16808430E
:10052000A06000F01DF8A1683C2289091140094A29
:10053000515CC906C90EC8400749086007480068F1
:10054000FFF7FAFEF8BD000000200240881300000B
:1005500000100240A01700088C000020840000203A
:1005600010B5204CA068204A8006400F16D0A06825
:100570008006410F501001290FD0A1688906490F4C
:10058000022912D0A0688006400F042823D0A0685A
:100590008006400F032821D0002010BD20680121D3
:1005A0008004400F8140104612E0E1688B07E1684B
:1005B0009B0F4906490F491C032B00D01046FFF73B
:1005C00093FDE1684904490E4843E168490F491C1D
:1005D000FFF78AFD10BD0120C00310BD7D20000281
:1005E00010BD0000001002400024F400F8B5040023
:1005F0007ED020783827C007EB4D002846D0A86869
:10060000E96838408907890F102802D008280BD0E4
:1006100001E0032908D001206268000482420AD167
:1006200029680143296015E0286880032ED5606899
:100630000028DDD02AE0052301211B0489049A4209
:100640002A6802D10A432A60EAE782432A602868BE
:1006500088432860606800280CD0FFF74BFE0646F0
:1006600004E0FFF747FE801B642873D828688003E6
:10067000F7D50BE0FFF73EFE064604E0FFF73AFE33
:10068000801B6428F1D828688003F7D4207880077D
:1006900069D5A868E96838408A070721920FC9021E
:1006A000102802D0002813D001E0022A10D0E06800
:1006B000002846D0286888432169084328602868B4
:1006C000FF21013108432860FFF714FE06462CE0A5
:1006D0002A68520502D5E268002A89D06A687F2319
:1006E0001B029A4363691B021A436A60002800E0F8
:1006F0008DE00ED128688843216908432860286866
:1007000001218004400F8140A848FFF7EDFCA84973
:100710000860A8480068FFF70FFE002877D122E0A4
:10072000FFF7E8FD801B02289FD828684005F7D511
:1007300068687F210902884361690902084368608B
:1007400011E02968FF20013081432960FFF7D2FDC5
:10075000064605E098E0FFF7CDFD801B022884D80F
:1007600028684005F7D42078934E00072ED5A86856
:100770008006400F03280AD0A0690028306A16D0EE
:10078000012108433062FFF7B5FD07460BE0306AF0
:1007900080071BD5A06900289FD017E0FFF7AAFDAE
:1007A000C01B022870D8306A8007F7D50EE04008D9
:1007B00040003062FFF79EFD074604E0FFF79AFD18
:1007C000C01B022860D8306A8007F7D42078400721
:1007D0006CD5A86800278006400F042818D0E86B65
:1007E000C00008D4E96B012000070143E963E96B0D
:1007F00001400127009171480168C90519D40168B9
:10080000821511430160FFF775FD00900DE083E054
:10081000F06980074AD5A06800287DD046E0FFF740
:1008200069FD0099401A02282ED864480068C00566
:10083000F5D5A168012910D004200529F16911D04E
:1008400049084900F161F1698143F161A06800281C
:1008500016D0FFF74FFD00900EE0F069012108432C
:10086000F061F3E70143F161F7E7FFF743FD00991A
:10087000411A534881426DD8F0698007F5D50EE0E2
:10088000FFF738FD009007E064E0FFF733FD0099C3
:10089000411A4B4881425DD8F0698007F5D4002F9A
:1008A00004D0E96B012000078143E963E069002877
:1008B00077D0A9688906490F022951D0012636064A
:1008C000022828680DD0B0432860E86880088000BE
:1008D000E860E8683B490840E860FFF70BFD044624
:1008E0003AE0B0432860FFF705FD074604E0FFF754
:1008F00001FDC01B02282DD828688001F7D4616A49
:10090000206AA26A0843E16A120211430843216B7C
:100910000843E9682C4A00E041E011400843E860E0
:10092000286830432860E868012109070843E86027
:10093000FFF7E0FC044604E0FFF7DCFC001B0228A4
:1009400008D828688001F7D52BE0FFF7D3FC001BFF
:10095000022801D90320F8BD28688001F5D420E0E1
:100960000128F8D0E868226A8107890F914216D1E0
:100970007021626A0140914211D17F21A26A09026D
:100980000140120291420AD11F214904E26A01404A
:10099000914204D1400F216B4007884201D00120D1
:1009A000F8BD0020F8BD0000001002400024F40053
:1009B0008C000020840000204010024000700040A5
:1009C00088130000FFFFFEEF8C80C11F03490A68F7
:1009D00003235B029A4302430A6070470000014010
:1009E000094910B5401E884201D9012010BD074CAD
:1009F00060610321081F00F081F90020A061072039
:100A00002061002010BD0000FFFFFF0000E000E0BB
:100A1000FEE7000008B50448416B01221143416321
:100A2000406B1040009008BD00100240FEE710B57A
:100A3000002000F001F810BD70B5064600242046E5
:100A4000B030C0B200F04CF9002000F049F910209D
:100A500000F046F90025304600F049F96D1CEDB272
:100A6000802DF8D3641CE4B2082CE8D370BD10B517
:100A700000F07CF97D20C000FFF770FBAE2000F095
:100A80002FF9202000F02CF9102000F029F9B020D7
:100A900000F026F9C82000F023F9002000F020F92A
:100AA000102000F01DF9402000F01AF9812000F01C
:100AB00017F9FF2000F014F9A12000F011F9A62089
:100AC00000F00EF9A82000F00BF93F2000F008F923
:100AD000A42000F005F9D32000F002F9002000F076
:100AE000FFF8D52000F0FCF8F02000F0F9F8D9204C
:100AF00000F0F6F8222000F0F3F8DA2000F0F0F829
:100B0000122000F0EDF8DB2000F0EAF8202000F0E1
:100B1000E7F88D2000F0E4F8142000F0E1F8AF20B1
:100B200000F0DEF83220FFF719FB0020FFF784FF0A
:100B300010BD10B50446B031C8B200F0D1F820099C
:100B4000103000F0CDF82007000F0121084300F01D
:100B5000C7F810BDF7B50F46002554010098FFF700
:100B6000E8FF0C4E305D00F0C2F86D1CEDB2641C65
:100B7000102DF7D37F1CF9B20098FFF7DAFF00259C
:100B8000305D00F0B4F86D1CEDB2641C102DF7D38D
:100B9000FEBD000000000020FFB5002581B0044626
:100BA000012B1FD0022B21D14FE02038C7B27E2C61
:100BB00004D902980024401CC0B202902046029939
:100BC000FFF7B7FF06204743224800263F18B85DCD
:100BD00000F08DF8761CF6B2062EF8D3A41D6D1C1D
:100BE000E4B2EDB20398405D0028DED105B0F0BD5F
:100BF0002038C7B2782C04D902980024401CC0B217
:100C0000029020460299FFF794FF00263F01124808
:100C1000B919405C00F06BF8761CF6B2082EF6D3DA
:100C20000298401CC1B22046FFF783FF00260A4805
:100C3000B9190818007A00F05AF8761CF6B2082E96
:100C4000F5D308346D1CE4B2EDB20398405D002882
:100C5000CED1CBE7880F0008B0110008704770476D
:100C600010B5FFF74DFB10BD30B591B0342168468B
:100C7000FFF757FA002501200D950E950F954002BC
:100C80001095FFF79BFB0224E001039000944020A5
:100C9000059008200A9080030B90079400030495A8
:100CA0000C90099508946846FFF7A0FC002801D035
:100CB00072B6FEE707200DA931C102210DA81095DB
:100CC000FFF7A2FB002801D072B6FEE711B030BDDD
:100CD00001200249C00688607047000000ED00E076
:100CE00010B502460021782000F00EF910BD10B5B5
:100CF00002464021782000F007F910BD8307FF224B
:100D0000DB0E9A408907090E9940002808DB83080A
:100D100009489B001B1818689043084318607047E7
:100D20000007000F0838830804489B001B18D86987
:100D300090430843D861704700E400E000ED00E014
:100D400002E008C8121F08C1002AFAD17047704794
:100D5000002001E001C1121F002AFBD170470020D2
:100D6000401CC0B20528FBD37047000008B50A48F4
:100D7000426B08210A434263406B084000900748D9
:100D800003210160012141600221C1600146044844
:100D9000FFF7F6F908BD00000010024090000020A7
:100DA000000C005010B50649002801D0002000E0DA
:100DB0000120486002490348FFF7E2F910BD000036
:100DC00090000020000C005070B505460020FFF791
:100DD000E9FF134E0024280601D5012200E000227D
:100DE00002213046FFF77FFAFFF7B9FF01221146D3
:100DF0003046FFF778FAFFF7B2FF002201213046B4
:100E0000FFF771FA6806050EFFF7A9FF641CE4B24C
:100E1000082CE0D3012202213046FFF764FA70BDAE
:100E2000000C005010B5094C002202212046FFF7AB
:100E30005AFA012211462046FFF755FAFFF78FFFB5
:100E4000012202212046FFF74EFA10BD000C00508F
:100E5000F8B52C4E0F4605460024012202213046EB
:100E6000FFF741FA012211463046FFF73CFAFFF73F
:100E700076FF002202213046FFF735FAFFF76FFFB9
:100E8000002201213046FFF72EFAFFF768FF33E01A
:100E90002878FFF799FF00206D1CFFF783FF194E9C
:100EA000012202213046FFF71EFAFFF758FF012208
:100EB00011463046FFF717FAFFF751FF0120FFF701
:100EC00071FF02213046FFF709FA002801D0012600
:100ED00000E000260020FFF765FF002201210948FD
:100EE000FFF701FAFFF73BFF002E03D0FFF79AFF51
:100EF0000120F8BD641CE4B2BC42C9D3FFF792FFE5
:100F00000020F8BD000C005008B56B4618705970F1
:100F10009A7003216846FFF79BFF08BDFFF7F8F9B9
:100F2000FFF7A2FEFFF776FDFFF7A1FD7D24E400A9
:100F30000A21012311A20846FFF72EFE2046FFF7E3
:100F40000DF9FFF774FD002211461046FFF702FE6F
:100F5000012200211E20FFF7FDFD022200213C207E
:100F6000FFF7F8FD032200215A20FFF7F3FD20468A
:100F7000FFF7F4F8FFF75BFDDAE7000068656C6CDB
:100F80006F2C6F6C65642100000000000000000001
:100F9000002F000000000700070000147F147F14DA
:100FA00000242A7F2A120062640813230036495560
:100FB000225000000503000000001C224100000038
:100FC00041221C000014083E08140008083E0808CE
:100FD000000000A060000008080808080000606029
:100FE0000000002010080402003E5149453E000068
:100FF000427F4000004261514946002141454B314A
:10100000001814127F10002745454539003C4A4915
:101010004930000171090503003649494936000687
:101020004949291E000036360000000056360000EF
:10103000000814224100001414141414000041226A
:10104000140800020151090600324959513E007C42
:101050001211127C007F49494936003E414141222C
:10106000007F4141221C007F49494941007F090915
:101070000901003E4149497A007F0808087F0000C5
:10108000417F4100002040413F01007F0814224180
:10109000007F40404040007F020C027F007F040838
:1010A000107F003E4141413E007F09090906003E94
:1010B0004151215E007F09192946004649494931BD
:1010C0000001017F0101003F4040403F001F2040E0
:1010D000201F003F4038403F00631408146300079E
:1010E0000870080700615149454300007F414100F5
:1010F00000552A552A55000041417F000004020195
:101100000204004040404040000001020400002072
:1011100054545478007F48444438003844444420B0
:1011200000384444487F00385454541800087E095D
:1011300001020018A4A4A47C007F08040478000025
:10114000447D4000004080847D00007F10284400E2
:101150000000417F4000007C04180478007C0804F3
:10116000047800384444443800FC2424241800182F
:10117000242418FC007C080404080048545454201B
:1011800000043F444020003C4040207C001C2040A4
:10119000201C003C4030403C004428102844001CE7
:1011A000A0A0A07C004464544C44141414141414DF
:1011B000000000000000000000000000000000002F
:1011C000000000F8000000000000003330000000C4
:1011D00000100C06100C06000000000000000000CB
:1011E00040C07840C0784000043F04043F0404003D
:1011F000007088FC08300000001820FF211E00004D
:10120000F008F000E018000000211C031E211E0061
:1012100000F00888700000001E21232419272110E7
:1012200010160E000000000000000000000000008A
:10123000000000E018040200000000071820400031
:1012400000020418E0000000004020180700000021
:10125000404080F0804040000202010F0102020085
:10126000000000F0000000000101011F0101010069
:10127000000000000000000080B0700000000000CE
:101280000000000000000000000101010101010157
:1012900000000000000000000030300000000000EE
:1012A00000000000806018040060180601000000C3
:1012B00000E010080810E000000F102020100F00C0
:1012C000001010F8000000000020203F2020000047
:1012D000007008080888700000302824222130009F
:1012E00000300888884830000018202020110E00A7
:1012F0000000C02010F8000000070424243F240050
:1013000000F80888880808000019212020110E0024
:1013100000E0108888180000000F112020110E0036
:1013200000380808C83808000000003F000000002E
:101330000070880808887000001C222121221C00EF
:1013400000E010080810E0000000312222110F0018
:10135000000000C0C00000000000003030000000AD
:10136000000000800000000000008060000000001D
:101370000000804020100800000102040810200036
:101380004040404040404000040404040404040081
:101390000008102040800000002010080402010016
:1013A000007048080808F000000000303601000016
:1013B000C030C828E810E0000718272423140B00C9
:1013C0000000C038E0000000203C23020227382043
:1013D00008F8888888700000203F202020110E0027
:1013E000C03008080808380007182020201008001E
:1013F00008F808080810E000203F202020100F0007
:1014000008F88888E8081000203F202023201800D2
:1014100008F88888E8081000203F2000030000003A
:10142000C03008080838000007182020221E0200DB
:1014300008F808000008F808203F210101213F209A
:10144000000808F8080800000020203F20200000C5
:1014500000000808F8080800C08080807F000000B5
:1014600008F888C028180800203F200126382000EE
:1014700008F8080000000000203F20202020300055
:1014800008F8F800F8F80800203F003F003F20006F
:1014900008F830C00008F808203F200007183F0077
:1014A000E01008080810E0000F10202020100F00A6
:1014B00008F808080808F000203F21010101000099
:1014C000E01008080810E0000F18242438504F00DE
:1014D00008F8888888887000203F2000030C30209E
:1014E00000708808080838000038202121221C00DC
:1014F000180808F8080818000000203F2000000025
:1015000008F808000008F808001F202020201F000D
:101510000878880000C83808000007380E0100006D
:10152000F80800F80008F800033C0700073C030037
:10153000081868808068180820302C03032C30209D
:101540000838C800C83808000000203F200000000C
:1015500010080808C8380800203826212020180064
:10156000000000FE020202000000007F4040400038
:10157000000C30C000000000000000010638C00070
:1015800000020202FE000000004040407F00000018
:10159000000004020202040000000000000000003D
:1015A000000000000000000080808080808080803B
:1015B0000002020400000000000000000000000023
:1015C00000008080808000000019242222223F2019
:1015D00008F8008080000000003F112020110E005C
:1015E0000000008080800000000E112020201100EB
:1015F000000000808088F800000E112020103F209D
:101600000000808080800000001F22222222130020
:10161000008080F0888888180020203F202000006B
:101620000000808080808000006B94949493600020
:1016300008F8008080800000203F210000203F202B
:1016400000809898000000000020203F202000002B
:10165000000000809898000000C08080807F00001B
:1016600008F8000080808000203F24022D302000F8
:10167000000808F8000000000020203F20200000A3
:101680008080808080808000203F20003F20003FBD
:101690008080008080800000203F210000203F20CB
:1016A0000000808080800000001F202020201F007C
:1016B000808000808000000080FFA12020110E00AB
:1016C0000000008080808000000E112020A0FF809C
:1016D000808080008080800020203F212000010049
:1016E000000080808080800000332424242419009E
:1016F000008080E0808000000000001F20200000AB
:101700008080000000808000001F202020103F20EB
:10171000808080000080808000010E30080601007B
:1017200080800080008080800F300C030C300F0020
:1017300000808000808080000020312E0E3120004B
:10174000808080000080808080818E70180601007B
:1017500000808080808080000021302C2221300099
:1017600000000000807C020200000000003F4040BA
:1017700000000000FF00000000000000FF0000006B
:101780000002027C800000000040403F000000009A
:101790000006010102020404000000000000000035
:1017A0000000000000000000000000000000000039
:1017B0000000000000000000000000000000000029
:1017C000010000000200000003000000040000000F
:1017D00006000000070000000800000009000000EB
:1017E000001800080000002090000000400D0008D4
:1017F000901800089000002018040000500D000808
:1018000004040404F49495969494F40404040400E9
:1018100000FE02027A4A4A4A4A4A7A0282FE0000DE
:1018200000809E909090909F909090909E8000005D
:1018300020201008FC47444444444444FC00000079
:101840004040C05F5555D5555555555F4040400007
:1018500020603F251515FF904729112D43808000FA
:1018600000FC0000FF0000F01010FF1010F000005E
:10187000008740300F00001F0000FF08100F00001D
:101880000100000004000000000000000024F4003B
:04000005080000B936
:00000001FF
