:020000040800F2
:1000000068200020CD0000085D200008F51D0008D4
:1000100000000000000000000000000000000000E0
:10002000000000000000000000000000BD3E0008CD
:10003000000000000000000063210008DB3E000813
:10004000DF00000800000000DF000008DF000008FB
:10005000DF000008DF000008DF000008DF00000804
:1000600000000000DF000008DF000008DF000008DB
:10007000DF000008DF000008DF00000800000000CB
:10008000DF000008DF000008DF000008DF000008D4
:10009000DF000008DF000008DF000008DF000008C4
:1000A000DF000008DF000008DF000008DF000008B4
:1000B000DF000008DF0000080348854600F088F8EC
:1000C00000480047C94200086820002004488047D3
:1000D00004480047FEE7FEE7FEE7FEE7FEE7FEE72F
:1000E0004D3F0008B900000830B50B46014600201E
:1000F0002022012409E00D46D5409D4205D31D462E
:100100009540491B2546954040191546521E002D25
:10011000F1DC30BD70B500242546002801DA012449
:100120004042002901DA01254942FFF7DDFFAC42D8
:1001300000D04042002C00D0494270BD0549064A1B
:1001400008685043054A8018086040087047014914
:1001500008607047540300206D4EC64139300000DE
:1001600003460B439B0703D009E008C9121F08C0D0
:10017000042AFAD203E00B780370401C491C521E7B
:10018000F9D27047D2B201E00270401C491EFBD286
:1001900070470022F6E710B513460A460446194692
:1001A000FFF7F0FF204610BD10B5044605E00B78C0
:1001B0000370401C002B00D0491C521EF7D2204671
:1001C00010BD421C0178401C0029FBD1801A7047E9
:1001D000064C0125064E05E0E36807CC2B430C3C9A
:1001E00098471034B442F7D3FFF76AFFD0F2000803
:1001F000F0F2000870B58C180578401C6B075B0F97
:1002000001D10378401C2A1106D10278401C03E07A
:1002100006780E70401C491C5B1EF9D12B0705D4D3
:100220000023521E0DD40B70491CFAE70378401CC2
:10023000CB1A921C03E01D780D70491C5B1C521EEA
:10024000F9D5A142D8D3002070BD00007FB501F0E0
:10025000D3FD0024102500280ED002200090029526
:1002600003940190FFF76AFFC821FFF753FF643939
:100270006846039101F050FD03F070FE00280BD09A
:10028000012000900190054802950394008869467A
:100290008881684601F040FD7FBD00002C030020EE
:1002A00010B5074C2318002908D0002004E01C7862
:1002B0000C70401C491C5B1C9042F8D310BD000020
:1002C000F0EC00087F2801D2002070470120704721
:1002D00030B500210246C9431A3A652A01D2911F5E
:1002E0001AE00E4C02040E4D120E0419C3B2AC42B9
:1002F00006D25E20A13A4243D0184100E3390BE018
:10030000084C0019084CA04206D25E20B03A424385
:10031000D018064940004118084630BD5F5EFFFF17
:100320005E0800005F4FFFFF5E470000B905000058
:1003300001484088704700005003002070B5044613
:1003400000F0C8F80546601C02D004480078241864
:1003500000F0C0F8401BA042FAD370BD040000209A
:10036000FCB5002301259AE022462C469C40224001
:100370006FD04E68012E05D0022E03D0112E01D071
:10038000122E16D186680327B4465E00B646B740E3
:100390006646BE43B446CF687646B74066463743A6
:1003A00087604668A6430C79E406E40F9C4034431A
:1003B0004460C6685F000324BC40A446A6438C6822
:1003C000BC403443C4604C68022C01D0122C14D1C0
:1003D000DC08A40024180194266A5C07B646E60EE1
:1003E0000F24B44000967646A643B6460C69009E9C
:1003F000B44076462643019C266204686646B443B0
:100400000E79B607B60FBE40264306604C68E4007E
:1004100044D59E08254CB6003419A446246E9E0788
:10042000F60E0F27B740BC4305273F07B84201D15E
:10043000002710E01E4FB84201D101270BE01D4FED
:10044000B84201D1022706E01B4FB84202D1032770
:1004500001E023E00527B740274364462766134E93
:10046000803634684F689443FF0300D514433460EA
:1004700074684F689443BF0300D5144374600B4CF9
:1004800026684F689643FF0200D5164326606668CB
:100490004F689643BF0200D5164366605B1C0A682E
:1004A0001446DA4000D05FE7FCBD000000180240AF
:1004B0000004005000080050000C00500069084083
:1004C00000D001207047002A01D08161704781620D
:1004D0007047000001488068704700000400002059
:1004E0000248816802788918816070470400002002
:1004F00010B50848002401688215114301602046A8
:1005000000F00AF8002801D0012401E000F028F8EA
:10051000204610BD0020024070B50F4E00243178F7
:100520000546002915D07D20C000FFF7DDFD0146FE
:100530000A480068FFF7D8FD00F042FB002808D108
:10054000042D06D200222946401E00F023F87560D3
:1005500000E00124204670BD0400002010000020AF
:1005600008B50B4801680122114301600068104082
:10057000009007484038C26B01040A43C263C06B55
:10058000084000900320400200F010FB08BD00006E
:100590004010024010B503F00FFD10BD10B50F4C18
:1005A000216803225202914301432160C11FFF3998
:1005B000FA390ED10A480621006848430949FFF775
:1005C00093FD401C02E0002805D0401E61694905EA
:1005D000F9D4002010BD032010BD000000700040C1
:1005E0001000002040420F00F8B50F46060043D02F
:1005F0004D4D28684007400FB84213D22868C00804
:10060000C00038432860FFF765FF044605E0FFF7A8
:1006100061FF011B4548814261D828684007400FAF
:10062000B842F4D13068424C81070DD5400704D55B
:10063000A068072109030843A060A0680F210902F0
:100640008843B1680843A0603078C00732D0706832
:1006500001280AD002280BD000280FD0344940319D
:1006600003280ED0C969890704E02168890301E0E5
:1006700021688901002906DB0120F8BD21684905B0
:10068000F8E7096AEFE7A168C908C9000143A1605A
:10069000FFF720FF009006E0FFF71CFF0099411ACA
:1006A000224881421BD8A068382108407168C900DF
:1006B0008842F1D128684007400FB84217D91A483C
:1006C0000168C908C90039430160FFF703FF054607
:1006D00007E0FFF7FFFE411B1448814201D90320C8
:1006E000F8BD114800684007400FB842F1D130789A
:1006F000400706D5A068072109038843F16808432D
:10070000A06000F01DF8A1683C2289091140094A47
:10071000515CC906C90EC84007490860074800680F
:10072000FFF7FAFEF8BD0000002002408813000029
:1007300000100240384B0008100000200800002084
:1007400010B5204CA068204A8006400F16D0A06843
:100750008006410F501001290FD0A1688906490F6A
:10076000022912D0A0688006400F042823D0A06878
:100770008006400F032821D0002010BD20680121F1
:100780008004400F8140104612E0E1688B07E16869
:100790009B0F4906490F491C032B00D01046FFF759
:1007A000A3FCE1684904490E4843E168490F491C2C
:1007B000FFF79AFC10BD0120C00310BD7D20000290
:1007C00010BD0000001002400024F400F8B5040041
:1007D0007ED020783827C007EB4D002846D0A86887
:1007E000E96838408907890F102802D008280BD003
:1007F00001E0032908D001206268000482420AD186
:1008000029680143296015E0286880032ED56068B7
:100810000028DDD02AE0052301211B0489049A4227
:100820002A6802D10A432A60EAE782432A602868DC
:1008300088432860606800280CD0FFF74BFE06460E
:1008400004E0FFF747FE801B642873D82868800304
:10085000F7D50BE0FFF73EFE064604E0FFF73AFE51
:10086000801B6428F1D828688003F7D4207880079B
:1008700069D5A868E96838408A070721920FC9023C
:10088000102802D0002813D001E0022A10D0E0681E
:10089000002846D0286888432169084328602868D2
:1008A000FF21013108432860FFF714FE06462CE0C3
:1008B0002A68520502D5E268002A89D06A687F2337
:1008C0001B029A4363691B021A436A60002800E016
:1008D0008DE00ED128688843216908432860286884
:1008E00001218004400F8140A848FFF7FDFBA84983
:1008F0000860A8480068FFF70FFE002877D122E0C3
:10090000FFF7E8FD801B02289FD828684005F7D52F
:1009100068687F21090288436169090208436860A9
:1009200011E02968FF20013081432960FFF7D2FDE3
:10093000064605E098E0FFF7CDFD801B022884D82D
:1009400028684005F7D42078934E00072ED5A86874
:100950008006400F03280AD0A0690028306A16D00C
:10096000012108433062FFF7B5FD07460BE0306A0E
:1009700080071BD5A06900289FD017E0FFF7AAFDCC
:10098000C01B022870D8306A8007F7D50EE04008F7
:1009900040003062FFF79EFD074604E0FFF79AFD36
:1009A000C01B022860D8306A8007F7D4207840073F
:1009B0006CD5A86800278006400F042818D0E86B83
:1009C000C00008D4E96B012000070143E963E96B2B
:1009D00001400127009171480168C90519D40168D7
:1009E000821511430160FFF775FD00900DE083E073
:1009F000F06980074AD5A06800287DD046E0FFF75F
:100A000069FD0099401A02282ED864480068C00584
:100A1000F5D5A168012910D004200529F16911D06C
:100A200049084900F161F1698143F161A06800283A
:100A300016D0FFF74FFD00900EE0F069012108434A
:100A4000F061F3E70143F161F7E7FFF743FD009938
:100A5000411A534881426DD8F0698007F5D50EE000
:100A6000FFF738FD009007E064E0FFF733FD0099E1
:100A7000411A4B4881425DD8F0698007F5D4002FB8
:100A800004D0E96B012000078143E963E069002895
:100A900077D0A9688906490F022951D00126360668
:100AA000022828680DD0B0432860E86880088000DC
:100AB000E860E8683B490840E860FFF70BFD044642
:100AC0003AE0B0432860FFF705FD074604E0FFF772
:100AD00001FDC01B02282DD828688001F7D4616A67
:100AE000206AA26A0843E16A120211430843216B9B
:100AF0000843E9682C4A00E041E011400843E860FF
:100B0000286830432860E868012109070843E86045
:100B1000FFF7E0FC044604E0FFF7DCFC001B0228C2
:100B200008D828688001F7D52BE0FFF7D3FC001B1D
:100B3000022801D90320F8BD28688001F5D420E0FF
:100B40000128F8D0E868226A8107890F914216D1FE
:100B50007021626A0140914211D17F21A26A09028B
:100B60000140120291420AD11F214904E26A014068
:100B7000914204D1400F216B4007884201D00120EF
:100B8000F8BD0020F8BD0000001002400024F40071
:100B900010000020080000204010024000700040BB
:100BA00088130000FFFFFEEF8C80C11F03490A6815
:100BB00003235B029A4302430A607047000001402E
:100BC000094910B5401E884201D9012010BD074CCB
:100BD00060610321081F03F0EFF90020A0610720E6
:100BE0002061002010BD0000FFFFFF0000E000E0DA
:100BF00070B50125EE1E044600280DD0481C03D018
:100C0000204601F055F801E020680068002803D074
:100C1000A0600348046000E03546284670BD00002F
:100C20001800002010B5002904DB022A02D10020A0
:100C300001F054F8012010BD3EB50446406A0D464F
:100C4000002801D080470AE00020616800910190EF
:100C50000290024601462046236801F0D0FC294656
:100C6000204600F015F801203EBD10B50C680120AB
:100C70000023012C08D18C68102C01D0C01E03E089
:100C80004968012900D10223002A00D0136010BD59
:100C9000F3B5002585B0012408E0009405982B46A3
:100CA00002680021521E01F033FC6D1D059840685A
:100CB000A842F2DC14250226012200951E231146CB
:100CC00002960194059801F09AFC002700951E23D6
:100CD0001622012102970194059801F090FC0095DD
:100CE00001941E232B2201210294059801F087FC18
:100CF000009505230122252102960194059801F013
:100D00007EFC009505231622252102970194059863
:100D100001F075FC0095019405232B2225210294F6
:100D2000059801F06CFC009409230A2237210196F2
:100D3000059801F044FB009409231F2237210197F5
:100D4000059801F03CFB00940923342237210194DB
:100D5000059801F034FB0420009501901E23012228
:100D6000462103960294059801F0A4FC0420009506
:100D700001901E231622462103970294059801F044
:100D800099FC04200095019002941E232B224621F9
:100D90000394059801F08EFC3046072600950390D9
:100DA00014230122692101960294059801F082FC26
:100DB0000095142316226921039701960294059841
:100DC00001F078FC0095029414232B2269210196EE
:100DD0000394059801F06EFC012007B0F0BD0000FF
:100DE00030B589B0012100910A2101910168632485
:100DF000891E02914068E4431438039064200590F2
:100E00000790049469460694224801F013FF00F00D
:100E100043F822460546114601F01AFF29461D48AF
:100E200001F087FE00F038F800220546114601F077
:100E30000FFF2946174801F07CFE00F02DF805460B
:100E40004B22642101F004FF2946124801F071FE93
:100E50000121104801F0ABFE00F01EF84A210546C2
:100E60002246C94301F0F4FE29460A4801F021FF59
:100E700000F012F804461922322101F0E9FE214661
:100E8000044801F0F0FE0021024801F090FE01202C
:100E900009B030BDF00700200020094A01468B0050
:100EA000D358002B03D0491C1429F8DB7047044B9E
:100EB000182048435033C01801238900535070470D
:100EC0002008002010B5002904DB022A02D10020EE
:100ED00000F004FF012010BD10B500F09FF80021C4
:100EE000024801F064FE012010BD0000F007002060
:100EF000F7B582B00120484C00900D46E06A6A6860
:100F000000260146012A1AD1AA89FF271205120DCF
:100F10003C37D31BBA4229D009DC092A10D01B2A3E
:100F20000CD07F2A54D0FF3A3B2A6ED12CE0012B03
:100F300031D0022B21D0072B67D135E0022664E0A7
:100F4000002905D0029801F0DDFE012802D005E05D
:100F5000206A05E03049029801F037FEE06A4069F6
:100F6000E0620021029800F059F84EE000284CD0D1
:100F7000826841682848521C13E0002845D08268E6
:100F800041682548521E0CE000283ED04168826826
:100F90002148491E05E0002837D0416882681E4874
:100FA000491C01F00DFFDCE7FFF776FF07002CD0AE
:100FB0000021A26901F04CFEA8893946000B0428E3
:100FC000154802D001F04FFECBE701F072FEC8E7F2
:100FD0000F001AD03946104801F0A3FE0128C0D1F5
:100FE0000D4D00248035182060434019B84208D1C7
:100FF00018213846FFF7CDF807490020A20030310C
:101000008850641C142CEEDBABE70498002800D059
:101010000660009805B0F0BDF00700203EB504461C
:101020004068002101250090019502910A46204662
:10103000236801F0E4FA0920019500902368024634
:10104000012120469B1E01F075FA626801950A3A5B
:1010500000922368012120469B1E01F06BFA204676
:1010600000F00CF80449204601F078FE02492046C1
:1010700001F0ABFD01203EBDF0070020F1B58CB0C2
:10108000012000240290039006AD082000950694EC
:10109000302607940590049602AB234A23A10194BD
:1010A0000C9802F05BFE2448C16A002939D00C9AE2
:1010B000631E52680496093A0392202200924868FF
:1010C0000A2208A901F0C7FC074602AB164A08A984
:1010D000009501940C9802F041FE134E029930687D
:1010E00002AB784308180290324614A1009501948F
:1010F0000C9802F033FE02983168631E401802908B
:10110000202000900C480A22C06A08A9806801F0DB
:10111000A2FC02AB324608A9009501940C9802F09B
:101120001DFE0DB0F0BD000034DF0008466F637592
:101130007365642000000000F00700202C00000010
:1011400010B5044686B074210B48FFF722F8002042
:10115000029003902068049060680590072107487A
:101160000191009006A30A4A02A9034802F0F1F88F
:10117000012006B010BD0000500A002060000020D1
:101180004C69737420436F6D706F6E656E7473007D
:1011900064F1000810B5012A02D0022A27D029E004
:1011A0001548C06A030002F0F9FE0705080C101488
:1011B000181C25000021114816E010480021C01E0F
:1011C00012E00E480021401C0EE00C480021801C5B
:1011D0000AE000213F20000106E0FB2008A180007A
:1011E00002E006480021001D00F0DEFD02E00020C4
:1011F00000F074FD012010BD500A0020ED03000036
:101200005468697320697320612074657374206E5B
:101210006F746963652E000010B5024902F00EF983
:10122000012010BD500A0020F7B584B001200390C2
:1012300008680026012804D18868102802D0B01E52
:101240000390A7E0486801282CD188895A490505F0
:10125000FF2708462D0D3C378A6AEB1B1030574C90
:10126000C96ABD4221D00DDC7F2D4DD004DC0D2D8F
:1012700017D01B2D16D116E0FF3D393D7CD0012D36
:1012800010D167E0022B14D0072B50D04B4D4C4CA3
:10129000743D286800010119492B11D04B2B79D1DD
:1012A0001CE0012676E0022674E000296EDD491E6E
:1012B00003E0521E914269DA491C02F038F865E0F9
:1012C000CB6800220192009302928B684A682158F1
:1012D000049801F094F92878401C0CE0CB680022B7
:1012E0000192009302928B684A682158049801F099
:1012F00086F92878401E8007800F286000010119B8
:101300002D4802F0E5F841E000252B4802F081F875
:10131000142169430919814205D1142100204D434C
:101320002919086132E06D1C062DF1D32EE0002052
:101330001422424312191269002A03D0401C0628C5
:10134000F6D323E01422504304190A4621462CE028
:1013500020611BE00020142141430919096900297B
:1013600004D0401C0628F6D310E005E014214843C1
:1013700001190C46002218E00020142141430919EC
:10138000096900290DD0401C0628F6D30A490498A3
:1013900002F054F80698002800D00660039807B0C1
:1013A000F0BD1421484301190C46034802F01CF813
:1013B0000028CDD00120CBE7500A0020D00000202B
:1013C000B0EC000810B5024902F038F8012010BD59
:1013D000500A002000B585B0002001900290302016
:1013E00003903C20049054210648FEF7D2FE0820CA
:1013F0000090054B054A01A9024802F0A0F801201F
:1014000005B000BDC40A00206C01002034DF0008D4
:1014100010B5022A02D1002000F060FC012010BDAE
:101420003EB504460020616800910190029002469A
:1014300001462046236801F0E2F80349204602F005
:10144000D1F801203EBD0000C40A0020F7B50868AD
:101450000126002588B01746012867D18868102822
:1014600001D0AE1E62E0486801285FD18889324C05
:10147000030522681B0D1046103030490D2B07D094
:101480001B2B24D0FF3B3C3B3DD0022B4ED143E0F5
:1014900091421AD1D16A03AA01F0D7FC2748264B02
:1014A000543020600420009024488433244A03A947
:1014B000543002F044F8214903AA5431089802F04C
:1014C00060F82168089802F08DF801252EE01B488D
:1014D000904201D1022529E09368002B10DDD068ED
:1014E0000024019402940090506811680246089804
:1014F00001F085F810481049006884600F480860C2
:101500000D48016804E0D16A00290FDD491E09E099
:10151000089802F067F809E0D16A926A521E914277
:1015200004DA491C01F003FF2168F1E7002F00D025
:101530003D6030460BB0F0BD68010020C40A0020B9
:1015400034DF000810B50349096802F04BF80120A8
:1015500010BD00006801002010B504464121074875
:10156000FEF717FE0548014618390860002048605C
:101570000831204602F09CF8012010BD840B0020A9
:1015800010B5002904DB022A02D1002000F0A6FBDE
:10159000012010BD10B50446002910D040220B4890
:1015A000FEF702FE09490020403108700749002378
:1015B000074A1839204602F089F8012010BD402260
:1015C00004A10248FEF7F0FDF0E70000840B0020C4
:1015D00064F100084E6F20506172616D6574657230
:1015E0002E00000010B50C6801200023012C0AD148
:1015F0004C68012C07D189890905090D0D2901D0F5
:101600001B2900D10223002A00D0136010BD000066
:1016100010B50023024A034902F058F8012010BD1A
:1016200064F100086C0B002002680449921E8A6075
:1016300040680F38C8600120704700008002002019
:1016400010B5002907DB022A05D1002002F044FC76
:10165000002000F043FB012010BD00003EB5044611
:101660000A4802F029F96068002201216B4607C38D
:1016700011462046236800F0C2FF0449204602F0CC
:1016800055F9012002F028FC01203EBD8002002017
:10169000F8B51646074601244A680025E01E012ACF
:1016A00002D0022A18D109E08A68102A09D1888953
:1016B0000005000D1B280FD102250DE08A68102AB5
:1016C00001D0044608E0CA680649384602F0A0F88E
:1016D0000021384600F008F8002E00D03560204682
:1016E000F8BD000080020020F0B505468DB000274F
:1016F000406801266A46C1C23A46394628462B68E8
:1017000000F07DFF0396049628680197801E0590DF
:10171000082007AC06900797089703AB174A18A153
:101720000094284602F01AFB20200090184803215C
:10173000006949024118496804238900091F40587B
:101740000A2209A901F087F90396686803AB801F94
:10175000049028680197801E059005200690079741
:1017600008970C4A09A90094284602F0F7FA08499C
:10177000284602F0DBF801200DB0F0BD34DF000890
:101780005265616C74696D652067726170680000F4
:101790008002002018DF000810B5002904DB022AAF
:1017A00002D1002000F09AFA012010BD3EB5044697
:1017B000406A0D46002801D080470AE00020616899
:1017C000009101900290024601462046236800F0F5
:1017D00016FF2946204600F015F801203EBD10B541
:1017E0000C6801200023012C08D18C68102C01D03A
:1017F000C01E03E04968012900D10223002A00D05D
:10180000136010BDF3B589B00126002402963E2571
:1018100029480694039604950794806806AF401CF7
:101820000097059002AB244A24A10194099802F084
:1018300095FA05990398049540180390234802AB44
:1018400080680097401C0590204A21A101940998C6
:1018500002F084FA059903980495401803902148F2
:1018600002AB80680097401C089005901D4A1EA19D
:101870000196099802F072FA0599039800974018AA
:10188000039008980495059002AB1A4A1AA1019496
:10189000099802F063FA00944020049502AB059584
:1018A000019441C3134A19A1083B099802F0D6F9E3
:1018B00001200BB0F0BD000018DF0008312B322BE7
:1018C000382F342A353D31330000000034DF000862
:1018D00048656C6C6F2053696D706C652047554985
:1018E0002E00000050DF000857656C636F6D6521A6
:1018F0000000000064F100084920646F6E27742026
:101900006C696B6520746869732E00004D756C748A
:10191000696C696E652064656D6F207465787420EC
:10192000776974682031322D706978656C20666F34
:101930006E742E00F0B589B0044604200390049024
:1019400000250C200E46079508950690002C2BD0FC
:10195000206801270838059060680090019702957B
:10196000002211462046236800F049FE60680221EB
:10197000001F01970291009023680A4620461B1F12
:1019800000F03DFE1120024600907C2303210197C8
:10199000204600F0CFFD07A8009003AB034A314674
:1019A0000195204602F0DAF909B0F0BD64F10008B3
:1019B00030B5044618498FB00020C8600120694640
:1019C00008773120C0430490642005901A21134801
:1019D0000C250191009506902168183902918068C4
:1019E000039069460E4801F0BFFE0E482A21089573
:1019F00009910C902168084A18390A9180680B9067
:101A000014200D900648103208A9243002F0C5F8C1
:101A100001200FB030BD0000D802002034DF0008E4
:101A2000D011002050DF000810B5002907DB022A82
:101A300005D1044905208860002000F04FF90120FD
:101A400010BD0000D802002010B50F4A044686B031
:101A50000C480190506811460090253120461160D5
:101A6000FFF768FF204602A901F022FE0023074A83
:101A70006946204601F02AFE012000F073FB012098
:101A800006B010BD7CEC0008D802002034DF00084E
:101A9000F7B586B0012004900020644B039098684D
:101AA00000281FDD0A68012A02D0022A0BD093E029
:101AB0004868012815D188890005000D202810D11B
:101AC0000020986005E0496803290AD1401E98600B
:101AD00007D10021069800F0ADF80490002000F036
:101AE00041FB79E04868012876D18889504D04058A
:101AF0004E48FF26C2686869240D3B368646A71B00
:101B0000E969A869B44232D006DC092C11D00D2C49
:101B100060D01B2C60D127E0454B243B1C695E69DB
:101B2000A4461C6A012F29D0022F3AD0032F53D18B
:101B30003EE0521CD00F801840084000101AD860B8
:101B400006D03B4900222439069801F01CFE3FE0F4
:101B5000374901222439069801F015FE0022344944
:101B6000069802F02BF837E00220039034E0012AB7
:101B700032D17146401E18E0A86129E0012A01D047
:101B8000641C18E00A5C7E2A02D0521C0A541FE032
:101B90002022FBE7264901222439069801F0F3FDB3
:101BA0001AE0012A18D17146401C8842E4D30FE0A4
:101BB000012A06D0641EB442ECDC6445EADB1C62F8
:101BC000E8E70A5C202A01D0521EDFE77E22DDE72B
:101BD0000122C4E7012A08D00898002802D00899F9
:101BE00003980860049809B0F0BD19600698FFF7E3
:101BF000A1FE01250C2000240195009068231822E5
:101C00000A210294069800F0FAFC094900222439BE
:101C1000069801F0B8FD1020019500906823282255
:101C20000A210294069800F0EAFCD1E7D8020020CD
:101C3000F4110020FEB51C4C07462168FFF77AFE20
:101C40001A490025CA680126121D009201960295C4
:101C50008B6818220A2138461B1D00F0D0FCE06872
:101C6000002817D000221149384601F08CFD0F489A
:101C700028222430C1680196091D009102958368CD
:101C80000A2138461B1D00F0BAFCE068002803D08A
:101C9000012202E00122E6E700220449384624310D
:101CA00001F08CFF0120FEBDD8020020D0110020E1
:101CB00070B500231A4600280BD04468944208DD12
:101CC00005689600AD592D688D4204D100689100D9
:101CD0004358184670BD521CF0E70000F0B40D4A9E
:101CE000014601201368C41E002B0FD09D680026FA
:101CF000AA68AE60002A09D09A605268002A06D00D
:101D00005268002A03D0D868F0BC10472046F0BCC7
:101D10007047000018000020F8B5134D0146012659
:101D20002868F64300281BD08468002C1AD062680B
:101D3000002A17D0D368002B14D0C0686A46984791
:101D40000146626828681369C068009A9847064689
:101D50002868C068002803D0006B002800D08047A6
:101D60003046F8BD3146ECE71800002070B50D4D47
:101D7000014628680124002810D08268002A0FD06C
:101D80005268002A0CD05268002A09D0C0689047D7
:101D900004462868C068006B804701E00124E443E2
:101DA000204670BD18000020F8B50F46104D0146C2
:101DB00001242868E61E002808D0FFF779FF0028D4
:101DC00004D08168002903D0241F0FE034460DE0C1
:101DD00029688A68826088604068002806D0426866
:101DE000002A03D0C8683946904704462046F8BD0B
:101DF00018000020FEE70000F8B538212348FEF760
:101E0000C8F9224800268663C66306640446466411
:101E100080231F492360A162402060601D49E16268
:101E20001D4961621D49216321464831A161C100FC
:101E3000E161002200901146204600F0B2FD2546E7
:101E4000082038356860EC60154828600024286850
:101E5000A700C05900280AD04068002807D00168B0
:101E6000002904D0094888472868C05986606868F6
:101E7000641CA042EBDC05480A493830FEF7B8FE86
:101E8000002802DB0020FFF771FFF8BD14120020CC
:101E90000D2200087D21000869210008B5210008F5
:101EA00030030020EB030000012903D102494880E0
:101EB000012008707047000050030020024800789D
:101EC000002800D001207047500300200248002164
:101ED000418001707047000050030020F8B54A4E61
:101EE00020213046FEF7EAFA484C002812D0402163
:101EF0003046FEF7E3FA00280CD080213046FEF78A
:101F0000DDFA002806D0FF2101313046FEF7D6FA6F
:101F100000282CD10125257020213046FEF7CEFA6D
:101F2000002812D040213046FEF7C8FA00280ED013
:101F300080213046FEF7C2FA00280FD02902304631
:101F4000FEF7BCFA002810D011E025700FE0607891
:101F5000FF2801D2401C6070022007E06078FF2853
:101F600001D2401C6070032000E004202070207823
:101F7000FF2700253C37012814D0022820D07F1CE1
:101F800003282DD004280CD181013046FEF796FAA3
:101F9000002806D06570257001210D20FFF784FF11
:101FA0003846F8BD20213046FEF788FA0028F8D0E0
:101FB0006570257001213846FFF776FF0D20F8BDCA
:101FC00040213046FEF77AFA002802D0657025706D
:101FD00002E060780A28F2D90121FF203E30DDE7D7
:101FE00080213046FEF76AFA002802D0657025701D
:101FF00002E060780A28E2D901213846FFF754FF51
:10200000FF203E30F8BD000000040050000000201A
:1020100000B587B014216846FEF7BBF80D48426B47
:1020200001210A434263426B0A400592436B02223C
:1020300013434363406B029110400590FF20E13051
:1020400000900020019069460348FEF789F907B027
:1020500000BD00000010024000040050FEE710B573
:10206000002000F001F810BD70B50646002420469F
:10207000B030C0B201F084FF002001F081FF1020D9
:1020800001F07EFF0025304601F081FF6D1CEDB2AE
:10209000802DF8D3641CE4B2082CE8D370BD10B5D1
:1020A00001F0D4FF7D20C000FEF748F9AE2001F01A
:1020B00067FF202001F064FF102001F061FFB020D5
:1020C00001F05EFFC82001F05BFF002001F058FF27
:1020D000102001F055FF402001F052FF812001F057
:1020E0004FFFFF2001F04CFFA12001F049FFA62087
:1020F00001F046FFA82001F043FF3F2001F040FF20
:10210000A42001F03DFFD32001F03AFF002001F0B0
:1021100037FFD52001F034FFF02001F031FFD92046
:1021200001F02EFF222001F02BFFDA2001F028FF22
:10213000122001F025FFDB2001F022FF202001F01A
:102140001FFF8D2001F01CFF142001F019FFAF20AC
:1021500001F016FF3220FEF7F1F80020FFF784FFB0
:1021600010BD70477047000010B5034802F0DEF85C
:10217000FFF775FF10BD000058030020802814DA17
:10218000402912DA0A4A00018218C817400F401885
:10219000C3105B00D218C008C000091A12890120C0
:1021A0008840024201D001207047002070470000A3
:1021B0005C140020F8B5144CE0887F2801D97F20FA
:1021C000E080A088072801D90720A08025780FE0AB
:1021D000A6786F0007E030010019C019007A01F0FD
:1021E000D6FE761CF6B2E088B042F4D26D1CEDB299
:1021F000A088A842ECD2072020800020A0807F2168
:102200006180E080F8BD00005C14002070B580287B
:102210002DDA40292BDACB175B0F5B185B051D0EFF
:10222000144BC4B21E88AE4200D91D809E88AE42B7
:1022300000D29D805D88A54200D95C80DD88A542E2
:1022400000D2DC80CC17640F6418E508ED00012390
:10225000491B8B40074900014018E1104900411813
:10226000084608300989012A02D09943018070BDCF
:102270001943FBE75C140020FFB589B009980C46B0
:10228000096800681E4681427EDA099A60685268D1
:10229000904279DAA2688918491E002974DDE16844
:1022A0004018401E00286FDD20460B9900F0B6FB59
:1022B0000B9831680068002800DC091800297CDDD3
:1022C0000B994968002901DD716801E072685118B5
:1022D000002972DD002127680391002802DDC7195B
:1022E000084601E040420390059058E0B268039927
:1022F00000255218616801910B994968002903DD96
:10230000019BC918019100E04D42E917490F491995
:10231000CB08DB00EB1AC9104143881808930490DE
:1023200025E00898082801D0049805E000200890CE
:1023300031680498081804900899007801228A40AE
:10234000104201D0012100E000211298814201D009
:10235000012300E000233946019A099800F037F97B
:102360000898401C08900198401C6D1C01907068F2
:10237000A8420DDD6168E06808180199401E884296
:1023800006DB0998416800E017E001988142C8DC4B
:102390000598401C05900398401C7F1C03903068F2
:1023A0000599884209DDA26821688918491EB94249
:1023B00003DB09990968B94298DC0DB0F0BDFFB59F
:1023C0008FB00025129C0123681E62009F1A0146EF
:1023D0002E460793012C7EDA0FAC07CC189B00F039
:1023E000F6F813B0F0BDA04201D1A94274D0129901
:1023F000012920DD199902291DD0A0421BD0119876
:102400004019401E0B90019100901098011B1198EB
:102410000B46421B0A92521C0F9800F08BF8199938
:102420000B980090019110980A9A01190B46521CC2
:102430000F9800F07FF8119919980A190D92521E01
:102440000B92019010980092411B11980891021B69
:102450000C920B46521C0F9800F06CF8199A0B98CE
:102460000192009010980C9A411909910B46521C48
:102470000F9800F05FF81198189B421910980A9273
:10248000011905910F9800F0A2F810980A9A011B03
:102490000191189B0F9800F09AF81198189B421B15
:1024A0000A9201990F9800F092F8189B0A9A0599E0
:1024B0000F9800F08CF8189B0D9A09990F9800F06E
:1024C00086F8189B0D9A08990F9800F080F8189BD1
:1024D0000C9A089901E017E00AE00F9800F077F8ED
:1024E000189B0C9A09990F9800F071F8294620461C
:1024F000079A6D1CB618921C07927200D219002A16
:1025000002DDF619641EBF1CAC4200DB6BE768E716
:10251000FFB581B01E4615460C460A9F06E03B46B5
:1025200032462146019800F052F8641CAC42F6DDB8
:1025300005B0F0BDFFB587B0002410985E1A851A6B
:10254000601E2746049400920191002E01DD0121B6
:1025500008E0002E05D076420390002D04DD012016
:102560000BE000210391F8E7002D05D06D420290A9
:10257000AE4204DD344603E000200290F8E72C462A
:1025800000200590601C069005981BE0119B009AA6
:102590000199079800F01BF8049880190490A04254
:1025A00005DD001B049003990198401801907F19E4
:1025B000A74204DD029900983F1B4018009005983F
:1025C000401C059006998842E0DD0BB0F0BDF8B5DF
:1025D00005461C4616460F46083000F0CDF9002887
:1025E0000AD0AB6A002B07D0012C06D0002C03D1F7
:1025F0000022314638469847F8BD0122F9E7FFB579
:1026000083B006980C9E0D9D174600283BDD002EDA
:1026100039DDB9190191012837D0049900950C18BA
:10262000012E41D0621E3B460398FFF771FF019BCC
:102630000095621E5B1E04990398FFF769FF019BDA
:1026400000957A1C9B1E0499039800F045F9019BA4
:102650000095611E7A1C9B1E039800F03DF90E98B0
:10266000022810D0069802280DDD022E0BDD0E98F0
:1026700001900499069BB61E00967A1C491C9B1E6D
:10268000039800F03BF907B0F0BD012E06D04B1EB9
:1026900000950499039800F01FF9F4E72B4604997C
:1026A0000398FFF794FFEEE7621E3B460398FFF79F
:1026B0002FFFE8E7FFB595B00025681E1F9E069026
:1026C0000590700001210F90081A0A910B9018993B
:1026D0000F9834462F4688427EDA1E9988427BDA6C
:1026E0002099179801910090189916984018831B0B
:1026F0000793109016985B1E81190891179A1598E8
:10270000FFF718FF1E991798209B42180E92521E31
:10271000019300920E9A079B521E5B1E0899159812
:10272000FFF708FF0E9A901B0190179880190490EC
:10273000A6E00598A04202D10698A8427ED0219832
:1027400002281FD0AC420BD000900498431B07987E
:1027500002190898921E011B491C1598FFF7D8FE14
:10276000B4420FD00598A0420CD021980090049854
:10277000031B079842190898921E411B491C159883
:10278000FFF7C6FE0498421B08980E92011B0C919D
:10279000209B1598FFF71BFF0498021B08981192C5
:1027A000411B0D91209B1598FFF711FF07980E9A7A
:1027B00001191291491E209B1598FFF708FF0798F1
:1027C000119A41191391491E209B1598FFF7FFFE9E
:1027D000219802281FD000E07CE0AC420AD0009093
:1027E00001980C994319129A491C921E5B1E159868
:1027F000FFF78EFEB4420ED00598A0420BD0219870
:10280000009001980D990319139A491C921E5B1EA2
:102810001598FFF77DFE0198209B42190692521EE3
:102820000C991598FFF7D3FE01980D9902190C9297
:10283000521E209B1598FFF7CAFE00E011E0129986
:10284000069A491E521E209B1598FFF7C0FE139949
:102850000C9A491E521E209B1598FFF7B8FE06954C
:1028600005940A986D1C3F18801C0A900B987900FB
:102870000818002804DD0B983F18801C641E0B907C
:10288000AC4200DB55E7019C2098169B641E01902A
:1028900000941946049A1598FFF74CFE2098019071
:1028A000109B0094591E5B1E049A1598FFF742FE78
:1028B000219802280ED01E9A0F99189B511A891E32
:1028C00000911699049A0190491C521C9B1E159860
:1028D00000F014F819B0F0BDFFB581B01D460F46E9
:1028E00014460A9E06E03346224639460198FFF711
:1028F0006EFE641CAC42F6DD05B0F0BDFFB581B0E4
:102900000B9F0A98022F11D003990E180299CD1827
:1029100083420DDD039C07E06A1E2346009702995F
:102920000198FFF7F5FD641CA642F5DC05B0F0BD8B
:102930000C4607E0731E00972146039A0198FFF7A3
:10294000CBFF641CA542F5DCF0E770B500240B4614
:1029500000280FD0016899420CDD4168914209DDE1
:10296000816A002906D0C56A11461846A847002882
:1029700000D00124204670BD10B503688B420CDCEA
:1029800084681B195B1E8B4207DB4168914204DCA3
:10299000C0680818401E904201DA002010BD0120D6
:1029A00010BD30B5039D456103610024C2608160A4
:1029B000002902DA591A84600161002A02DAA91A90
:1029C000C46041610169002900DA0461416900299C
:1029D00000DA446130BDFFB581B0002717E0002662
:1029E00011E00398821902981546C1190C46019806
:1029F000FFF7ABFF01282A4621460DD0012301989D
:102A0000FFF7E5FD761C0A988642EADB7F1C0498F6
:102A10008742E4DB05B0F0BD0023F0E710B50028E5
:102A200018D0002916D003680022002B07DA0C68A2
:102A3000E3180B60046883681B19836002604368B5
:102A4000002B07DA4C68E3184B604368C1684260AA
:102A5000C918C16010BDFFB585B000216D46009159
:102A6000019102912E46E9720A351F460C46002854
:102A700006DA0799102903D00121404203910DE0A5
:102A8000002103910AE00799FDF72EFB0A2901D2E4
:102A9000303100E037312970641C6D1E0028F2D1FE
:102AA00003986946002803D02D202870641C05E097
:102AB0006D1C03E0287830706D1C761C301B88423A
:102AC000F8D1002C03D130204E1C087001240022C4
:102AD0003270002F14DD0B195B1EBC4200DC3C463B
:102AE0000698001906E08B4203D31A7802705B1E29
:102AF00001E00E9A0270069A401E9042F3D215E051
:102B00007842844201DD204600E004466B46069987
:102B100009E01D78002D02D00D705B1C01E00E9DB8
:102B20000D70401E491C0028F3DC0A70204609B0D5
:102B3000F0BD10B504000FD000290DD0A06A002808
:102B40000BD0606A4161606A08602046616200F0F3
:102B500006F8A06A401CA06210BD2162F5E770B5BE
:102B60000D46040022D0002D20D0616920696A68DA
:102B7000091A101AA268521E5043FDF7CBFAE860FA
:102B80000646E169A069AA68091A101AE268521E8D
:102B90005043FDF7BFFA286121687118E960E168C8
:102BA000081A401E286161684018286170BD0246FD
:102BB0000020002A08D0106A01E04069491E00295F
:102BC00001DD0028F9D1D0627047F8B50D46864680
:102BD00000282ED0002D2CD0E86A002829D00269C8
:102BE000C16805232F68891E921E1C46B94202DC6B
:102BF000781A231A3946A868CE18B4463F18781EAA
:102C0000761E864202DB6046C01B1B1A6E68B2420B
:102C100002DCB01A241A3246ED6817197519781EAD
:102C20006E1EB04201DB781B241A70460094FFF739
:102C3000D2FEF8BD10B5040009D0002907D020222B
:102C4000FDF78EFA002020626062A062E06210BD93
:102C500070B515460E46040004D01821FDF799FA08
:102C60006660A56070BD10B5040007D0002905D0CE
:102C7000E26A002A03D0606A904201D1002010BDB0
:102C80004B685068834200DA486050694B6840687E
:102C9000834200DD48605069016050690A60486104
:102CA00020465161FFF75BFFA06A401CA062012033
:102CB00010BD10B5040007D0002905D0E26A002A33
:102CC00003D0206A904201D1002010BD4B685068AB
:102CD000834201DC184600E0486013685B68984254
:102CE00002DA5069406848601068416110684A61C2
:102CF000086020461160FFF732FFA06A401CA06206
:102D0000012010BD10B5002807D0002905D00A69A0
:102D1000C968FFF71AFE002801D0002010BD01206D
:102D200010BD002818D0002916D0826A022A13D9B3
:102D30004A69002A01D00B6813600A68002A01D092
:102D40004B695361C26A8A4201D10021C162816A22
:102D5000491E81620120704700207047FEB50D4674
:102D600007002CD0002D2AD0E968002001900290A5
:102D700000910ECD38460C3DFFF741FCA86A0128B2
:102D80001DD92C6A18E028462269E168FFF7F4FD96
:102D9000002806D128462269E168FFF7EDFD0028EA
:102DA00009D03069012100900191F3683846226909
:102DB000E168FFF7BFFB64696669002EE3D1FEBDE1
:102DC00070B50024002826D0C36A002B23D0046AE3
:102DD000A34202D0456AAB4201D159680DE01C689C
:102DE000002C1AD064688C4200DD21465C69002CFE
:102DF00015D064688C4200DA21468469944200DD73
:102E00002246C469944200DA22469A605960194603
:102E1000FFF7A5FE0124204670BD0469E3E744697D
:102E2000E8E74269016B914204D1806B002801D030
:102E300000207047012070470269816A914202D1E7
:102E4000806B002800D00120704770B51546040043
:102E500040D000293EDBA06988423BDD002D39D0FF
:102E600020682860A068A860606A884202DCE26A84
:102E70008A4202DA002068603AE0A16B226A0029E7
:102E800009D0A36A9A4226D160686860E06BA16BA2
:102E9000806840182BE0236B9A421CD1E06B616B79
:102EA0008068491E801C4843616840186860A06BB8
:102EB0000028E06B816804D0891CE960002905D0F6
:102EC00007E0891CE068FDF725F9F6E7E06B81680B
:102ED000891CE96070BDE269101AE26B9268921C6D
:102EE00050436268801840186860E06B8068801CFE
:102EF000E86070BDF8B5069E1D46040031D0002A7A
:102F00002FD0E2639446C8688CC9E0608CC46246E6
:102F10009168401E891C0C3CFDF7FCF80021401C08
:102F2000A661A1636063002E1CDD2561A9602846AF
:102F30000122E96006E013015B19D9609860C36063
:102F40001846521CB242F6DBE161606120692062E2
:102F50006162A062616B4A1E491EE26200F065F880
:102F60002063F8BD216100206161C0432162E061FE
:102F7000F8BD30B50C460346150053D49869A842F5
:102F800050DB0020E060A0609969A9422EDD114667
:102F9000186900F04AF8E0608168A1608168002942
:102FA00000D0CC608460D969A94201DB491CD96199
:102FB0001969814200D11C61586AA84204DD401C95
:102FC0005862D86A401C2BE0D96AA9421DDBA8428E
:102FD00000D19C62186B002801D0806814E09869C9
:102FE000596B401C814210D158690DE019690029C4
:102FF0000FD05869C4605869A0605C619869596BCA
:10300000401C814201D1E06818639869401C9861B6
:1030100009E01C615C6158629C621863586B401E39
:10302000D862F2E70024204630BD00280AD00A1EEC
:103030000BDAD143491C01E08068491E002901DDFB
:103040000028F9D17047C068491E0029FADD002820
:10305000F9D1704730B503460C460069FFF7E5FF2C
:10306000002843D09969491E99611969814201D1AB
:10307000C16819615969814201D181685961C1688A
:10308000002901D082688A608168002901D0C26865
:10309000CA605A6AA24226DCD96AA14223DB1C6AB2
:1030A000844209D1C468002C01D01C6204E0846809
:1030B0001C62DC69641EDC619C6A844201D1E468A4
:1030C0009C6225000FD01C6B002C0CD0E468002CF7
:1030D00008D1AD68002D05D0521E9D62491E5A626E
:1030E000D96200E01C630021C160816030BDF3B58E
:1030F00089B0012609980C460796002874D0002C48
:1031000072D0616BA0690025884208DAE0680090FF
:10311000019502950ECC0C3C0998FFF770FAA06956
:10312000002861DDE169002902DAE5612169216297
:10313000E169814203DB401EE06160692062E16970
:10314000606A81420CDA206A6162A062616B491E8A
:10315000FFF76BFF2063616B606A4018401EE062FE
:10316000E169E06A81420CDD206AE1622063616B03
:10317000711AFFF75AFFA062616BE06A401A401CA7
:1031800060622068039060680490A0680590616A9E
:10319000E069884206D0216B002903D0E16A8842A9
:1031A00011D003E0A563606B012802DDE06B80684D
:1031B00018E0E0680690A06BA56A401C089069685A
:1031C000002912D012E0E56BE068A9680F46891C5F
:1031D000FCF7A0FFC81BB91C801EFCF79BFFA16376
:1031E000A8684018801CE5E73DE02968206AA842ED
:1031F00001D1012000E0002007AF0190009703AB50
:10320000E26B099800F0AAFDE06BED688068801C15
:103210000690606B012826DDE16B049889684118EF
:10322000A06B0896801C0818049017E069680029B4
:1032300000D12968206AA84201D1012000E00020C5
:103240000190009703ABE26B099800F087FDE16BFA
:10325000049889684018801C0490ED68206BA8428F
:1032600003D0002DE2D10BB0F0BD002DFBD0A06B40
:103270000028E06B816809D0891C069100290AD0DA
:10328000084606906968002909D009E0891CE068B1
:10329000FCF740FFF1E7E06B8068801CF1E72968EC
:1032A000206AA84201D1012000E00020019000978F
:1032B00003ABE26B099800F051FDD4E770B504460A
:1032C000C8682CC9E0602CC4216B401E89680C3C86
:1032D000891CFCF71FFF401C6063A1690023884222
:1032E00006DD216963622363401EA162E0621CE087
:1032F000A26A411E1046FFF798FE2063002805D001
:10330000616B606A4018401EE06270BD60692063B6
:10331000A1690122491EE162616B511AFFF785FE26
:10332000A062616BA069401A6062A36370BD10B5B2
:103330000346C0690C46091A06D0186AFFF775FEE5
:103340001862002801D0DC6110BD0020C043D861A4
:1033500010BDF0B58BB0002504460195029503958C
:103360000495C1C9096823652267E160C1C4801C56
:103370000C3C0190A06809380390206D002824D0EF
:10338000029891684018001D0290E0689168401A08
:10339000401F049011980090204601A91030109B06
:1033A000FFF7A8FD08A80572A16920694018401C14
:1033B00005906069069005200790E0690890A16A71
:1033C000606C814207DD081A06E06068801C02908C
:1033D000E068001FDDE700200990204605A9543071
:1033E00000F06CFB0BB0F0BD70B504461030FFF779
:1033F000C0FD0546A16A606C814201DD081A00E04B
:103400000020606620465430616B00F0BDFB28460A
:1034100070BD70B504461030FFF71CFE0546A16A6A
:10342000606C814201DD081A00E0002060662046E1
:103430005430616B00F0A8FB284670BDF0B589B030
:103440000C00074642D0E068002501260090019656
:1034500002950ECC38460C3CFFF7D1F8206D0028C1
:1034600025D0206805AB801C05906068801C069004
:10347000A068001F0790206F80680395089003A83C
:103480000090049501953846226F216D00F066FC8E
:10349000216F6068896801964218D01C00902168ED
:1034A000A068D21C0B1838465B1EFFF743F8214674
:1034B00010313846FFF71BFE20465430616B04463E
:1034C00000F062FB2146384600F007FB09B0F0BD72
:1034D0001FB50446002000900190029003900DC992
:1034E0000968E1600DC4801C0C3C0090A06809389C
:1034F0000290206D00281CD0216F01988968401827
:10350000001D0190216FE0688968401A401F0390F8
:10351000204669461030FFF7D1FEA16920694018A6
:10352000401C60656069A0650520E065E069206673
:103530001FBD6068801C0190E068001FE7E7F0B5E0
:1035400085B00A9D00281AD0002A18D0D0C9096871
:103550000265C16000210162D0C0641C0C38019476
:103560004168091D02918168891E0391C168009517
:1035700008390491026D01A91030FFF7BBFC05B0BA
:10358000F0BD7FB50D002BD0AC6A002C28DD296D75
:1035900093688968891C4C4311680834C9180091E4
:1035A000416850680B1A5B1EA3420CDACE0F7118EB
:1035B0004910884207DDD16843185B1C181B401E68
:1035C000019001D5002001909068801C02909C42DF
:1035D00001DD039300E003946946284600F04AF8B1
:1035E0007FBD0000F0B5002589B00C460746079561
:1035F000089500293AD0E06801216A4623C20ECC22
:1036000038460C3CFEF7FBFF214610310E4638468B
:10361000FFF76DFD0520059003200690A068216846
:10362000401FC20F10184010081803903046FFF7D3
:1036300003FC002809D060680D4B401C049007AAC9
:1036400003A900953846FEF717FE3046FFF7E9FB61
:1036500000280BD0E1696069054B401804900C33D9
:1036600007AA03A900953846FEF706FE09B0F0BD8B
:1036700090EC00081FB5002819D0002917D00A685F
:1036800002604A6842608A688260CA68C2600A68EA
:103690001030521C00924A68121D01928A68921ED4
:1036A0000292C968083903916946FFF707FE1FBDFA
:1036B00000280AD0002908D005220A604A60026862
:1036C0000A3A8A6040680A38C8607047FFB58DB012
:1036D0001E4617460C003ED0216800293BD0606989
:1036E000002501216A4623C2214608310EC90D98E2
:1036F000FEF785FFE068801C06906069001F089057
:103700006068002829D0A168006803AA0818001D75
:103710000590616820690968401A801F0790A068B9
:1037200009A9801C0990E068801C0A906068006804
:103730000B906068406803950C9004950095636851
:103740000D98FEF799FD0096019505AB3A46216864
:103750000D9800F083FA11B0F0BDA068801C0590B0
:103760002069001F0790EEE770B50C46050009D0F0
:10377000002C07D02421FCF70CFD202221462846EE
:10378000FCF7EEFC70BDF0B500258BB016460C467C
:103790000746059506950795002A01D0012000E00F
:1037A0000020002C26D0E1680190029000910ECC00
:1037B00038460C3CFEF723FF202000900023DB431B
:1037C0000A2205A9206AFFF746F903AA05A8A169FC
:1037D00000F051FB207F00280ED0012810D0089562
:1037E00008A8009001960995234605A93846A269C4
:1037F00000F0B4FA0BB0F0BDA0680399401A05E0E0
:10380000A0680399401AC10F081840100890E7E714
:10381000F8B59446080033D0032103690025490216
:103820005E1847690EE0A900CC1862685A50E11D85
:10383000FF31FA314A680A600121890261184A6839
:103840006D1C0A607168491EA942ECDC7168624611
:103850004C1E8900091F5A503A6861468A4200DAB4
:1038600011467A688A4200DD1146A200D41801226E
:103870005202115100F006F8012189026118086016
:10388000F8BD000070B504000A4812D06269E5680E
:103890001068884200DA01465068884200DD01461F
:1038A000081A68431169FCF735FC281A6168401E44
:1038B000081870BDFFFFFFFFF8B5050035D0696936
:1038C0002E6905C90839904204DA50404240504000
:1038D00005C10839C868022801DA0220C8600868F2
:1038E000821A521C0A6103225202B41822688242D0
:1038F00000DD206022684868824200DA2060A86803
:10390000C968801EFCF706FC002760600AE02846B4
:103910002168FFF7B7FFB9008A1901218902511800
:103920007F1C08606068B842F1DCF8BDF3B583B075
:103930000C004AD00398002847D021460C31C2C958
:10394000012000220190029200910ECC0C3C0398C1
:10395000FEF755FE0325B8686D0201280ED17019D7
:1039600001682046FFF78EFF024601200190039870
:103970000092036801219B1EFEF7DCFD7019029086
:103980004068012821DD01251BE0F868691E024618
:103990004A432168684343185218521C9446012137
:1039A000A80080198A028218126801910721C901B2
:1039B00040180092C26F61465B1C0398FEF7BAFD87
:1039C0006D1C02984068A842DFDC05B0F0BD0146DE
:1039D00000200A46C0431A3A652A00D2901F704759
:1039E000014600B520390B0000F0D8FA1E2026262B
:1039F00026262226261C1E18142616121A1010100F
:103A0000101010101010102626262426303800BD65
:103A10000A2000BD0B2000BD0C2000BD0D2000BD04
:103A20000E2000BD0F2000BD102000BD112000BDE4
:103A3000122000BD132000BD0020C04300BD0000C7
:103A400010B5074C2318002908D0002004E01C788A
:103A50000C70401C491C5B1C9042F8D310BD000048
:103A6000F6E1000810B5074C2318002908D0002003
:103A700004E01C780C70401C491C5B1C9042F8D37D
:103A800010BD0000BCDF000810B5074C231800294A
:103A900008D0002004E01C780C70401C491C5B1C02
:103AA0009042F8D310BD00006CDF00080020704782
:103AB000002802D00278401C0A60704770B50C469E
:103AC000050009D0002C07D01C21FCF762FB18224E
:103AD00021462846FCF744FB70BDFEB50C46074660
:103AE000097DE06800292ED0851E022843DDA368E9
:103AF000022B40DD98423ED0A26921698A4200D95A
:103B0000A1610021012600900196029106CC384661
:103B1000083CFEF774FD207D2169002816D000299D
:103B20002AD0A068A269401B801E5043FCF7DCFA33
:103B30002168401C019602960095411862682B4648
:103B40003846521C15E0A568AD1ECEE7002913D0FB
:103B5000E068A269401B801E5043FCF7C5FA61680B
:103B6000401C421801960296009521682B46384663
:103B7000491CFEF744FDFEBD01960296009506CC59
:103B80002B463846491CDCE7002803D002698A42EC
:103B900001D2826170478161704770B516460D464B
:103BA00004000AD0002D08D02021FCF7F2FA1822D8
:103BB00029462046FCF7D4FAE66170BDF7B586B019
:103BC00008980C46002800D00120002C44D0E16960
:103BD000002941D0E1680190029000910ECC0C3C8C
:103BE0000698FEF70CFD2069666901880089761E3B
:103BF00087B2E0698DB2002801D0FCF7E2FA626971
:103C00000021824205D2E0698154A069B04200D906
:103C1000A66103910491A069216868430E18606849
:103C20000290A3687019C918421E4B1E9A4202DD09
:103C3000081A3618039003A80899019100902346AA
:103C40002269E169069800F089F82B460097314611
:103C5000029A0698FEF7BFFE09B0F0BDFFB58FB01F
:103C60001C460020199B189A0D4606460890002B0A
:103C700001D0012700E00027002D6CD00F9B2168A8
:103C80001B68994267DA002003A905C1204608395C
:103C9000FEF7C4FE03980D90E0680090019702972C
:103CA0000ECC0C3C0F98FEF7AAFC119801268068F8
:103CB00006900F988069079048E0002008901198BE
:103CC00008A9426928469047054608980A2807D05F
:103CD000119989698847002811980AD0406809E03D
:103CE0000D9803901198049980680818761C049028
:103CF0002CE000680590059903984018A168401EC3
:103D0000884207DB0D980390119804998068081881
:103D1000761C0490059903984018012812D4049841
:103D2000E16888420EDA0F980899C3698269119890
:103D300000F072F81998009005AB03AA21460F987D
:103D4000FEF79AFA0599039840180390002D02D0C7
:103D500028780028B1D1304613B0F0BDFFB58DB042
:103D600017981C4616460D46002801D0012700E092
:103D70000027002D4ED00D9920680968884249DA45
:103D800018461699FEF74AFEE068009001970297E0
:103D90000ECC0C3C0D98FEF732FC1698006804908F
:103DA000169840680590B06808900D988069099051
:103DB00029E000200390726903A928469047054630
:103DC000B16903988847002801D0706800E0306826
:103DD000079007990498401801280ED40D9803996C
:103DE000C3698269304600F017F81798009007AB56
:103DF00004AA21460D98FEF73FFA07990498401847
:103E00000490002D06D02878002803D00498A168DB
:103E10008842CEDB11B0F0BDFFB5002681B01F4651
:103E20000446002824D00398002821D0002F1FD05A
:103E3000E168029888470546401C19D0A068401EDA
:103E4000C117490F0818C6102068761C4643A1699F
:103E500002988847002801D0720000E03246BA423A
:103E600000D93A4628462369704303999847064685
:103E7000304605B0F0BDF8B514460D4606001CD01E
:103E8000002C1AD0A86800272760606012E0009715
:103E90006A6969463046904706460098002809D06E
:103EA000A9698847002801D0686800E0286821686F
:103EB0004018206030780028E9D1F8BD7047002212
:103EC000002807D00278401C7F2A03D3130202780F
:103ED0001A43401C0A607047704710B5FCF700FB9E
:103EE00010BD30B591B034216846FCF752F9002579
:103EF00001200D950E950F9540021095FCF74EFB95
:103F00000224E001039000944020059008200A90CC
:103F100080030B900794000304950C900995089476
:103F20006846FCF753FC002801D072B6FEE7072074
:103F30000DA931C102210DA81095FCF755FB0028F1
:103F400001D072B6FEE711B030BD00000120024979
:103F5000C00688607047000000ED00E010B5FDF776
:103F6000BDFFFDF7ABFF040005D0FCF7E1F9034905
:103F70000880FDF7ABFF204610BD00002C03002099
:103F800010B502460021782000F051F910BD10B59F
:103F900002464021782000F04AF910BD30B4744642
:103FA000641E2578641CAB4200D21D46635D5B0035
:103FB000E31830BC184700008307FF22DB0E9A404D
:103FC0008907090E9940002808DB830809489B00EF
:103FD0001B18186890430843186070470007000FCB
:103FE0000838830804489B001B18D869904308438D
:103FF000D861704700E400E000ED00E002E008C88E
:10400000121F08C1002AFAD170477047002001E052
:1040100001C1121F002AFBD1704710B500224C21AC
:1040200000F070FD10BD10B500224D2100F06AFDBA
:1040300010BD0020401CC0B20528FBD3704710B54E
:1040400001684A7B2D2100F05DFD10BD08B50A48CE
:10405000426B08210A434263406B084000900748C6
:1040600006210160012141600221C160014604482E
:10407000FCF776F908BD000000100240DC030020C8
:10408000000C005010B5044601224C2100F03AFD0E
:104090002046FFF7D4FF10BD10B501224D2100F0DE
:1040A00031FD10BD10B50649002801D0002000E008
:1040B0000120486002490348FCF752F910BD000096
:1040C000DC030020000C005070B505460020FFF70F
:1040D000E9FF134E0024280601D5012200E000224A
:1040E00002213046FCF7EFF9FFF7A3FF012204217C
:1040F0003046FCF7E8F9FFF79CFF00220421304628
:10410000FCF7E1F96806050EFFF793FF641CE4B2C3
:10411000082CE0D3012202213046FCF7D4F970BD0F
:10412000000C005010B5094C002202212046FCF77B
:10413000CAF9012204212046FCF7C5F9FFF779FFEF
:10414000012202212046FCF7BEF910BD000C0050F0
:10415000F8B52C4E0F4605460024012202213046B8
:10416000FCF7B1F9012204213046FCF7ACF9FFF766
:1041700060FF002202213046FCF7A5F9FFF759FF46
:10418000002204213046FCF79EF9FFF752FF33E08E
:104190002878FFF799FF00206D1CFFF783FF194E69
:1041A000012202213046FCF78EF9FFF742FF01227F
:1041B00004213046FCF787F9FFF73BFF0120FFF7AA
:1041C00071FF02213046FCF779F9002801D0012661
:1041D00000E000260020FFF765FF002204210948C7
:1041E000FCF771F9FFF725FF002E03D0FFF79AFFC8
:1041F0000120F8BD641CE4B2BC42C9D3FFF792FFB2
:104200000020F8BD000C005010B50446002902D073
:10421000FFF742FF01E0FFF706FF2046FFF70FFF21
:104220002046FFF72FFF2046FFF7F7FE10BD08B529
:104230006B46187059709A7003216846FFF788FF23
:1042400008BD70B50C46C9090546C901FFF7DCFF7A
:104250002146402001402846FFF7D6FF2146202076
:1042600001402846FFF7D0FF214610200140284694
:10427000FFF7CAFF2146082001402846FFF7C4FF88
:104280002146042001402846FFF7BEFF21460220B8
:1042900001402846FFF7B8FFE107C90F2846FFF79E
:1042A000B3FF2846FFF7F8FE2846FFF7C8FE28466A
:1042B000FFF7E8FE2846FFF7EFFE2846FFF7BFFEB0
:1042C0002846FFF7AAFE70BDFCF712F9FFF709FEBA
:1042D000FDF79EFE054800F00BF8FDF78DFDFBF79E
:1042E000B5FF3220FCF72AF8F9E700005803002058
:1042F00010B50446094B0A4A0A4900F073F82046F3
:1043000000F0BAF90021204600F0BEF90649204627
:1043100000F02AF8204600F009F810BDB14A000864
:104320001B470008F8DD0008784B000810B501684D
:104330000A7C3821095C406B5143C900FBF729FF17
:1043400010BD70B5044640341E460D462179E07814
:10435000049B00F0CCF8002805D0A17860783346A3
:104360002A4600F0C4F870BD10B50446C06C8842FF
:1043700007D020466430E16400F010F9204600F0D8
:104380004DF810BD0149016570470000DD4400088B
:104390000146002240314A71CA71FF228A710A72B5
:1043A000016B4968084770B50025049EC564C36267
:1043B000044641632030027645765F20055520464D
:1043C0008030457001218170C170266331682046BC
:1043D00088472046FFF7DCFF2046FFF7D3FF603415
:1043E000A57070BD7CB500930C4613460546084A7F
:1043F000084900F051F901A800F0CAF801466846E2
:1044000000940279044B2846FFF7CDFF7CBD0000E5
:104410008D480008AD4900080745000810B5C16C7B
:10442000002916D06030112282568277122141561F
:10443000C177437F002B0CD0012B0BD00E2410230F
:104440000457C356E418944200DD8477994200DD96
:10445000C37710BD1323C3569A4200DA8377142220
:1044600082569142F5DDC27710BD38B50446054647
:104470004034207A0090A379E27961792846FFF7E9
:1044800060FF6035002816D00120287761786079B8
:10449000814200D26070A178A079814200D9A070D9
:1044A000E178E079814200D2E0702179207A81427E
:1044B00000D9207138BD0020287738BD38B53C259B
:1044C0002D5C049C0094521BC46AD2B2A04738BD34
:1044D00038B5049C0094FFF7F1FF38BD0020704709
:1044E0004018017840780902401880B270478A422B
:1044F00005D2834201D89A4203D9012070478342F2
:10450000F9D800207047F0B58E465607760F012186
:10451000B140CFB2014680318C46002589782C46C7
:10452000012901D83D4600D03C46D7080268FF006B
:10453000127C7A43476BB918059A7144002A09D155
:104540000878284360400870491C5B1E1B061B0E40
:10455000F6D1F0BD0A78761C2A43624076075B1ECE
:10456000760F0A70DBB2002E06D06A06150E6206C0
:10457000140E002BEED1F0BD3A22125C51186246A7
:104580009278012A02D80125012AF2D00124F0E70D
:104590000821017000487047F003002070B50546FF
:1045A00008782870487868708878A870C878E870AB
:1045B000087928714879687188790C46A871E07982
:1045C000E871207A2872607A6872A07AA872E07A1C
:1045D000E872207B2873607B6873A07BA873E07B04
:1045E000E873207C287411212046FFF779FF688248
:1045F00013212046FFF774FFA88215212046FFF7FC
:104600006FFFE88270BDF0B5014620310B7E046873
:10461000DA00CA76227C202A00D31F22D2008A76B2
:104620004D7EEA06120E0A77667CEF18B74201D972
:10463000731BDBB2DB004A77D2188A77F022CA7785
:10464000A28AF02A00D8CA77A17D40300170F0BD5F
:1046500010B5FFF7D8FF10BD014610B5403100235B
:104660000A464B702039CB7F93704B7FD370897F84
:104670001171FFF7FAFE10BD30B484680023A44620
:1046800030BC1A460A21604730B484680023A4462F
:104690000A4630BC0B216047F8B515460E46044665
:1046A000069F00F009F86761A660E5602046236177
:1046B00000F014F8F8BD000007498160C1600022D5
:1046C00001610260416101462031CA708A718261D4
:1046D000FF20087108727047AD4A000830B4846842
:1046E0000023A44630BC1A460921604730B404694F
:1046F0000023A44630BC1A461921604713B5012295
:10470000046901AB1721A0471CBD30B40469002324
:10471000A44630BC1A4618216047F8B50546203536
:1047200017460446182924D004DC142914D017296C
:1047300004D105E019293BD0202949D00020F8BD3B
:104740001E4606E031782046FFF77BFD7F1EFFB254
:10475000761C002FF6D13BE001224C2100F0D2F96B
:1047600001224D21204600F0CDF92046FFF767FCDD
:104770002EE06879002808D02046FFF78DFC2046FF
:10478000FFF75DFC2046FFF77DFC2046FFF784FC29
:104790002046FFF748FC2046FFF751FC2046FFF774
:1047A0003CFC0121697129792046FFF74AFD0FE0A1
:1047B000FFF739FC2046FFF742FC2046FFF762FC7A
:1047C0002046FFF769FC2046FFF739FC002068719E
:1047D0000120F8BD30B4C4680023A44630BC1A469A
:1047E0001921604730B4C4680023A4460A4630BC8F
:1047F0001621604730B4C4680023A4460A4630BC82
:104800001521604730B4C4681346A4460A4630BC3C
:1048100017216047F8B50C4605462178641C182915
:1048200024D00EDC152919D0162917D0172923D129
:104830002078694608706A4601212846FFF7E2FFA2
:104840000AE0192912D0FE2916D122786846027092
:104850002921284600F056F9641CDEE722786846D4
:104860000270EE6800232846B047F5E70023EE68A3
:104870001A462846B047D0E7F8BD30B4C4680023D4
:10488000A44630BC1A46182160470000FFB5144604
:104890000A462B4F0546143A81B00026387813009B
:1048A000FFF77CFB063404171C42454B002802D05E
:1048B0002846FFF71BFF2846FFF727FF0021284661
:1048C000FFF71CFF21462846FFF718FF012038702C
:1048D0002BE021462846FFF711FF26E0002802D0F2
:1048E0002846FFF703FF049F06E01821284600F042
:1048F0000FF9183CE4B21837182C3A46F5D821467F
:10490000284600F005F90E4806700EE028462030D3
:104910000279FF2A01D1782202712E6922462846A7
:10492000049BB04705B0F0BD3E700120FAE70028B7
:10493000FAD02846FFF7DAFEF6E70020F2E700009B
:104940001400002070B50023456904461A4628214A
:10495000A8470023E5681A4614212046A8470122EB
:104960004B21204600F0CEF820682921027920460C
:1049700000F0C8F800224B21204600F0C3F8206860
:1049800029210279204600F0BDF801224B21204662
:1049900000F0B8F8206829214279204600F0B2F8EA
:1049A00070BD0160897C20308170704770B50C4605
:1049B000054600F019F8002811D1092C0AD00A2C5C
:1049C00000D070BD2846FFF7BDFF06492846FFF717
:1049D00021FF04E003492846CC31FFF7E2FF012024
:1049E00070BD00001CDE0008F8B51F4614460546E1
:1049F0000B2909D02E4620360D290ED00E291DD0A8
:104A00000F2926D00020F8BD002A03D02649FFF741
:104A100001FF47E02449491FF9E7002A07D022494E
:104A20000C31FFF7F7FE2868C07CB0703AE01E49F1
:104A3000491DFFF7EFFE2868807CF6E7FFF71DFFB2
:104A400081212846FFF7D6FE21462846FFF7CAFEF9
:104A500025E0FFF712FF7879B178C0000818C6B2D8
:104A600040212846FFF7C6FE310928461031FFF7DE
:104A7000C1FE3107090F2846FFF7B4FEB979B0200F
:104A800001432846FFF7AEFE38793A68C006010EAA
:104A90002846FFF7B7FE641E2406240EF4D12846EC
:104AA000FFF798FE0120F8BD09DE000800207047DE
:104AB00010B510462B291CD004DC282909D029293F
:104AC00005D118E00E4B4C290BD04D2904D0002005
:104AD00010BDFDF7E4FA10E0002A00D00122022107
:104AE00003E0002A00D0012204211846FBF7EBFC6A
:104AF00003E000BF01E0FBF721FC012010BD000036
:104B0000000C005030B444690023A44630BC604718
:104B1000F8B515460E460446FFF7F7FD402120463E
:104B2000FFF7ECFD27692B46324617212046B84790
:104B30002046FFF7DBFDF8BD00000000000000008C
:104B40000000000000000000000000000000000065
:104B50000000000000000000010000000200000052
:104B60000300000004000000060000000700000031
:104B70000800000009000000E20004020505040529
:104B800006101000FE0AFE0BFF01B9037805652030
:104B90000600A047012108413144E1202122088577
:104BA000284621E3262310462544A527834122D207
:104BB000623088F404241447254427345044229258
:104BC000D06C1491540C44190025164725444323F6
:104BD000499424228A542C9590242289128D0226ED
:104BE00014472544655392A9088912114D4294C86F
:104BF00048260127078130466110280D83ED4325A3
:104C00001149447A13C904290E83E9432113C94485
:104C10007A114944002A0EE76444A7A4A2CD26D104
:104C2000A426032B0DE7644427563318646235002D
:104C30002C0982AC43419150002D07242845611076
:104C40002E07422C4461102F0D462544ABA82A9410
:104C50000A55A500301446254445134984349384ED
:104C600022B2112522190900310C45294425234976
:104C700084FA642032104625446390088952194D05
:104C8000A82A351833124625446390088952915951
:104C90004A244A0C1200341246254429A449442AC5
:104CA00032894C62304A55003510462544E1205582
:104CB0003590A552A2C42001361046254465124AFB
:104CC000A5068A90A3C42001370C462544E1AA28F2
:104CD00055946A02381146254463900819250689BF
:104CE00090A3C42001391046254463900819250675
:104CF000AA469109003A09E26C4461101B043B0B7F
:104D000022ED436110532414003C0925294429D382
:104D100055073D09A6A444E11E33183E0A25254443
:104D200021D54D47003F0F4625446390088952A185
:104D3000AA6C2A02401446254465929124148945A0
:104D400044115144248BD820410F46254445136912
:104D500011120D06224701421046254461A0081990
:104D60000D162147830500430F46254463900859DB
:104D700075244A0C1200440F4625446110C9244290
:104D80007E93184400450E462544E120553550A435
:104D90005A0D06460D462544E120553550A4BA0269
:104DA000471046254463900859950C42368A4500C1
:104DB000480C46254421E46830107914490C4529F3
:104DC00044612009F59381004A0F47254465208AF4
:104DD000F52413C96436004B1346254421A44944E5
:104DE0002A3222512213A94984024C0A4625442121
:104DF000D55F0D064D0E46254421249A0C220B8FBB
:104E00001C054E1246254421B4D928228A88242123
:104E100049688E024F0D462544639008F9A3C420CB
:104E200001500E46254461A008190D16A9AE005187
:104E30001967E543631009254289502294082542E9
:104E400089842221910C7202521246254461A008E5
:104E5000190D16919A4426111205530F46254463E5
:104E6000900899391225060900540B472544E12082
:104E700013EB6F00550C46254421E41F250609005D
:104E80005613472544216595C84432914C452891D5
:104E90008A6500570E46254421E4858BC9203212CD
:104EA00005581146254421244A44DA8834911621B4
:104EB0005100591047254421A54A6422998A54ACCF
:104EC0001B005A0C462544E1AAA857A9C1005B0A59
:104ED00083F1436110E99F0C5C0D4625442115AB1D
:104EE0008AA56255015D0A83E54361D23F19045EDC
:104EF0000A66644645134984025F0727E443E120BC
:104F0000600763A8462153610F062544639008A5F6
:104F10001283918D6211620F66254421D562A11121
:104F200039DA281600630E062544639008A93A4A28
:104F30000C1200640D662544ABC54233F246B1083D
:104F40006510062544639008890603555162900058
:104F5000660D65254447122A1948423D01671566CA
:104F6000A5432BB1D02432894C64931A2442A2C4A5
:104F70002001680C66254421D562A111F928690B2E
:104F8000652944251414F5C9406A0CA5A543A95008
:104F9000D4479288046B1266254421D52611A9C8EE
:104FA000881299484D22146C0A65294443D43F194C
:104FB000086D1407254461A18844241149441291C5
:104FC00044241149016E0B06254421B1D0887C147C
:104FD0006F0D062544639008F928314800700F468C
:104FE000A54321B1D0881C6D148B540A710D46A5C0
:104FF0004363A11979A358A40A720C06254421B170
:10500000D088545D01730E062544639008C91C25A1
:10501000060900740C4525442554329084BA127553
:105020000B06254421E4378A4500760D06254421E8
:10503000649488F446240177130725442125894880
:10504000229288242289482A2C007810062544219F
:10505000244A4432224D24111205790F46A54321DA
:10506000E451226291AA1824007A0B062544E12A11
:10507000D4ABC1007B0FA4A94345910965224535F6
:10508000914C487C08C1B143E103017D10A4A943C0
:1050900041948964422535A14C42027E0B67244627
:1050A0004323896814007F2610A28321D1EF117A4F
:1050B000023D623248642689502A92182432934471
:1050C00028351924067B023D811ED11F802610A29F
:1050D0008321D1EF117A023D6223594C129144246D
:1050E0007290880C429144A4289258E809F4047AFA
:1050F000447F0000002051450E1F53F20E935BCCFD
:105100000F0C62530F556839111A76AE1067811A69
:105110001114FFFF201308262445E1004E00082F3C
:10512000A085E1074E010FEDA583E18358B8FF6923
:10513000229B034E0314EEE1832DDD9B416A201A6E
:1051400028D29DF56E30084E071DCFA183E157F19F
:10515000F2C120980AA672B15CAC2E964B0543B101
:10516000442898024E09118F218463F020CFCDE0AE
:1051700040CF93C1074E0A10EFE1832DDEF3C1202B
:1051800018EFC3C1074E0B15EFA183E167F14EB2D3
:10519000996828990AA682F10E014E0D1FEEA1838F
:1051A00063F020980EA7C38A6422928B64529950B0
:1051B00026944AA452B27433004E0E1A0EA28327CC
:1051C0005D3D38D084D3E9C181BAC5E020922E4D2F
:1051D0008433004E131C0FA2832F5E393810C68310
:1051E00083AFD2F1C1409E4E4AC27A401E10024E99
:1051F0001420CFE1836770968BE562B9D8E02C1755
:10520000CBC572B1C1592E968BE562B9CCE0034E85
:105210001628EFE1832D938B6472914C2E92C94531
:1052200032A1C137914C2E92C94532B9482617197F
:10523000E8E2E5830305004E1A27EFE1832B13CD47
:105240004433D14C2CD349A64926924A6422A9441E
:1052500026114B64949968269A896652830F4E1CD6
:105260001F0DA6832B5C377810CA4682995C2837BD
:1052700038D0252355994615A9A24436074E24292E
:10528000EFA183E1579968269A890D1E44324D3269
:105290004D324D2A9AB428494412998A482816C991
:1052A0004692894834024E251BEFA18363F02017F4
:1052B00009469A252289642437781089F73A9E8E08
:1052C000034E2A160FA2832F9E4E6433C954AE2A72
:1052D00054A24AE9E2FD0E4E2D190BAA832BDA6A7D
:1052E000F028240A8942A29028347810AA8AB602AB
:1052F0004E3A240DA283AF28980966C2B1C1B354B7
:105300002C154B645299482A1309E532C148329151
:105310004B5446004E3B16EFE1832D0FC803070F99
:1053200082F196830365BCBBC1074E3E210FA28369
:105330002593AA09A532D5A1C147A95CA62A542262
:10534000190C22BA7870F020186F074E451D0FA275
:10535000832B5E3E18A682A95C2A176B9E4E64239F
:10536000D15030961246B4024E481AEDE5832D9C7A
:105370000D6733B9502C144BB52D8A15052383279F
:10538000C9004E49210FA2832D0FC8A44299543061
:1053900056170BA682A168269B48576433C9544C04
:1053A00027D10A4E4B13EEE5832B9ECEC3068FFB0F
:1053B000AD36920C0D0E4E4E1B0FA283373B100DD7
:1053C000E6D14C5D24938BD4E606DFC53B4EA48327
:1053D000004E50220DA683333A080D84E14C2E94E2
:1053E0000BE506CF9291B2482694094542295551C2
:1053F000229B034E5D200FA2832BDE7470900C2540
:1054000043C95030154C0553B958A62C13C9651221
:10541000C9811C4E5F27EFE1832F1ECD4433115904
:1054200066114B6C52934C469129CB946512659949
:10543000482E13CB4433D1D0E0404E611A0DA283E5
:105440002D9C0DC552AD06836C28966A3418689B56
:105450002A8553004E661F0EA2832D930C05539987
:10546000C165269949669299CCE081AC7F93C88545
:105470008239004E7021EFA18363F0209ECAD4458B
:105480008291CA503294CE0DBE4B27A4A1602C2528
:105490008C6813004E8610ECA583E1D396D26CBFC6
:1054A0004C4463004E89250FA283299E1E0C64B9CB
:1054B000542E95181C2843C95066F040174A86425E
:1054C00083036528194EA483004E8B220FA2832FDD
:1054D0009E1B7C971C1C881A0D0E94C9C181321426
:1054E000197C170A0D0E94E1443A084E8C0D4F6159
:1054F000846570A0E74F061F4E8E13EFA183657081
:10550000A08CB71B7C17EFE3443A084E9119EFA12A
:10551000836570A0E764F0593A9E0E056385A1C1CA
:10552000A3643C024E921BCFE18363F02016AF1EB2
:105530000C74B15CAC2E563718C8D3F1D4E0034ECE
:10554000941DCFE18363F020176F3A3808A682A933
:10555000602A98CAC572B15C2C33F8004E9A26CFE7
:10556000E18363F020968966A299682696E924D3A0
:105570002413492532915422930866A2996826354E
:10558000F8004E9B28EFE1832B13CDE42299268B64
:10559000482892594532A1484D289218244203D9EF
:1055A0004091A718DC130D1E24004EA4200FA283E7
:1055B0002D0F88E706DF6372B160281769158965CA
:1055C000B289744554939369A4034EA71A0FA2831A
:1055D0002D0F080E1EE45195A164263778108977A7
:1055E0001D4FC7014EAC200FA2832D0FC80DBEA7C3
:1055F000199CE562B9582E3638AD29CB845A45320C
:1056000089542E084EAE260FA2832D0F080E1EE4DD
:1056100051834130151C0CF2A8C103455834D0C445
:1056200032D14C3254A20A0D07024EB2220FA2838D
:105630002D0F480E0EF4B05432931A7C170F0E1E25
:1056400004B391BA4C55A8A622950B024EBA1A0F74
:10565000A2832FDEEB443891CD4433C9543095AB4F
:105660004A66B28974004EBF280FA283295E3118A2
:105670008882A95C4A1653C512A1582494CC44339D
:10568000D1482E13C96522B94C6630D064014EC092
:10569000260FA28329154C0553B9582E1693C5140D
:1056A000838344592812CBC572B15C2C17CBC572C9
:1056B000B15C2C044EC52D0FA283299E180C549169
:1056C0005428930A655219512624CA54843291AA47
:1056D000442C9588D5C572A9442C94496552A1845F
:1056E0002E4ECA1C0FA2832F9E4E6433C9542E1215
:1056F0004A854A54293D66709E8EA7DB014ECD2B0C
:105700000EA283295D3118846A4225215124244A3E
:105710008412A1C44012AA09D55465AA32559948E9
:105720002C13C924428954044ECE2B0FA283291571
:105730004C0553C15430154C0553C1543094882541
:10574000328958A42216496442A94CA82A128A25F3
:1057500042C1004ED62F0FA283A932944C448291AD
:105760000A5524A208491292904411C92406917E38
:10577000156915A950458A32915C2692CB640603BF
:105780004D164EE3290FA2832913C965CA3255A1CC
:105790006428319028063A512E912A490553C15860
:1057A0002E96A98B6482894C52130D4EE41F0FA2D2
:1057B000832F9E4E6433C9442697A90A9568358382
:1057C000F37432934DA4F380780C4EE5260DAA8332
:1057D0003396CA14654299A24C612698C98572A174
:1057E0005C2892492542898C281309A5EA32C10018
:1057F0004EEA2B0FA28329130D4562894855245583
:10580000920A69AA3445894C935022174AE452C13E
:10581000543094C865CA22A98A9C004EEC310EA26D
:10582000832912CD243389412612CB446211492C9D
:105830002289254A6292B24C249689C43291582614
:1058400012CB44629948289189A412004EF62B0F7E
:10585000A28329154C05237599482E331864249981
:105860009824934A1495C47289C14126968BE562A7
:10587000B9582E968B85004EF72A0FA283A9329431
:10588000CC2472A1442E532549851439454D934C9F
:1058900059A62C539629CB944542B1482896486581
:1058A000004EFB270FA28329960B0D62894130150C
:1058B0004CE55439552C317810490553C1543015F5
:1058C0004C0553C1C4E0280B4EFD330FA28329962B
:1058D000CB447299482C94496542214D2A2389452D
:1058E000121583852494498532A9502615CAA432FD
:1058F000A15426948A6412A9442A034F0121EFE19E
:10590000832F9E4E6433C9544C9391A852BA682693
:105910009A19AC32D14C3413CDE4061F4F17280F1F
:10592000A2832F9E4E6433C954AE2A914A4424A9BF
:105930008828154C0553B94426118B54A432894C40
:1059400055452A174F18310FA2832913C965CA324A
:1059500055A164627010112562A2442A114A842262
:10596000A1442E94C86522B94C24D32453926912C1
:105970001A641249004F1A210FA2832F9E4E6433DE
:10598000C9544C27910C06113DC5E0412E5D95ABE5
:105990001A1CA88211004F1F2E0FA283A932940C4B
:1059A000051383834C2AA7CA490603492255920A44
:1059B000260607995428930A65529144269509A50D
:1059C00082A914004F20290FA283A932940C052329
:1059D0008341AA4E14540C0E1245B148261A190CD4
:1059E00052C154A62C94C8A582B15C2C044F242D1E
:1059F0000FA2832913CD4423D1CC60A089441599EB
:105A00009C2A96880C068A482A134A6542FD261568
:105A1000CAA442914C22954865004F34290FA283B5
:105A2000A93211C9A42289482A93284BE514831B63
:105A3000552C912A4905076F52C15430154C055316
:105A4000C1540A4F3C310FA2832798CA8452A14CFB
:105A5000289289842299484612CB486291442416A0
:105A60008AA44A5225A9924424118A68229948A6F8
:105A7000554928164F462C0FA283295E31188822DB
:105A8000B150249691C43292C1409288C41291B20E
:105A90005024168A0C06A2482C14AF181C64B200BD
:105AA0004F4D250FA28329130D2543C1786270A3A2
:105AB0001666129154A4554D59A62C539689E4624A
:105AC000B9C19B2C004F4E360FA28329174B0D52A4
:105AD00089812E92C9453231492626C9A41291C125
